{
	"data": {
		"bytecode": {
			"linkReferences": {},
			"object": "6080604052600f80546001600160a01b03191673498996abe2ce60ff1070a3652facd50e0e51c7311790553480156200003757600080fd5b50604051620043d9380380620043d98339810160408190526200005a916200018d565b600080546001600160a01b0319166001600160a01b0388161790556001849055600283905582620000b1836200009d83826200015c602090811b620012a117901c565b6200017160201b620012ad1790919060201c565b1415620000db57620000d282846200015c60201b620012a11790919060201c565b600455620000e1565b60038290555b620000ed848662000309565b6005556000600755604051819062000105906200017f565b6200011191906200028f565b604051809103906000f0801580156200012e573d6000803e3d6000fd5b50600e80546001600160a01b0319166001600160a01b03929092169190911790555062000382945050505050565b60006200016a8284620002c4565b9392505050565b60006200016a8284620002e7565b6120eb80620022ee83390190565b60008060008060008060c08789031215620001a757600080fd5b86516001600160a01b0381168114620001bf57600080fd5b6020880151604089015160608a015160808b015160a08c0151949a50929850909650945092506001600160401b0380821115620001fb57600080fd5b818901915089601f8301126200021057600080fd5b8151818111156200022557620002256200036c565b604051601f8201601f19908116603f011681019083821181831017156200025057620002506200036c565b816040528281528c60208487010111156200026a57600080fd5b6200027d83602083016020880162000323565b80955050505050509295509295509295565b6020815260008251806020840152620002b081604085016020870162000323565b601f01601f19169190910160400192915050565b600082620002e257634e487b7160e01b600052601260045260246000fd5b500490565b600081600019048311821515161562000304576200030462000356565b500290565b6000828210156200031e576200031e62000356565b500390565b60005b838110156200034057818101518382015260200162000326565b8381111562000350576000848401525b50505050565b634e487b7160e01b600052601160045260246000fd5b634e487b7160e01b600052604160045260246000fd5b611f5c80620003926000396000f3fe6080604052600436106101cd5760003560e01c8063645a106a116100f7578063aafe1a2211610095578063d0603e5e11610064578063d0603e5e146104cd578063d9af0609146104ed578063dcd2af171461050d578063e71da82f1461052357600080fd5b8063aafe1a221461046e578063b390c0ab14610481578063b9d3c3a6146104a1578063cd3293de146104b757600080fd5b8063785e9e86116100d1578063785e9e86146103f85780638256df8f1461041857806383ca4b6f146104385780638a054ac21461045857600080fd5b8063645a106a146103af5780636a58b216146103cf57806372520137146103e257600080fd5b80632e52d6061161016f5780634bde38c81161013e5780634bde38c8146103445780634f3e1efc146103645780635a2ee01914610379578063613a9fd51461038f57600080fd5b80632e52d606146102e257806336e0cac6146102f85780633ef7a36e1461030e5780634baa3faa1461032e57600080fd5b80630ad3b196116101ab5780630ad3b1961461025d5780631b2ef1ca1461028a57806329d15248146102aa5780632ae02e3a146102cc57600080fd5b806302acc94b146101d257806302d05d3f146102055780630490a7801461023d575b600080fd5b3480156101de57600080fd5b506101f26101ed366004611b42565b610543565b6040519081526020015b60405180910390f35b34801561021157600080fd5b50600b54610225906001600160a01b031681565b6040516001600160a01b0390911681526020016101fc565b34801561024957600080fd5b506101f2610258366004611aca565b6105ba565b34801561026957600080fd5b506101f2610278366004611aca565b60066020526000908152604090205481565b34801561029657600080fd5b506101f26102a5366004611afc565b61079f565b3480156102b657600080fd5b506102ca6102c5366004611a90565b6107dd565b005b3480156102d857600080fd5b506101f2600d5481565b3480156102ee57600080fd5b506101f260025481565b34801561030457600080fd5b506101f260095481565b34801561031a57600080fd5b50600f54610225906001600160a01b031681565b34801561033a57600080fd5b506101f2600c5481565b34801561035057600080fd5b50600854610225906001600160a01b031681565b34801561037057600080fd5b506101f26108d5565b34801561038557600080fd5b506101f260015481565b34801561039b57600080fd5b506101f26103aa366004611aca565b610957565b3480156103bb57600080fd5b506102ca6103ca3660046119e8565b610a8f565b6101f26103dd366004611aca565b610b54565b3480156103ee57600080fd5b506101f260045481565b34801561040457600080fd5b50600054610225906001600160a01b031681565b34801561042457600080fd5b506101f2610433366004611b42565b610b8a565b34801561044457600080fd5b506102ca610453366004611a2c565b610cab565b34801561046457600080fd5b506101f260035481565b6101f261047c366004611afc565b610e60565b34801561048d57600080fd5b506102ca61049c366004611afc565b610ec4565b3480156104ad57600080fd5b506101f2600a5481565b3480156104c357600080fd5b506101f260075481565b3480156104d957600080fd5b506102ca6104e8366004611afc565b610fce565b3480156104f957600080fd5b506102ca610508366004611a2c565b6110e3565b34801561051957600080fd5b506101f260055481565b34801561052f57600080fd5b50600e54610225906001600160a01b031681565b600080546001600160a01b03166105755760405162461bcd60e51b815260040161056c90611ce6565b60405180910390fd5b600061058160016112b9565b9050808310156105a35760405162461bcd60e51b815260040161056c90611c5d565b6105af85856000611478565b9150505b9392505050565b6000806105c56108d5565b6105d0906001611d1d565b9050600080600454111561069557600a6004541161063e57600061060960045484600188876105ff9190611d1d565b6104339190611e61565b9050610636610623866005546112ad90919063ffffffff16565b60015461063090846112ad565b90611690565b9150506105b3565b815b61064a8584611d1d565b81101561068f5761067b6106746005546106306004548561066b9190611d9a565b600154906112ad565b8390611690565b91508061068781611ebb565b915050610640565b506105b3565b815b6106a18584611d1d565b81101561079757600f546002546003546040516316bfcd3760e21b815260048101859052600160248201526044810192909252606482015260009182916001600160a01b0390911690635aff34dc90608401604080518083038186803b15801561070a57600080fd5b505afa15801561071e573d6000803e3d6000fd5b505050506040513d601f19601f820116820180604052508101906107429190611b1e565b91509150600061077361076a83610764866001546112ad90919063ffffffff16565b906112a1565b60055490611690565b905061077f8582611690565b9450505050808061078f90611ebb565b915050610697565b509392505050565b600080546001600160a01b03166107c85760405162461bcd60e51b815260040161056c90611ce6565b6107d483836000611478565b90505b92915050565b6000546001600160a01b031661087157801561083557600854600a546040516001600160a01b039092169181156108fc0291906000818181858888f1935050505015801561082f573d6000803e3d6000fd5b506108be565b600b54600d546040516001600160a01b039092169181156108fc0291906000818181858888f1935050505015801561082f573d6000803e3d6000fd5b801561089d57600854600a54600054610898926001600160a01b039182169291169061169c565b6108be565b600b54600d546000546108be926001600160a01b039182169291169061169c565b80156108cc576000600a5550565b6000600d555b50565b600e54604080516318160ddd60e01b815290516000926001600160a01b0316916318160ddd916004808301926020929190829003018186803b15801561091a57600080fd5b505afa15801561092e573d6000803e3d6000fd5b505050506040513d601f19601f820116820180604052508101906109529190611ae3565b905090565b6000806109626108d5565b90508083116109715782610973565b805b92506000806004541115610a1957600a600454116109d25760006109b0600454868561099f9190611e61565b6109aa906001611d1d565b85610b8a565b90506109ca610623866005546112ad90919063ffffffff16565b915050610a5c565b815b6109de8584611e61565b811115610a13576109ff6106746005546106306004548561066b9190611d9a565b915080610a0b81611ea4565b9150506109d4565b50610a5c565b815b610a258584611e61565b811115610a5a57600081815260066020526040902054610a46908390611690565b915080610a5281611ea4565b915050610a1b565b505b610a876064610764600c546009546064610a769190611e61565b610a809190611e61565b84906112ad565b949350505050565b6008546001600160a01b0316158015610ab15750600b546001600160a01b0316155b610b1c5760405162461bcd60e51b815260206004820152603660248201527f43757276653a20636f6d6d697373696f6e206163636f756e7420616e642072616044820152753a329031b0b73737ba1031329036b7b234b334b2b21760511b606482015260840161056c565b600880546001600160a01b03199081166001600160a01b0396871617909155600993909355600b805490931691909316179055600c55565b600080546001600160a01b031615610b7e5760405162461bcd60e51b815260040161056c90611ca5565b6107d782346001611478565b600f54600090610a87906001600160a01b03166370adc75e86610bae600188611e61565b6040516001600160e01b031960e085901b1681526004810192909252602482015260440160206040518083038186803b158015610bea57600080fd5b505afa158015610bfe573d6000803e3d6000fd5b505050506040513d601f19601f82011682018060405250810190610c229190611ae3565b600f54604051633856e3af60e11b815260048101889052602481018690526001600160a01b03909116906370adc75e9060440160206040518083038186803b158015610c6d57600080fd5b505afa158015610c81573d6000803e3d6000fd5b505050506040513d601f19601f82011682018060405250810190610ca59190611ae3565b90611704565b6000546001600160a01b0316610cd35760405162461bcd60e51b815260040161056c90611ce6565b8051825114610d3c5760405162461bcd60e51b815260206004820152602f60248201527f43757276653a205f746f6b656e49647320616e64205f62616c616e636573206c60448201526e32b733ba341036b4b9b6b0ba31b41760891b606482015260840161056c565b6000805b8251811015610d8257828181518110610d5b57610d5b611eec565b602002602001015182610d6e9190611d1d565b915080610d7a81611ebb565b915050610d40565b506000610d8e82610957565b600e54604051631ac8311560e21b81529192506001600160a01b031690636b20c45490610dc390339088908890600401611bc5565b600060405180830381600087803b158015610ddd57600080fd5b505af1158015610df1573d6000803e3d6000fd5b5050600754610e039250905082611704565b600755600054610e1d906001600160a01b0316338361169c565b600754817fd06d805cccc689c42fe1c35f911544f3f334eb2a888128624cc1103d31863e3b8686604051610e52929190611c05565b60405180910390a350505050565b600080546001600160a01b031615610e8a5760405162461bcd60e51b815260040161056c90611ca5565b6000610e9660016112b9565b905080831015610eb85760405162461bcd60e51b815260040161056c90611c5d565b610a8784346001611478565b6000546001600160a01b0316610eec5760405162461bcd60e51b815260040161056c90611ce6565b6000610ef782610957565b600e54604051637a94c56560e11b815233600482015260248101869052604481018590529192506001600160a01b03169063f5298aca90606401600060405180830381600087803b158015610f4b57600080fd5b505af1158015610f5f573d6000803e3d6000fd5b5050600754610f719250905082611704565b600755600054610f8b906001600160a01b0316338361169c565b60075481847f995ca2c4af96166d9ca34da2b4bf391c101a82cd1a12c60d5a8a0f65b24befc085604051610fc191815260200190565b60405180910390a4505050565b6000546001600160a01b031615610ff75760405162461bcd60e51b815260040161056c90611ca5565b600061100282610957565b600e54604051637a94c56560e11b815233600482015260248101869052604481018590529192506001600160a01b03169063f5298aca90606401600060405180830381600087803b15801561105657600080fd5b505af115801561106a573d6000803e3d6000fd5b505060075461107c9250905082611704565b600755604051339082156108fc029083906000818181858888f193505050501580156110ac573d6000803e3d6000fd5b5060075481847f995ca2c4af96166d9ca34da2b4bf391c101a82cd1a12c60d5a8a0f65b24befc085604051610fc191815260200190565b6000546001600160a01b03161561110c5760405162461bcd60e51b815260040161056c90611ce6565b80518251146111745760405162461bcd60e51b815260206004820152602e60248201527f43757276653a205f746f6b656e49647320616e64205f62616c616e636573206c60448201526d0cadccee8d040dad2e6dac2e8c6d60931b606482015260840161056c565b6000805b82518110156111ba5782818151811061119357611193611eec565b6020026020010151826111a69190611d1d565b9150806111b281611ebb565b915050611178565b5060006111c682610957565b600e54604051631ac8311560e21b81529192506001600160a01b031690636b20c454906111fb90339088908890600401611bc5565b600060405180830381600087803b15801561121557600080fd5b505af1158015611229573d6000803e3d6000fd5b505060075461123b9250905082611704565b600755604051339082156108fc029083906000818181858888f1935050505015801561126b573d6000803e3d6000fd5b50600754817fd06d805cccc689c42fe1c35f911544f3f334eb2a888128624cc1103d31863e3b8686604051610e52929190611c05565b60006107d48284611d35565b60006107d48284611e42565b6000806112c46108d5565b6112cf906001611d1d565b9050600080600454111561133f57600a600454116112fe57600061060960045484600188876105ff9190611d1d565b815b61130a8584611d1d565b81101561068f5761132b6106746005546106306004548561066b9190611d9a565b91508061133781611ebb565b915050611300565b815b61134b8584611d1d565b8110156107975760008181526006602052604090205461144957600f546002546003546040516316bfcd3760e21b815260048101859052600160248201526044810192909252606482015260009182916001600160a01b0390911690635aff34dc90608401604080518083038186803b1580156113c757600080fd5b505afa1580156113db573d6000803e3d6000fd5b505050506040513d601f19601f820116820180604052508101906113ff9190611b1e565b91509150600061142161076a83610764866001546112ad90919063ffffffff16565b905061142d8582611690565b6000858152600660205260409020919091559350611466915050565b600081815260066020526040902054611463908390611690565b91505b8061147081611ebb565b915050611341565b600080611484856112b9565b9050808410156114d65760405162461bcd60e51b815260206004820152601c60248201527f43757276653a206e6f7420656e6f75676820746f6b656e2073656e7400000000604482015260640161056c565b821561152b5760006114e88583611704565b111561152657336108fc6114fc8684611704565b6040518115909202916000818181858888f19350505050158015611524573d6000803e3d6000fd5b505b611543565b600054611543906001600160a01b0316333084611710565b600e546040516340c10f1960e01b8152336004820152602481018790526000916001600160a01b0316906340c10f1990604401602060405180830381600087803b15801561159057600080fd5b505af11580156115a4573d6000803e3d6000fd5b505050506040513d601f19601f820116820180604052508101906115c89190611ae3565b905060006115e66064610764600954866112ad90919063ffffffff16565b905060006116046064610764600c54876112ad90919063ffffffff16565b600a549091506116149083611690565b600a55600d546116249082611690565b600d55600061163782610ca58786611704565b6007549091506116479082611690565b60078190556040518a8152869086907fffcef012c57aebe5ac5892b7a52a23e54435ab8349cfbaa6620d7f3b0da0a0019060200160405180910390a45091979650505050505050565b60006107d48284611d1d565b6040516001600160a01b0383166024820152604481018290526116ff90849063a9059cbb60e01b906064015b60408051601f198184030181529190526020810180516001600160e01b03166001600160e01b03199093169290921790915261174e565b505050565b60006107d48284611e61565b6040516001600160a01b03808516602483015283166044820152606481018290526117489085906323b872dd60e01b906084016116c8565b50505050565b60006117a3826040518060400160405280602081526020017f5361666545524332303a206c6f772d6c6576656c2063616c6c206661696c6564815250856001600160a01b03166118209092919063ffffffff16565b8051909150156116ff57808060200190518101906117c19190611aad565b6116ff5760405162461bcd60e51b815260206004820152602a60248201527f5361666545524332303a204552433230206f7065726174696f6e20646964206e6044820152691bdd081cdd58d8d9595960b21b606482015260840161056c565b6060610a87848460008585843b6118795760405162461bcd60e51b815260206004820152601d60248201527f416464726573733a2063616c6c20746f206e6f6e2d636f6e7472616374000000604482015260640161056c565b600080866001600160a01b031685876040516118959190611ba9565b60006040518083038185875af1925050503d80600081146118d2576040519150601f19603f3d011682016040523d82523d6000602084013e6118d7565b606091505b50915091506118e78282866118f2565b979650505050505050565b606083156119015750816105b3565b8251156119115782518084602001fd5b8160405162461bcd60e51b815260040161056c9190611c2a565b80356001600160a01b038116811461194257600080fd5b919050565b600082601f83011261195857600080fd5b8135602067ffffffffffffffff8083111561197557611975611f02565b8260051b604051601f19603f8301168101818110848211171561199a5761199a611f02565b604052848152838101925086840182880185018910156119b957600080fd5b600092505b858310156119dc5780358452928401926001929092019184016119be565b50979650505050505050565b600080600080608085870312156119fe57600080fd5b611a078561192b565b935060208501359250611a1c6040860161192b565b9396929550929360600135925050565b60008060408385031215611a3f57600080fd5b823567ffffffffffffffff80821115611a5757600080fd5b611a6386838701611947565b93506020850135915080821115611a7957600080fd5b50611a8685828601611947565b9150509250929050565b600060208284031215611aa257600080fd5b81356105b381611f18565b600060208284031215611abf57600080fd5b81516105b381611f18565b600060208284031215611adc57600080fd5b5035919050565b600060208284031215611af557600080fd5b5051919050565b60008060408385031215611b0f57600080fd5b50508035926020909101359150565b60008060408385031215611b3157600080fd5b505080516020909101519092909150565b600080600060608486031215611b5757600080fd5b505081359360208301359350604090920135919050565b600081518084526020808501945080840160005b83811015611b9e57815187529582019590820190600101611b82565b509495945050505050565b60008251611bbb818460208701611e78565b9190910192915050565b6001600160a01b0384168152606060208201819052600090611be990830185611b6e565b8281036040840152611bfb8185611b6e565b9695505050505050565b604081526000611c186040830185611b6e565b82810360208401526105af8185611b6e565b6020815260008251806020840152611c49816040850160208701611e78565b601f01601f19169190910160400192915050565b60208082526028908201527f43757276653a207072696365206578636565647320736c69707061676520746f6040820152673632b930b731b29760c11b606082015260800190565b60208082526021908201527f43757276653a2065726332302061646472657373206973204e4f54206e756c6c6040820152601760f91b606082015260800190565b6020808252601d908201527f43757276653a2065726332302061646472657373206973206e756c6c2e000000604082015260600190565b60008219821115611d3057611d30611ed6565b500190565b600082611d5257634e487b7160e01b600052601260045260246000fd5b500490565b600181815b80851115611d92578160001904821115611d7857611d78611ed6565b80851615611d8557918102915b93841c9390800290611d5c565b509250929050565b60006107d48383600082611db0575060016107d7565b81611dbd575060006107d7565b8160018114611dd35760028114611ddd57611df9565b60019150506107d7565b60ff841115611dee57611dee611ed6565b50506001821b6107d7565b5060208310610133831016604e8410600b8410161715611e1c575081810a6107d7565b611e268383611d57565b8060001904821115611e3a57611e3a611ed6565b029392505050565b6000816000190483118215151615611e5c57611e5c611ed6565b500290565b600082821015611e7357611e73611ed6565b500390565b60005b83811015611e93578181015183820152602001611e7b565b838111156117485750506000910152565b600081611eb357611eb3611ed6565b506000190190565b6000600019821415611ecf57611ecf611ed6565b5060010190565b634e487b7160e01b600052601160045260246000fd5b634e487b7160e01b600052603260045260246000fd5b634e487b7160e01b600052604160045260246000fd5b80151581146108d257600080fdfea264697066735822122060d61a3754919102cb45b0ecdb63acca79c9cf9b7d007a64526f62bbb33c8db364736f6c6343000806003360806040523480156200001157600080fd5b50604051620020eb380380620020eb833981016040819052620000349162000119565b8062000040816200005a565b5050600380546001600160a01b0319163317905562000248565b80516200006f90600290602084019062000073565b5050565b8280546200008190620001f5565b90600052602060002090601f016020900481019282620000a55760008555620000f0565b82601f10620000c057805160ff1916838001178555620000f0565b82800160010185558215620000f0579182015b82811115620000f0578251825591602001919060010190620000d3565b50620000fe92915062000102565b5090565b5b80821115620000fe576000815560010162000103565b600060208083850312156200012d57600080fd5b82516001600160401b03808211156200014557600080fd5b818501915085601f8301126200015a57600080fd5b8151818111156200016f576200016f62000232565b604051601f8201601f19908116603f011681019083821181831017156200019a576200019a62000232565b816040528281528886848701011115620001b357600080fd5b600093505b82841015620001d75784840186015181850187015292850192620001b8565b82841115620001e95760008684830101525b98975050505050505050565b600181811c908216806200020a57607f821691505b602082108114156200022c57634e487b7160e01b600052602260045260246000fd5b50919050565b634e487b7160e01b600052604160045260246000fd5b611e9380620002586000396000f3fe608060405234801561001057600080fd5b50600436106100ff5760003560e01c80634e1273f411610097578063e985e9c511610066578063e985e9c51461022b578063f242432a14610267578063f3f1cdb61461027a578063f5298aca1461028d57600080fd5b80634e1273f4146101ba5780636b20c454146101da5780637165485d146101ed578063a22cb4651461021857600080fd5b806318160ddd116100d357806318160ddd1461017657806327d8eda21461017f5780632eb2c2d61461019257806340c10f19146101a757600080fd5b8062fdd58e1461010457806301ffc9a71461012a5780630e89341c1461014d57806317d70f7c1461016d575b600080fd5b6101176101123660046117ca565b6102a0565b6040519081526020015b60405180910390f35b61013d6101383660046118f8565b61033a565b6040519015158152602001610121565b61016061015b366004611932565b61038a565b6040516101219190611ab7565b61011760055481565b61011760045481565b61011761018d3660046117ca565b61041e565b6101a56101a036600461160b565b610447565b005b6101176101b53660046117ca565b6104de565b6101cd6101c8366004611827565b6105c3565b6040516101219190611a76565b6101a56101e836600461171a565b6106ed565b600354610200906001600160a01b031681565b6040516001600160a01b039091168152602001610121565b6101a561022636600461178e565b61081f565b61013d6102393660046115d8565b6001600160a01b03918216600090815260016020908152604080832093909416825291909152205460ff1690565b6101a56102753660046116b5565b6108f6565b6101176102883660046115bd565b61097d565b6101a561029b3660046117f4565b61099e565b60006001600160a01b0383166103115760405162461bcd60e51b815260206004820152602b60248201527f455243313135353a2062616c616e636520717565727920666f7220746865207a60448201526a65726f206164647265737360a81b60648201526084015b60405180910390fd5b506000818152602081815260408083206001600160a01b03861684529091529020545b92915050565b60006001600160e01b03198216636cdb3d1360e11b148061036b57506001600160e01b031982166303a24d0760e21b145b8061033457506301ffc9a760e01b6001600160e01b0319831614610334565b60606002805461039990611cc3565b80601f01602080910402602001604051908101604052809291908181526020018280546103c590611cc3565b80156104125780601f106103e757610100808354040283529160200191610412565b820191906000526020600020905b8154815290600101906020018083116103f557829003601f168201915b50505050509050919050565b6001600160a01b03821660009081526006602052604081206104409083610a5b565b9392505050565b6001600160a01b03851633148061046357506104638533610239565b6104ca5760405162461bcd60e51b815260206004820152603260248201527f455243313135353a207472616e736665722063616c6c6572206973206e6f74206044820152711bdddb995c881b9bdc88185c1c1c9bdd995960721b6064820152608401610308565b6104d78585858585610a67565b5050505050565b6003546000906001600160a01b031633146105465760405162461bcd60e51b815260206004820152602260248201527f4552433131353545783a204d696e746572206973206e6f742074686520435552604482015261564560f01b6064820152608401610308565b6001600560008282546105599190611c94565b9250508190555061057d836005548460405180602001604052806000815250610c03565b816004600082825461058f9190611c94565b90915550506005546001600160a01b03841660009081526006602052604090206105b891610d0d565b505060055492915050565b606081518351146106285760405162461bcd60e51b815260206004820152602960248201527f455243313135353a206163636f756e747320616e6420696473206c656e677468604482015268040dad2e6dac2e8c6d60bb1b6064820152608401610308565b6000835167ffffffffffffffff81111561064457610644611d88565b60405190808252806020026020018201604052801561066d578160200160208202803683370190505b50905060005b84518110156106e5576106b885828151811061069157610691611d72565b60200260200101518583815181106106ab576106ab611d72565b60200260200101516102a0565b8282815181106106ca576106ca611d72565b60209081029190910101526106de81611d2b565b9050610673565b509392505050565b6003546001600160a01b031633146107525760405162461bcd60e51b815260206004820152602260248201527f4552433131353545783a204d696e746572206973206e6f742074686520637572604482015261766560f01b6064820152608401610308565b61075d838383610d19565b60005b82518110156108195781818151811061077b5761077b611d72565b6020026020010151600460008282546107949190611cac565b925050819055506107b1848483815181106106ab576106ab611d72565b610807576108058382815181106107ca576107ca611d72565b602002602001015160066000876001600160a01b03166001600160a01b03168152602001908152602001600020610e9590919063ffffffff16565b505b8061081181611d2b565b915050610760565b50505050565b336001600160a01b038316141561088a5760405162461bcd60e51b815260206004820152602960248201527f455243313135353a2073657474696e6720617070726f76616c20737461747573604482015268103337b91039b2b63360b91b6064820152608401610308565b3360008181526001602090815260408083206001600160a01b03871680855290835292819020805460ff191686151590811790915590519081529192917f17307eab39ab6107e8899845ad3d59bd9653f200f220920489ca2b5937696c31910160405180910390a35050565b6001600160a01b03851633148061091257506109128533610239565b6109705760405162461bcd60e51b815260206004820152602960248201527f455243313135353a2063616c6c6572206973206e6f74206f776e6572206e6f7260448201526808185c1c1c9bdd995960ba1b6064820152608401610308565b6104d78585858585610ea1565b6001600160a01b038116600090815260066020526040812061033490610fbe565b6003546001600160a01b03163314610a035760405162461bcd60e51b815260206004820152602260248201527f4552433131353545783a206d696e746572206973206e6f742074686520637572604482015261766560f01b6064820152608401610308565b610a0e838383610fc8565b8060046000828254610a209190611cac565b90915550610a30905083836102a0565b610a56576001600160a01b03831660009081526006602052604090206108199083610e95565b505050565b600061044083836110ca565b8151835114610a885760405162461bcd60e51b815260040161030890611c28565b6001600160a01b038416610aae5760405162461bcd60e51b815260040161030890611b56565b3360005b8451811015610b95576000858281518110610acf57610acf611d72565b602002602001015190506000858381518110610aed57610aed611d72565b602090810291909101810151600084815280835260408082206001600160a01b038e168352909352919091205490915081811015610b3d5760405162461bcd60e51b815260040161030890611bde565b6000838152602081815260408083206001600160a01b038e8116855292528083208585039055908b16825281208054849290610b7a908490611c94565b9250508190555050505080610b8e90611d2b565b9050610ab2565b50846001600160a01b0316866001600160a01b0316826001600160a01b03167f4a39dc06d4c0dbc64b70af90fd698a233a518aa5d07e595d983b8c0526c8f7fb8787604051610be5929190611a89565b60405180910390a4610bfb8187878787876110f4565b505050505050565b6001600160a01b038416610c635760405162461bcd60e51b815260206004820152602160248201527f455243313135353a206d696e7420746f20746865207a65726f206164647265736044820152607360f81b6064820152608401610308565b33610c7d81600087610c748861125f565b6104d78861125f565b6000848152602081815260408083206001600160a01b038916845290915281208054859290610cad908490611c94565b909155505060408051858152602081018590526001600160a01b0380881692600092918516917fc3d58168c5ae7397731d063d5bbf3d657854427343f4c083240f7aacaa2d0f62910160405180910390a46104d7816000878787876112aa565b60006104408383611374565b6001600160a01b038316610d3f5760405162461bcd60e51b815260040161030890611b9b565b8051825114610d605760405162461bcd60e51b815260040161030890611c28565b604080516020810190915260009081905233905b8351811015610e36576000848281518110610d9157610d91611d72565b602002602001015190506000848381518110610daf57610daf611d72565b602090810291909101810151600084815280835260408082206001600160a01b038c168352909352919091205490915081811015610dff5760405162461bcd60e51b815260040161030890611b12565b6000928352602083815260408085206001600160a01b038b1686529091529092209103905580610e2e81611d2b565b915050610d74565b5060006001600160a01b0316846001600160a01b0316826001600160a01b03167f4a39dc06d4c0dbc64b70af90fd698a233a518aa5d07e595d983b8c0526c8f7fb8686604051610e87929190611a89565b60405180910390a450505050565b600061044083836113c3565b6001600160a01b038416610ec75760405162461bcd60e51b815260040161030890611b56565b33610ed7818787610c748861125f565b6000848152602081815260408083206001600160a01b038a16845290915290205483811015610f185760405162461bcd60e51b815260040161030890611bde565b6000858152602081815260408083206001600160a01b038b8116855292528083208785039055908816825281208054869290610f55908490611c94565b909155505060408051868152602081018690526001600160a01b03808916928a821692918616917fc3d58168c5ae7397731d063d5bbf3d657854427343f4c083240f7aacaa2d0f62910160405180910390a4610fb58288888888886112aa565b50505050505050565b6000610334825490565b6001600160a01b038316610fee5760405162461bcd60e51b815260040161030890611b9b565b3361101e81856000610fff8761125f565b6110088761125f565b5050604080516020810190915260009052505050565b6000838152602081815260408083206001600160a01b03881684529091529020548281101561105f5760405162461bcd60e51b815260040161030890611b12565b6000848152602081815260408083206001600160a01b03898116808652918452828520888703905582518981529384018890529092908616917fc3d58168c5ae7397731d063d5bbf3d657854427343f4c083240f7aacaa2d0f62910160405180910390a45050505050565b60008260000182815481106110e1576110e1611d72565b9060005260206000200154905092915050565b6001600160a01b0384163b15610bfb5760405163bc197c8160e01b81526001600160a01b0385169063bc197c819061113890899089908890889088906004016119d3565b602060405180830381600087803b15801561115257600080fd5b505af1925050508015611182575060408051601f3d908101601f1916820190925261117f91810190611915565b60015b61122f5761118e611d9e565b806308c379a014156111c857506111a3611dba565b806111ae57506111ca565b8060405162461bcd60e51b81526004016103089190611ab7565b505b60405162461bcd60e51b815260206004820152603460248201527f455243313135353a207472616e7366657220746f206e6f6e20455243313135356044820152732932b1b2b4bb32b91034b6b83632b6b2b73a32b960611b6064820152608401610308565b6001600160e01b0319811663bc197c8160e01b14610fb55760405162461bcd60e51b815260040161030890611aca565b6040805160018082528183019092526060916000919060208083019080368337019050509050828160008151811061129957611299611d72565b602090810291909101015292915050565b6001600160a01b0384163b15610bfb5760405163f23a6e6160e01b81526001600160a01b0385169063f23a6e61906112ee9089908990889088908890600401611a31565b602060405180830381600087803b15801561130857600080fd5b505af1925050508015611338575060408051601f3d908101601f1916820190925261133591810190611915565b60015b6113445761118e611d9e565b6001600160e01b0319811663f23a6e6160e01b14610fb55760405162461bcd60e51b815260040161030890611aca565b60008181526001830160205260408120546113bb57508154600181810184556000848152602080822090930184905584548482528286019093526040902091909155610334565b506000610334565b600081815260018301602052604081205480156114ac5760006113e7600183611cac565b85549091506000906113fb90600190611cac565b905081811461146057600086600001828154811061141b5761141b611d72565b906000526020600020015490508087600001848154811061143e5761143e611d72565b6000918252602080832090910192909255918252600188019052604090208390555b855486908061147157611471611d5c565b600190038181906000526020600020016000905590558560010160008681526020019081526020016000206000905560019350505050610334565b6000915050610334565b80356001600160a01b03811681146114cd57600080fd5b919050565b600082601f8301126114e357600080fd5b813560206114f082611c70565b6040516114fd8282611cfe565b8381528281019150858301600585901b8701840188101561151d57600080fd5b60005b8581101561153c57813584529284019290840190600101611520565b5090979650505050505050565b600082601f83011261155a57600080fd5b813567ffffffffffffffff81111561157457611574611d88565b60405161158b601f8301601f191660200182611cfe565b8181528460208386010111156115a057600080fd5b816020850160208301376000918101602001919091529392505050565b6000602082840312156115cf57600080fd5b610440826114b6565b600080604083850312156115eb57600080fd5b6115f4836114b6565b9150611602602084016114b6565b90509250929050565b600080600080600060a0868803121561162357600080fd5b61162c866114b6565b945061163a602087016114b6565b9350604086013567ffffffffffffffff8082111561165757600080fd5b61166389838a016114d2565b9450606088013591508082111561167957600080fd5b61168589838a016114d2565b9350608088013591508082111561169b57600080fd5b506116a888828901611549565b9150509295509295909350565b600080600080600060a086880312156116cd57600080fd5b6116d6866114b6565b94506116e4602087016114b6565b93506040860135925060608601359150608086013567ffffffffffffffff81111561170e57600080fd5b6116a888828901611549565b60008060006060848603121561172f57600080fd5b611738846114b6565b9250602084013567ffffffffffffffff8082111561175557600080fd5b611761878388016114d2565b9350604086013591508082111561177757600080fd5b50611784868287016114d2565b9150509250925092565b600080604083850312156117a157600080fd5b6117aa836114b6565b9150602083013580151581146117bf57600080fd5b809150509250929050565b600080604083850312156117dd57600080fd5b6117e6836114b6565b946020939093013593505050565b60008060006060848603121561180957600080fd5b611812846114b6565b95602085013595506040909401359392505050565b6000806040838503121561183a57600080fd5b823567ffffffffffffffff8082111561185257600080fd5b818501915085601f83011261186657600080fd5b8135602061187382611c70565b6040516118808282611cfe565b8381528281019150858301600585901b870184018b10156118a057600080fd5b600096505b848710156118ca576118b6816114b6565b8352600196909601959183019183016118a5565b50965050860135925050808211156118e157600080fd5b506118ee858286016114d2565b9150509250929050565b60006020828403121561190a57600080fd5b813561044081611e44565b60006020828403121561192757600080fd5b815161044081611e44565b60006020828403121561194457600080fd5b5035919050565b600081518084526020808501945080840160005b8381101561197b5781518752958201959082019060010161195f565b509495945050505050565b6000815180845260005b818110156119ac57602081850181015186830182015201611990565b818111156119be576000602083870101525b50601f01601f19169290920160200192915050565b6001600160a01b0386811682528516602082015260a0604082018190526000906119ff9083018661194b565b8281036060840152611a11818661194b565b90508281036080840152611a258185611986565b98975050505050505050565b6001600160a01b03868116825285166020820152604081018490526060810183905260a060808201819052600090611a6b90830184611986565b979650505050505050565b602081526000610440602083018461194b565b604081526000611a9c604083018561194b565b8281036020840152611aae818561194b565b95945050505050565b6020815260006104406020830184611986565b60208082526028908201527f455243313135353a204552433131353552656365697665722072656a656374656040820152676420746f6b656e7360c01b606082015260800190565b60208082526024908201527f455243313135353a206275726e20616d6f756e7420657863656564732062616c604082015263616e636560e01b606082015260800190565b60208082526025908201527f455243313135353a207472616e7366657220746f20746865207a65726f206164604082015264647265737360d81b606082015260800190565b60208082526023908201527f455243313135353a206275726e2066726f6d20746865207a65726f206164647260408201526265737360e81b606082015260800190565b6020808252602a908201527f455243313135353a20696e73756666696369656e742062616c616e636520666f60408201526939103a3930b739b332b960b11b606082015260800190565b60208082526028908201527f455243313135353a2069647320616e6420616d6f756e7473206c656e677468206040820152670dad2e6dac2e8c6d60c31b606082015260800190565b600067ffffffffffffffff821115611c8a57611c8a611d88565b5060051b60200190565b60008219821115611ca757611ca7611d46565b500190565b600082821015611cbe57611cbe611d46565b500390565b600181811c90821680611cd757607f821691505b60208210811415611cf857634e487b7160e01b600052602260045260246000fd5b50919050565b601f8201601f1916810167ffffffffffffffff81118282101715611d2457611d24611d88565b6040525050565b6000600019821415611d3f57611d3f611d46565b5060010190565b634e487b7160e01b600052601160045260246000fd5b634e487b7160e01b600052603160045260246000fd5b634e487b7160e01b600052603260045260246000fd5b634e487b7160e01b600052604160045260246000fd5b600060033d1115611db75760046000803e5060005160e01c5b90565b600060443d1015611dc85790565b6040516003193d81016004833e81513d67ffffffffffffffff8160248401118184111715611df857505050505090565b8285019150815181811115611e105750505050505090565b843d8701016020828501011115611e2a5750505050505090565b611e3960208286010187611cfe565b509095945050505050565b6001600160e01b031981168114611e5a57600080fd5b5056fea264697066735822122046ff8c39f5541063c5a1e6d993bd129363440dbf79ac295b2e9a4d678009d3fc64736f6c63430008060033",
			"opcodes": "PUSH1 0x80 PUSH1 0x40 MSTORE PUSH1 0xF DUP1 SLOAD PUSH1 0x1 PUSH1 0x1 PUSH1 0xA0 SHL SUB NOT AND PUSH20 0x498996ABE2CE60FF1070A3652FACD50E0E51C731 OR SWAP1 SSTORE CALLVALUE DUP1 ISZERO PUSH3 0x37 JUMPI PUSH1 0x0 DUP1 REVERT JUMPDEST POP PUSH1 0x40 MLOAD PUSH3 0x43D9 CODESIZE SUB DUP1 PUSH3 0x43D9 DUP4 CODECOPY DUP2 ADD PUSH1 0x40 DUP2 SWAP1 MSTORE PUSH3 0x5A SWAP2 PUSH3 0x18D JUMP JUMPDEST PUSH1 0x0 DUP1 SLOAD PUSH1 0x1 PUSH1 0x1 PUSH1 0xA0 SHL SUB NOT AND PUSH1 0x1 PUSH1 0x1 PUSH1 0xA0 SHL SUB DUP9 AND OR SWAP1 SSTORE PUSH1 0x1 DUP5 SWAP1 SSTORE PUSH1 0x2 DUP4 SWAP1 SSTORE DUP3 PUSH3 0xB1 DUP4 PUSH3 0x9D DUP4 DUP3 PUSH3 0x15C PUSH1 0x20 SWAP1 DUP2 SHL PUSH3 0x12A1 OR SWAP1 SHR JUMP JUMPDEST PUSH3 0x171 PUSH1 0x20 SHL PUSH3 0x12AD OR SWAP1 SWAP2 SWAP1 PUSH1 0x20 SHR JUMP JUMPDEST EQ ISZERO PUSH3 0xDB JUMPI PUSH3 0xD2 DUP3 DUP5 PUSH3 0x15C PUSH1 0x20 SHL PUSH3 0x12A1 OR SWAP1 SWAP2 SWAP1 PUSH1 0x20 SHR JUMP JUMPDEST PUSH1 0x4 SSTORE PUSH3 0xE1 JUMP JUMPDEST PUSH1 0x3 DUP3 SWAP1 SSTORE JUMPDEST PUSH3 0xED DUP5 DUP7 PUSH3 0x309 JUMP JUMPDEST PUSH1 0x5 SSTORE PUSH1 0x0 PUSH1 0x7 SSTORE PUSH1 0x40 MLOAD DUP2 SWAP1 PUSH3 0x105 SWAP1 PUSH3 0x17F JUMP JUMPDEST PUSH3 0x111 SWAP2 SWAP1 PUSH3 0x28F JUMP JUMPDEST PUSH1 0x40 MLOAD DUP1 SWAP2 SUB SWAP1 PUSH1 0x0 CREATE DUP1 ISZERO DUP1 ISZERO PUSH3 0x12E JUMPI RETURNDATASIZE PUSH1 0x0 DUP1 RETURNDATACOPY RETURNDATASIZE PUSH1 0x0 REVERT JUMPDEST POP PUSH1 0xE DUP1 SLOAD PUSH1 0x1 PUSH1 0x1 PUSH1 0xA0 SHL SUB NOT AND PUSH1 0x1 PUSH1 0x1 PUSH1 0xA0 SHL SUB SWAP3 SWAP1 SWAP3 AND SWAP2 SWAP1 SWAP2 OR SWAP1 SSTORE POP PUSH3 0x382 SWAP5 POP POP POP POP POP JUMP JUMPDEST PUSH1 0x0 PUSH3 0x16A DUP3 DUP5 PUSH3 0x2C4 JUMP JUMPDEST SWAP4 SWAP3 POP POP POP JUMP JUMPDEST PUSH1 0x0 PUSH3 0x16A DUP3 DUP5 PUSH3 0x2E7 JUMP JUMPDEST PUSH2 0x20EB DUP1 PUSH3 0x22EE DUP4 CODECOPY ADD SWAP1 JUMP JUMPDEST PUSH1 0x0 DUP1 PUSH1 0x0 DUP1 PUSH1 0x0 DUP1 PUSH1 0xC0 DUP8 DUP10 SUB SLT ISZERO PUSH3 0x1A7 JUMPI PUSH1 0x0 DUP1 REVERT JUMPDEST DUP7 MLOAD PUSH1 0x1 PUSH1 0x1 PUSH1 0xA0 SHL SUB DUP2 AND DUP2 EQ PUSH3 0x1BF JUMPI PUSH1 0x0 DUP1 REVERT JUMPDEST PUSH1 0x20 DUP9 ADD MLOAD PUSH1 0x40 DUP10 ADD MLOAD PUSH1 0x60 DUP11 ADD MLOAD PUSH1 0x80 DUP12 ADD MLOAD PUSH1 0xA0 DUP13 ADD MLOAD SWAP5 SWAP11 POP SWAP3 SWAP9 POP SWAP1 SWAP7 POP SWAP5 POP SWAP3 POP PUSH1 0x1 PUSH1 0x1 PUSH1 0x40 SHL SUB DUP1 DUP3 GT ISZERO PUSH3 0x1FB JUMPI PUSH1 0x0 DUP1 REVERT JUMPDEST DUP2 DUP10 ADD SWAP2 POP DUP10 PUSH1 0x1F DUP4 ADD SLT PUSH3 0x210 JUMPI PUSH1 0x0 DUP1 REVERT JUMPDEST DUP2 MLOAD DUP2 DUP2 GT ISZERO PUSH3 0x225 JUMPI PUSH3 0x225 PUSH3 0x36C JUMP JUMPDEST PUSH1 0x40 MLOAD PUSH1 0x1F DUP3 ADD PUSH1 0x1F NOT SWAP1 DUP2 AND PUSH1 0x3F ADD AND DUP2 ADD SWAP1 DUP4 DUP3 GT DUP2 DUP4 LT OR ISZERO PUSH3 0x250 JUMPI PUSH3 0x250 PUSH3 0x36C JUMP JUMPDEST DUP2 PUSH1 0x40 MSTORE DUP3 DUP2 MSTORE DUP13 PUSH1 0x20 DUP5 DUP8 ADD ADD GT ISZERO PUSH3 0x26A JUMPI PUSH1 0x0 DUP1 REVERT JUMPDEST PUSH3 0x27D DUP4 PUSH1 0x20 DUP4 ADD PUSH1 0x20 DUP9 ADD PUSH3 0x323 JUMP JUMPDEST DUP1 SWAP6 POP POP POP POP POP POP SWAP3 SWAP6 POP SWAP3 SWAP6 POP SWAP3 SWAP6 JUMP JUMPDEST PUSH1 0x20 DUP2 MSTORE PUSH1 0x0 DUP3 MLOAD DUP1 PUSH1 0x20 DUP5 ADD MSTORE PUSH3 0x2B0 DUP2 PUSH1 0x40 DUP6 ADD PUSH1 0x20 DUP8 ADD PUSH3 0x323 JUMP JUMPDEST PUSH1 0x1F ADD PUSH1 0x1F NOT AND SWAP2 SWAP1 SWAP2 ADD PUSH1 0x40 ADD SWAP3 SWAP2 POP POP JUMP JUMPDEST PUSH1 0x0 DUP3 PUSH3 0x2E2 JUMPI PUSH4 0x4E487B71 PUSH1 0xE0 SHL PUSH1 0x0 MSTORE PUSH1 0x12 PUSH1 0x4 MSTORE PUSH1 0x24 PUSH1 0x0 REVERT JUMPDEST POP DIV SWAP1 JUMP JUMPDEST PUSH1 0x0 DUP2 PUSH1 0x0 NOT DIV DUP4 GT DUP3 ISZERO ISZERO AND ISZERO PUSH3 0x304 JUMPI PUSH3 0x304 PUSH3 0x356 JUMP JUMPDEST POP MUL SWAP1 JUMP JUMPDEST PUSH1 0x0 DUP3 DUP3 LT ISZERO PUSH3 0x31E JUMPI PUSH3 0x31E PUSH3 0x356 JUMP JUMPDEST POP SUB SWAP1 JUMP JUMPDEST PUSH1 0x0 JUMPDEST DUP4 DUP2 LT ISZERO PUSH3 0x340 JUMPI DUP2 DUP2 ADD MLOAD DUP4 DUP3 ADD MSTORE PUSH1 0x20 ADD PUSH3 0x326 JUMP JUMPDEST DUP4 DUP2 GT ISZERO PUSH3 0x350 JUMPI PUSH1 0x0 DUP5 DUP5 ADD MSTORE JUMPDEST POP POP POP POP JUMP JUMPDEST PUSH4 0x4E487B71 PUSH1 0xE0 SHL PUSH1 0x0 MSTORE PUSH1 0x11 PUSH1 0x4 MSTORE PUSH1 0x24 PUSH1 0x0 REVERT JUMPDEST PUSH4 0x4E487B71 PUSH1 0xE0 SHL PUSH1 0x0 MSTORE PUSH1 0x41 PUSH1 0x4 MSTORE PUSH1 0x24 PUSH1 0x0 REVERT JUMPDEST PUSH2 0x1F5C DUP1 PUSH3 0x392 PUSH1 0x0 CODECOPY PUSH1 0x0 RETURN INVALID PUSH1 0x80 PUSH1 0x40 MSTORE PUSH1 0x4 CALLDATASIZE LT PUSH2 0x1CD JUMPI PUSH1 0x0 CALLDATALOAD PUSH1 0xE0 SHR DUP1 PUSH4 0x645A106A GT PUSH2 0xF7 JUMPI DUP1 PUSH4 0xAAFE1A22 GT PUSH2 0x95 JUMPI DUP1 PUSH4 0xD0603E5E GT PUSH2 0x64 JUMPI DUP1 PUSH4 0xD0603E5E EQ PUSH2 0x4CD JUMPI DUP1 PUSH4 0xD9AF0609 EQ PUSH2 0x4ED JUMPI DUP1 PUSH4 0xDCD2AF17 EQ PUSH2 0x50D JUMPI DUP1 PUSH4 0xE71DA82F EQ PUSH2 0x523 JUMPI PUSH1 0x0 DUP1 REVERT JUMPDEST DUP1 PUSH4 0xAAFE1A22 EQ PUSH2 0x46E JUMPI DUP1 PUSH4 0xB390C0AB EQ PUSH2 0x481 JUMPI DUP1 PUSH4 0xB9D3C3A6 EQ PUSH2 0x4A1 JUMPI DUP1 PUSH4 0xCD3293DE EQ PUSH2 0x4B7 JUMPI PUSH1 0x0 DUP1 REVERT JUMPDEST DUP1 PUSH4 0x785E9E86 GT PUSH2 0xD1 JUMPI DUP1 PUSH4 0x785E9E86 EQ PUSH2 0x3F8 JUMPI DUP1 PUSH4 0x8256DF8F EQ PUSH2 0x418 JUMPI DUP1 PUSH4 0x83CA4B6F EQ PUSH2 0x438 JUMPI DUP1 PUSH4 0x8A054AC2 EQ PUSH2 0x458 JUMPI PUSH1 0x0 DUP1 REVERT JUMPDEST DUP1 PUSH4 0x645A106A EQ PUSH2 0x3AF JUMPI DUP1 PUSH4 0x6A58B216 EQ PUSH2 0x3CF JUMPI DUP1 PUSH4 0x72520137 EQ PUSH2 0x3E2 JUMPI PUSH1 0x0 DUP1 REVERT JUMPDEST DUP1 PUSH4 0x2E52D606 GT PUSH2 0x16F JUMPI DUP1 PUSH4 0x4BDE38C8 GT PUSH2 0x13E JUMPI DUP1 PUSH4 0x4BDE38C8 EQ PUSH2 0x344 JUMPI DUP1 PUSH4 0x4F3E1EFC EQ PUSH2 0x364 JUMPI DUP1 PUSH4 0x5A2EE019 EQ PUSH2 0x379 JUMPI DUP1 PUSH4 0x613A9FD5 EQ PUSH2 0x38F JUMPI PUSH1 0x0 DUP1 REVERT JUMPDEST DUP1 PUSH4 0x2E52D606 EQ PUSH2 0x2E2 JUMPI DUP1 PUSH4 0x36E0CAC6 EQ PUSH2 0x2F8 JUMPI DUP1 PUSH4 0x3EF7A36E EQ PUSH2 0x30E JUMPI DUP1 PUSH4 0x4BAA3FAA EQ PUSH2 0x32E JUMPI PUSH1 0x0 DUP1 REVERT JUMPDEST DUP1 PUSH4 0xAD3B196 GT PUSH2 0x1AB JUMPI DUP1 PUSH4 0xAD3B196 EQ PUSH2 0x25D JUMPI DUP1 PUSH4 0x1B2EF1CA EQ PUSH2 0x28A JUMPI DUP1 PUSH4 0x29D15248 EQ PUSH2 0x2AA JUMPI DUP1 PUSH4 0x2AE02E3A EQ PUSH2 0x2CC JUMPI PUSH1 0x0 DUP1 REVERT JUMPDEST DUP1 PUSH4 0x2ACC94B EQ PUSH2 0x1D2 JUMPI DUP1 PUSH4 0x2D05D3F EQ PUSH2 0x205 JUMPI DUP1 PUSH4 0x490A780 EQ PUSH2 0x23D JUMPI JUMPDEST PUSH1 0x0 DUP1 REVERT JUMPDEST CALLVALUE DUP1 ISZERO PUSH2 0x1DE JUMPI PUSH1 0x0 DUP1 REVERT JUMPDEST POP PUSH2 0x1F2 PUSH2 0x1ED CALLDATASIZE PUSH1 0x4 PUSH2 0x1B42 JUMP JUMPDEST PUSH2 0x543 JUMP JUMPDEST PUSH1 0x40 MLOAD SWAP1 DUP2 MSTORE PUSH1 0x20 ADD JUMPDEST PUSH1 0x40 MLOAD DUP1 SWAP2 SUB SWAP1 RETURN JUMPDEST CALLVALUE DUP1 ISZERO PUSH2 0x211 JUMPI PUSH1 0x0 DUP1 REVERT JUMPDEST POP PUSH1 0xB SLOAD PUSH2 0x225 SWAP1 PUSH1 0x1 PUSH1 0x1 PUSH1 0xA0 SHL SUB AND DUP2 JUMP JUMPDEST PUSH1 0x40 MLOAD PUSH1 0x1 PUSH1 0x1 PUSH1 0xA0 SHL SUB SWAP1 SWAP2 AND DUP2 MSTORE PUSH1 0x20 ADD PUSH2 0x1FC JUMP JUMPDEST CALLVALUE DUP1 ISZERO PUSH2 0x249 JUMPI PUSH1 0x0 DUP1 REVERT JUMPDEST POP PUSH2 0x1F2 PUSH2 0x258 CALLDATASIZE PUSH1 0x4 PUSH2 0x1ACA JUMP JUMPDEST PUSH2 0x5BA JUMP JUMPDEST CALLVALUE DUP1 ISZERO PUSH2 0x269 JUMPI PUSH1 0x0 DUP1 REVERT JUMPDEST POP PUSH2 0x1F2 PUSH2 0x278 CALLDATASIZE PUSH1 0x4 PUSH2 0x1ACA JUMP JUMPDEST PUSH1 0x6 PUSH1 0x20 MSTORE PUSH1 0x0 SWAP1 DUP2 MSTORE PUSH1 0x40 SWAP1 KECCAK256 SLOAD DUP2 JUMP JUMPDEST CALLVALUE DUP1 ISZERO PUSH2 0x296 JUMPI PUSH1 0x0 DUP1 REVERT JUMPDEST POP PUSH2 0x1F2 PUSH2 0x2A5 CALLDATASIZE PUSH1 0x4 PUSH2 0x1AFC JUMP JUMPDEST PUSH2 0x79F JUMP JUMPDEST CALLVALUE DUP1 ISZERO PUSH2 0x2B6 JUMPI PUSH1 0x0 DUP1 REVERT JUMPDEST POP PUSH2 0x2CA PUSH2 0x2C5 CALLDATASIZE PUSH1 0x4 PUSH2 0x1A90 JUMP JUMPDEST PUSH2 0x7DD JUMP JUMPDEST STOP JUMPDEST CALLVALUE DUP1 ISZERO PUSH2 0x2D8 JUMPI PUSH1 0x0 DUP1 REVERT JUMPDEST POP PUSH2 0x1F2 PUSH1 0xD SLOAD DUP2 JUMP JUMPDEST CALLVALUE DUP1 ISZERO PUSH2 0x2EE JUMPI PUSH1 0x0 DUP1 REVERT JUMPDEST POP PUSH2 0x1F2 PUSH1 0x2 SLOAD DUP2 JUMP JUMPDEST CALLVALUE DUP1 ISZERO PUSH2 0x304 JUMPI PUSH1 0x0 DUP1 REVERT JUMPDEST POP PUSH2 0x1F2 PUSH1 0x9 SLOAD DUP2 JUMP JUMPDEST CALLVALUE DUP1 ISZERO PUSH2 0x31A JUMPI PUSH1 0x0 DUP1 REVERT JUMPDEST POP PUSH1 0xF SLOAD PUSH2 0x225 SWAP1 PUSH1 0x1 PUSH1 0x1 PUSH1 0xA0 SHL SUB AND DUP2 JUMP JUMPDEST CALLVALUE DUP1 ISZERO PUSH2 0x33A JUMPI PUSH1 0x0 DUP1 REVERT JUMPDEST POP PUSH2 0x1F2 PUSH1 0xC SLOAD DUP2 JUMP JUMPDEST CALLVALUE DUP1 ISZERO PUSH2 0x350 JUMPI PUSH1 0x0 DUP1 REVERT JUMPDEST POP PUSH1 0x8 SLOAD PUSH2 0x225 SWAP1 PUSH1 0x1 PUSH1 0x1 PUSH1 0xA0 SHL SUB AND DUP2 JUMP JUMPDEST CALLVALUE DUP1 ISZERO PUSH2 0x370 JUMPI PUSH1 0x0 DUP1 REVERT JUMPDEST POP PUSH2 0x1F2 PUSH2 0x8D5 JUMP JUMPDEST CALLVALUE DUP1 ISZERO PUSH2 0x385 JUMPI PUSH1 0x0 DUP1 REVERT JUMPDEST POP PUSH2 0x1F2 PUSH1 0x1 SLOAD DUP2 JUMP JUMPDEST CALLVALUE DUP1 ISZERO PUSH2 0x39B JUMPI PUSH1 0x0 DUP1 REVERT JUMPDEST POP PUSH2 0x1F2 PUSH2 0x3AA CALLDATASIZE PUSH1 0x4 PUSH2 0x1ACA JUMP JUMPDEST PUSH2 0x957 JUMP JUMPDEST CALLVALUE DUP1 ISZERO PUSH2 0x3BB JUMPI PUSH1 0x0 DUP1 REVERT JUMPDEST POP PUSH2 0x2CA PUSH2 0x3CA CALLDATASIZE PUSH1 0x4 PUSH2 0x19E8 JUMP JUMPDEST PUSH2 0xA8F JUMP JUMPDEST PUSH2 0x1F2 PUSH2 0x3DD CALLDATASIZE PUSH1 0x4 PUSH2 0x1ACA JUMP JUMPDEST PUSH2 0xB54 JUMP JUMPDEST CALLVALUE DUP1 ISZERO PUSH2 0x3EE JUMPI PUSH1 0x0 DUP1 REVERT JUMPDEST POP PUSH2 0x1F2 PUSH1 0x4 SLOAD DUP2 JUMP JUMPDEST CALLVALUE DUP1 ISZERO PUSH2 0x404 JUMPI PUSH1 0x0 DUP1 REVERT JUMPDEST POP PUSH1 0x0 SLOAD PUSH2 0x225 SWAP1 PUSH1 0x1 PUSH1 0x1 PUSH1 0xA0 SHL SUB AND DUP2 JUMP JUMPDEST CALLVALUE DUP1 ISZERO PUSH2 0x424 JUMPI PUSH1 0x0 DUP1 REVERT JUMPDEST POP PUSH2 0x1F2 PUSH2 0x433 CALLDATASIZE PUSH1 0x4 PUSH2 0x1B42 JUMP JUMPDEST PUSH2 0xB8A JUMP JUMPDEST CALLVALUE DUP1 ISZERO PUSH2 0x444 JUMPI PUSH1 0x0 DUP1 REVERT JUMPDEST POP PUSH2 0x2CA PUSH2 0x453 CALLDATASIZE PUSH1 0x4 PUSH2 0x1A2C JUMP JUMPDEST PUSH2 0xCAB JUMP JUMPDEST CALLVALUE DUP1 ISZERO PUSH2 0x464 JUMPI PUSH1 0x0 DUP1 REVERT JUMPDEST POP PUSH2 0x1F2 PUSH1 0x3 SLOAD DUP2 JUMP JUMPDEST PUSH2 0x1F2 PUSH2 0x47C CALLDATASIZE PUSH1 0x4 PUSH2 0x1AFC JUMP JUMPDEST PUSH2 0xE60 JUMP JUMPDEST CALLVALUE DUP1 ISZERO PUSH2 0x48D JUMPI PUSH1 0x0 DUP1 REVERT JUMPDEST POP PUSH2 0x2CA PUSH2 0x49C CALLDATASIZE PUSH1 0x4 PUSH2 0x1AFC JUMP JUMPDEST PUSH2 0xEC4 JUMP JUMPDEST CALLVALUE DUP1 ISZERO PUSH2 0x4AD JUMPI PUSH1 0x0 DUP1 REVERT JUMPDEST POP PUSH2 0x1F2 PUSH1 0xA SLOAD DUP2 JUMP JUMPDEST CALLVALUE DUP1 ISZERO PUSH2 0x4C3 JUMPI PUSH1 0x0 DUP1 REVERT JUMPDEST POP PUSH2 0x1F2 PUSH1 0x7 SLOAD DUP2 JUMP JUMPDEST CALLVALUE DUP1 ISZERO PUSH2 0x4D9 JUMPI PUSH1 0x0 DUP1 REVERT JUMPDEST POP PUSH2 0x2CA PUSH2 0x4E8 CALLDATASIZE PUSH1 0x4 PUSH2 0x1AFC JUMP JUMPDEST PUSH2 0xFCE JUMP JUMPDEST CALLVALUE DUP1 ISZERO PUSH2 0x4F9 JUMPI PUSH1 0x0 DUP1 REVERT JUMPDEST POP PUSH2 0x2CA PUSH2 0x508 CALLDATASIZE PUSH1 0x4 PUSH2 0x1A2C JUMP JUMPDEST PUSH2 0x10E3 JUMP JUMPDEST CALLVALUE DUP1 ISZERO PUSH2 0x519 JUMPI PUSH1 0x0 DUP1 REVERT JUMPDEST POP PUSH2 0x1F2 PUSH1 0x5 SLOAD DUP2 JUMP JUMPDEST CALLVALUE DUP1 ISZERO PUSH2 0x52F JUMPI PUSH1 0x0 DUP1 REVERT JUMPDEST POP PUSH1 0xE SLOAD PUSH2 0x225 SWAP1 PUSH1 0x1 PUSH1 0x1 PUSH1 0xA0 SHL SUB AND DUP2 JUMP JUMPDEST PUSH1 0x0 DUP1 SLOAD PUSH1 0x1 PUSH1 0x1 PUSH1 0xA0 SHL SUB AND PUSH2 0x575 JUMPI PUSH1 0x40 MLOAD PUSH3 0x461BCD PUSH1 0xE5 SHL DUP2 MSTORE PUSH1 0x4 ADD PUSH2 0x56C SWAP1 PUSH2 0x1CE6 JUMP JUMPDEST PUSH1 0x40 MLOAD DUP1 SWAP2 SUB SWAP1 REVERT JUMPDEST PUSH1 0x0 PUSH2 0x581 PUSH1 0x1 PUSH2 0x12B9 JUMP JUMPDEST SWAP1 POP DUP1 DUP4 LT ISZERO PUSH2 0x5A3 JUMPI PUSH1 0x40 MLOAD PUSH3 0x461BCD PUSH1 0xE5 SHL DUP2 MSTORE PUSH1 0x4 ADD PUSH2 0x56C SWAP1 PUSH2 0x1C5D JUMP JUMPDEST PUSH2 0x5AF DUP6 DUP6 PUSH1 0x0 PUSH2 0x1478 JUMP JUMPDEST SWAP2 POP POP JUMPDEST SWAP4 SWAP3 POP POP POP JUMP JUMPDEST PUSH1 0x0 DUP1 PUSH2 0x5C5 PUSH2 0x8D5 JUMP JUMPDEST PUSH2 0x5D0 SWAP1 PUSH1 0x1 PUSH2 0x1D1D JUMP JUMPDEST SWAP1 POP PUSH1 0x0 DUP1 PUSH1 0x4 SLOAD GT ISZERO PUSH2 0x695 JUMPI PUSH1 0xA PUSH1 0x4 SLOAD GT PUSH2 0x63E JUMPI PUSH1 0x0 PUSH2 0x609 PUSH1 0x4 SLOAD DUP5 PUSH1 0x1 DUP9 DUP8 PUSH2 0x5FF SWAP2 SWAP1 PUSH2 0x1D1D JUMP JUMPDEST PUSH2 0x433 SWAP2 SWAP1 PUSH2 0x1E61 JUMP JUMPDEST SWAP1 POP PUSH2 0x636 PUSH2 0x623 DUP7 PUSH1 0x5 SLOAD PUSH2 0x12AD SWAP1 SWAP2 SWAP1 PUSH4 0xFFFFFFFF AND JUMP JUMPDEST PUSH1 0x1 SLOAD PUSH2 0x630 SWAP1 DUP5 PUSH2 0x12AD JUMP JUMPDEST SWAP1 PUSH2 0x1690 JUMP JUMPDEST SWAP2 POP POP PUSH2 0x5B3 JUMP JUMPDEST DUP2 JUMPDEST PUSH2 0x64A DUP6 DUP5 PUSH2 0x1D1D JUMP JUMPDEST DUP2 LT ISZERO PUSH2 0x68F JUMPI PUSH2 0x67B PUSH2 0x674 PUSH1 0x5 SLOAD PUSH2 0x630 PUSH1 0x4 SLOAD DUP6 PUSH2 0x66B SWAP2 SWAP1 PUSH2 0x1D9A JUMP JUMPDEST PUSH1 0x1 SLOAD SWAP1 PUSH2 0x12AD JUMP JUMPDEST DUP4 SWAP1 PUSH2 0x1690 JUMP JUMPDEST SWAP2 POP DUP1 PUSH2 0x687 DUP2 PUSH2 0x1EBB JUMP JUMPDEST SWAP2 POP POP PUSH2 0x640 JUMP JUMPDEST POP PUSH2 0x5B3 JUMP JUMPDEST DUP2 JUMPDEST PUSH2 0x6A1 DUP6 DUP5 PUSH2 0x1D1D JUMP JUMPDEST DUP2 LT ISZERO PUSH2 0x797 JUMPI PUSH1 0xF SLOAD PUSH1 0x2 SLOAD PUSH1 0x3 SLOAD PUSH1 0x40 MLOAD PUSH4 0x16BFCD37 PUSH1 0xE2 SHL DUP2 MSTORE PUSH1 0x4 DUP2 ADD DUP6 SWAP1 MSTORE PUSH1 0x1 PUSH1 0x24 DUP3 ADD MSTORE PUSH1 0x44 DUP2 ADD SWAP3 SWAP1 SWAP3 MSTORE PUSH1 0x64 DUP3 ADD MSTORE PUSH1 0x0 SWAP2 DUP3 SWAP2 PUSH1 0x1 PUSH1 0x1 PUSH1 0xA0 SHL SUB SWAP1 SWAP2 AND SWAP1 PUSH4 0x5AFF34DC SWAP1 PUSH1 0x84 ADD PUSH1 0x40 DUP1 MLOAD DUP1 DUP4 SUB DUP2 DUP7 DUP1 EXTCODESIZE ISZERO DUP1 ISZERO PUSH2 0x70A JUMPI PUSH1 0x0 DUP1 REVERT JUMPDEST POP GAS STATICCALL ISZERO DUP1 ISZERO PUSH2 0x71E JUMPI RETURNDATASIZE PUSH1 0x0 DUP1 RETURNDATACOPY RETURNDATASIZE PUSH1 0x0 REVERT JUMPDEST POP POP POP POP PUSH1 0x40 MLOAD RETURNDATASIZE PUSH1 0x1F NOT PUSH1 0x1F DUP3 ADD AND DUP3 ADD DUP1 PUSH1 0x40 MSTORE POP DUP2 ADD SWAP1 PUSH2 0x742 SWAP2 SWAP1 PUSH2 0x1B1E JUMP JUMPDEST SWAP2 POP SWAP2 POP PUSH1 0x0 PUSH2 0x773 PUSH2 0x76A DUP4 PUSH2 0x764 DUP7 PUSH1 0x1 SLOAD PUSH2 0x12AD SWAP1 SWAP2 SWAP1 PUSH4 0xFFFFFFFF AND JUMP JUMPDEST SWAP1 PUSH2 0x12A1 JUMP JUMPDEST PUSH1 0x5 SLOAD SWAP1 PUSH2 0x1690 JUMP JUMPDEST SWAP1 POP PUSH2 0x77F DUP6 DUP3 PUSH2 0x1690 JUMP JUMPDEST SWAP5 POP POP POP POP DUP1 DUP1 PUSH2 0x78F SWAP1 PUSH2 0x1EBB JUMP JUMPDEST SWAP2 POP POP PUSH2 0x697 JUMP JUMPDEST POP SWAP4 SWAP3 POP POP POP JUMP JUMPDEST PUSH1 0x0 DUP1 SLOAD PUSH1 0x1 PUSH1 0x1 PUSH1 0xA0 SHL SUB AND PUSH2 0x7C8 JUMPI PUSH1 0x40 MLOAD PUSH3 0x461BCD PUSH1 0xE5 SHL DUP2 MSTORE PUSH1 0x4 ADD PUSH2 0x56C SWAP1 PUSH2 0x1CE6 JUMP JUMPDEST PUSH2 0x7D4 DUP4 DUP4 PUSH1 0x0 PUSH2 0x1478 JUMP JUMPDEST SWAP1 POP JUMPDEST SWAP3 SWAP2 POP POP JUMP JUMPDEST PUSH1 0x0 SLOAD PUSH1 0x1 PUSH1 0x1 PUSH1 0xA0 SHL SUB AND PUSH2 0x871 JUMPI DUP1 ISZERO PUSH2 0x835 JUMPI PUSH1 0x8 SLOAD PUSH1 0xA SLOAD PUSH1 0x40 MLOAD PUSH1 0x1 PUSH1 0x1 PUSH1 0xA0 SHL SUB SWAP1 SWAP3 AND SWAP2 DUP2 ISZERO PUSH2 0x8FC MUL SWAP2 SWAP1 PUSH1 0x0 DUP2 DUP2 DUP2 DUP6 DUP9 DUP9 CALL SWAP4 POP POP POP POP ISZERO DUP1 ISZERO PUSH2 0x82F JUMPI RETURNDATASIZE PUSH1 0x0 DUP1 RETURNDATACOPY RETURNDATASIZE PUSH1 0x0 REVERT JUMPDEST POP PUSH2 0x8BE JUMP JUMPDEST PUSH1 0xB SLOAD PUSH1 0xD SLOAD PUSH1 0x40 MLOAD PUSH1 0x1 PUSH1 0x1 PUSH1 0xA0 SHL SUB SWAP1 SWAP3 AND SWAP2 DUP2 ISZERO PUSH2 0x8FC MUL SWAP2 SWAP1 PUSH1 0x0 DUP2 DUP2 DUP2 DUP6 DUP9 DUP9 CALL SWAP4 POP POP POP POP ISZERO DUP1 ISZERO PUSH2 0x82F JUMPI RETURNDATASIZE PUSH1 0x0 DUP1 RETURNDATACOPY RETURNDATASIZE PUSH1 0x0 REVERT JUMPDEST DUP1 ISZERO PUSH2 0x89D JUMPI PUSH1 0x8 SLOAD PUSH1 0xA SLOAD PUSH1 0x0 SLOAD PUSH2 0x898 SWAP3 PUSH1 0x1 PUSH1 0x1 PUSH1 0xA0 SHL SUB SWAP2 DUP3 AND SWAP3 SWAP2 AND SWAP1 PUSH2 0x169C JUMP JUMPDEST PUSH2 0x8BE JUMP JUMPDEST PUSH1 0xB SLOAD PUSH1 0xD SLOAD PUSH1 0x0 SLOAD PUSH2 0x8BE SWAP3 PUSH1 0x1 PUSH1 0x1 PUSH1 0xA0 SHL SUB SWAP2 DUP3 AND SWAP3 SWAP2 AND SWAP1 PUSH2 0x169C JUMP JUMPDEST DUP1 ISZERO PUSH2 0x8CC JUMPI PUSH1 0x0 PUSH1 0xA SSTORE POP JUMP JUMPDEST PUSH1 0x0 PUSH1 0xD SSTORE JUMPDEST POP JUMP JUMPDEST PUSH1 0xE SLOAD PUSH1 0x40 DUP1 MLOAD PUSH4 0x18160DDD PUSH1 0xE0 SHL DUP2 MSTORE SWAP1 MLOAD PUSH1 0x0 SWAP3 PUSH1 0x1 PUSH1 0x1 PUSH1 0xA0 SHL SUB AND SWAP2 PUSH4 0x18160DDD SWAP2 PUSH1 0x4 DUP1 DUP4 ADD SWAP3 PUSH1 0x20 SWAP3 SWAP2 SWAP1 DUP3 SWAP1 SUB ADD DUP2 DUP7 DUP1 EXTCODESIZE ISZERO DUP1 ISZERO PUSH2 0x91A JUMPI PUSH1 0x0 DUP1 REVERT JUMPDEST POP GAS STATICCALL ISZERO DUP1 ISZERO PUSH2 0x92E JUMPI RETURNDATASIZE PUSH1 0x0 DUP1 RETURNDATACOPY RETURNDATASIZE PUSH1 0x0 REVERT JUMPDEST POP POP POP POP PUSH1 0x40 MLOAD RETURNDATASIZE PUSH1 0x1F NOT PUSH1 0x1F DUP3 ADD AND DUP3 ADD DUP1 PUSH1 0x40 MSTORE POP DUP2 ADD SWAP1 PUSH2 0x952 SWAP2 SWAP1 PUSH2 0x1AE3 JUMP JUMPDEST SWAP1 POP SWAP1 JUMP JUMPDEST PUSH1 0x0 DUP1 PUSH2 0x962 PUSH2 0x8D5 JUMP JUMPDEST SWAP1 POP DUP1 DUP4 GT PUSH2 0x971 JUMPI DUP3 PUSH2 0x973 JUMP JUMPDEST DUP1 JUMPDEST SWAP3 POP PUSH1 0x0 DUP1 PUSH1 0x4 SLOAD GT ISZERO PUSH2 0xA19 JUMPI PUSH1 0xA PUSH1 0x4 SLOAD GT PUSH2 0x9D2 JUMPI PUSH1 0x0 PUSH2 0x9B0 PUSH1 0x4 SLOAD DUP7 DUP6 PUSH2 0x99F SWAP2 SWAP1 PUSH2 0x1E61 JUMP JUMPDEST PUSH2 0x9AA SWAP1 PUSH1 0x1 PUSH2 0x1D1D JUMP JUMPDEST DUP6 PUSH2 0xB8A JUMP JUMPDEST SWAP1 POP PUSH2 0x9CA PUSH2 0x623 DUP7 PUSH1 0x5 SLOAD PUSH2 0x12AD SWAP1 SWAP2 SWAP1 PUSH4 0xFFFFFFFF AND JUMP JUMPDEST SWAP2 POP POP PUSH2 0xA5C JUMP JUMPDEST DUP2 JUMPDEST PUSH2 0x9DE DUP6 DUP5 PUSH2 0x1E61 JUMP JUMPDEST DUP2 GT ISZERO PUSH2 0xA13 JUMPI PUSH2 0x9FF PUSH2 0x674 PUSH1 0x5 SLOAD PUSH2 0x630 PUSH1 0x4 SLOAD DUP6 PUSH2 0x66B SWAP2 SWAP1 PUSH2 0x1D9A JUMP JUMPDEST SWAP2 POP DUP1 PUSH2 0xA0B DUP2 PUSH2 0x1EA4 JUMP JUMPDEST SWAP2 POP POP PUSH2 0x9D4 JUMP JUMPDEST POP PUSH2 0xA5C JUMP JUMPDEST DUP2 JUMPDEST PUSH2 0xA25 DUP6 DUP5 PUSH2 0x1E61 JUMP JUMPDEST DUP2 GT ISZERO PUSH2 0xA5A JUMPI PUSH1 0x0 DUP2 DUP2 MSTORE PUSH1 0x6 PUSH1 0x20 MSTORE PUSH1 0x40 SWAP1 KECCAK256 SLOAD PUSH2 0xA46 SWAP1 DUP4 SWAP1 PUSH2 0x1690 JUMP JUMPDEST SWAP2 POP DUP1 PUSH2 0xA52 DUP2 PUSH2 0x1EA4 JUMP JUMPDEST SWAP2 POP POP PUSH2 0xA1B JUMP JUMPDEST POP JUMPDEST PUSH2 0xA87 PUSH1 0x64 PUSH2 0x764 PUSH1 0xC SLOAD PUSH1 0x9 SLOAD PUSH1 0x64 PUSH2 0xA76 SWAP2 SWAP1 PUSH2 0x1E61 JUMP JUMPDEST PUSH2 0xA80 SWAP2 SWAP1 PUSH2 0x1E61 JUMP JUMPDEST DUP5 SWAP1 PUSH2 0x12AD JUMP JUMPDEST SWAP5 SWAP4 POP POP POP POP JUMP JUMPDEST PUSH1 0x8 SLOAD PUSH1 0x1 PUSH1 0x1 PUSH1 0xA0 SHL SUB AND ISZERO DUP1 ISZERO PUSH2 0xAB1 JUMPI POP PUSH1 0xB SLOAD PUSH1 0x1 PUSH1 0x1 PUSH1 0xA0 SHL SUB AND ISZERO JUMPDEST PUSH2 0xB1C JUMPI PUSH1 0x40 MLOAD PUSH3 0x461BCD PUSH1 0xE5 SHL DUP2 MSTORE PUSH1 0x20 PUSH1 0x4 DUP3 ADD MSTORE PUSH1 0x36 PUSH1 0x24 DUP3 ADD MSTORE PUSH32 0x43757276653A20636F6D6D697373696F6E206163636F756E7420616E64207261 PUSH1 0x44 DUP3 ADD MSTORE PUSH22 0x3A329031B0B73737BA1031329036B7B234B334B2B217 PUSH1 0x51 SHL PUSH1 0x64 DUP3 ADD MSTORE PUSH1 0x84 ADD PUSH2 0x56C JUMP JUMPDEST PUSH1 0x8 DUP1 SLOAD PUSH1 0x1 PUSH1 0x1 PUSH1 0xA0 SHL SUB NOT SWAP1 DUP2 AND PUSH1 0x1 PUSH1 0x1 PUSH1 0xA0 SHL SUB SWAP7 DUP8 AND OR SWAP1 SWAP2 SSTORE PUSH1 0x9 SWAP4 SWAP1 SWAP4 SSTORE PUSH1 0xB DUP1 SLOAD SWAP1 SWAP4 AND SWAP2 SWAP1 SWAP4 AND OR SWAP1 SSTORE PUSH1 0xC SSTORE JUMP JUMPDEST PUSH1 0x0 DUP1 SLOAD PUSH1 0x1 PUSH1 0x1 PUSH1 0xA0 SHL SUB AND ISZERO PUSH2 0xB7E JUMPI PUSH1 0x40 MLOAD PUSH3 0x461BCD PUSH1 0xE5 SHL DUP2 MSTORE PUSH1 0x4 ADD PUSH2 0x56C SWAP1 PUSH2 0x1CA5 JUMP JUMPDEST PUSH2 0x7D7 DUP3 CALLVALUE PUSH1 0x1 PUSH2 0x1478 JUMP JUMPDEST PUSH1 0xF SLOAD PUSH1 0x0 SWAP1 PUSH2 0xA87 SWAP1 PUSH1 0x1 PUSH1 0x1 PUSH1 0xA0 SHL SUB AND PUSH4 0x70ADC75E DUP7 PUSH2 0xBAE PUSH1 0x1 DUP9 PUSH2 0x1E61 JUMP JUMPDEST PUSH1 0x40 MLOAD PUSH1 0x1 PUSH1 0x1 PUSH1 0xE0 SHL SUB NOT PUSH1 0xE0 DUP6 SWAP1 SHL AND DUP2 MSTORE PUSH1 0x4 DUP2 ADD SWAP3 SWAP1 SWAP3 MSTORE PUSH1 0x24 DUP3 ADD MSTORE PUSH1 0x44 ADD PUSH1 0x20 PUSH1 0x40 MLOAD DUP1 DUP4 SUB DUP2 DUP7 DUP1 EXTCODESIZE ISZERO DUP1 ISZERO PUSH2 0xBEA JUMPI PUSH1 0x0 DUP1 REVERT JUMPDEST POP GAS STATICCALL ISZERO DUP1 ISZERO PUSH2 0xBFE JUMPI RETURNDATASIZE PUSH1 0x0 DUP1 RETURNDATACOPY RETURNDATASIZE PUSH1 0x0 REVERT JUMPDEST POP POP POP POP PUSH1 0x40 MLOAD RETURNDATASIZE PUSH1 0x1F NOT PUSH1 0x1F DUP3 ADD AND DUP3 ADD DUP1 PUSH1 0x40 MSTORE POP DUP2 ADD SWAP1 PUSH2 0xC22 SWAP2 SWAP1 PUSH2 0x1AE3 JUMP JUMPDEST PUSH1 0xF SLOAD PUSH1 0x40 MLOAD PUSH4 0x3856E3AF PUSH1 0xE1 SHL DUP2 MSTORE PUSH1 0x4 DUP2 ADD DUP9 SWAP1 MSTORE PUSH1 0x24 DUP2 ADD DUP7 SWAP1 MSTORE PUSH1 0x1 PUSH1 0x1 PUSH1 0xA0 SHL SUB SWAP1 SWAP2 AND SWAP1 PUSH4 0x70ADC75E SWAP1 PUSH1 0x44 ADD PUSH1 0x20 PUSH1 0x40 MLOAD DUP1 DUP4 SUB DUP2 DUP7 DUP1 EXTCODESIZE ISZERO DUP1 ISZERO PUSH2 0xC6D JUMPI PUSH1 0x0 DUP1 REVERT JUMPDEST POP GAS STATICCALL ISZERO DUP1 ISZERO PUSH2 0xC81 JUMPI RETURNDATASIZE PUSH1 0x0 DUP1 RETURNDATACOPY RETURNDATASIZE PUSH1 0x0 REVERT JUMPDEST POP POP POP POP PUSH1 0x40 MLOAD RETURNDATASIZE PUSH1 0x1F NOT PUSH1 0x1F DUP3 ADD AND DUP3 ADD DUP1 PUSH1 0x40 MSTORE POP DUP2 ADD SWAP1 PUSH2 0xCA5 SWAP2 SWAP1 PUSH2 0x1AE3 JUMP JUMPDEST SWAP1 PUSH2 0x1704 JUMP JUMPDEST PUSH1 0x0 SLOAD PUSH1 0x1 PUSH1 0x1 PUSH1 0xA0 SHL SUB AND PUSH2 0xCD3 JUMPI PUSH1 0x40 MLOAD PUSH3 0x461BCD PUSH1 0xE5 SHL DUP2 MSTORE PUSH1 0x4 ADD PUSH2 0x56C SWAP1 PUSH2 0x1CE6 JUMP JUMPDEST DUP1 MLOAD DUP3 MLOAD EQ PUSH2 0xD3C JUMPI PUSH1 0x40 MLOAD PUSH3 0x461BCD PUSH1 0xE5 SHL DUP2 MSTORE PUSH1 0x20 PUSH1 0x4 DUP3 ADD MSTORE PUSH1 0x2F PUSH1 0x24 DUP3 ADD MSTORE PUSH32 0x43757276653A205F746F6B656E49647320616E64205F62616C616E636573206C PUSH1 0x44 DUP3 ADD MSTORE PUSH15 0x32B733BA341036B4B9B6B0BA31B417 PUSH1 0x89 SHL PUSH1 0x64 DUP3 ADD MSTORE PUSH1 0x84 ADD PUSH2 0x56C JUMP JUMPDEST PUSH1 0x0 DUP1 JUMPDEST DUP3 MLOAD DUP2 LT ISZERO PUSH2 0xD82 JUMPI DUP3 DUP2 DUP2 MLOAD DUP2 LT PUSH2 0xD5B JUMPI PUSH2 0xD5B PUSH2 0x1EEC JUMP JUMPDEST PUSH1 0x20 MUL PUSH1 0x20 ADD ADD MLOAD DUP3 PUSH2 0xD6E SWAP2 SWAP1 PUSH2 0x1D1D JUMP JUMPDEST SWAP2 POP DUP1 PUSH2 0xD7A DUP2 PUSH2 0x1EBB JUMP JUMPDEST SWAP2 POP POP PUSH2 0xD40 JUMP JUMPDEST POP PUSH1 0x0 PUSH2 0xD8E DUP3 PUSH2 0x957 JUMP JUMPDEST PUSH1 0xE SLOAD PUSH1 0x40 MLOAD PUSH4 0x1AC83115 PUSH1 0xE2 SHL DUP2 MSTORE SWAP2 SWAP3 POP PUSH1 0x1 PUSH1 0x1 PUSH1 0xA0 SHL SUB AND SWAP1 PUSH4 0x6B20C454 SWAP1 PUSH2 0xDC3 SWAP1 CALLER SWAP1 DUP9 SWAP1 DUP9 SWAP1 PUSH1 0x4 ADD PUSH2 0x1BC5 JUMP JUMPDEST PUSH1 0x0 PUSH1 0x40 MLOAD DUP1 DUP4 SUB DUP2 PUSH1 0x0 DUP8 DUP1 EXTCODESIZE ISZERO DUP1 ISZERO PUSH2 0xDDD JUMPI PUSH1 0x0 DUP1 REVERT JUMPDEST POP GAS CALL ISZERO DUP1 ISZERO PUSH2 0xDF1 JUMPI RETURNDATASIZE PUSH1 0x0 DUP1 RETURNDATACOPY RETURNDATASIZE PUSH1 0x0 REVERT JUMPDEST POP POP PUSH1 0x7 SLOAD PUSH2 0xE03 SWAP3 POP SWAP1 POP DUP3 PUSH2 0x1704 JUMP JUMPDEST PUSH1 0x7 SSTORE PUSH1 0x0 SLOAD PUSH2 0xE1D SWAP1 PUSH1 0x1 PUSH1 0x1 PUSH1 0xA0 SHL SUB AND CALLER DUP4 PUSH2 0x169C JUMP JUMPDEST PUSH1 0x7 SLOAD DUP2 PUSH32 0xD06D805CCCC689C42FE1C35F911544F3F334EB2A888128624CC1103D31863E3B DUP7 DUP7 PUSH1 0x40 MLOAD PUSH2 0xE52 SWAP3 SWAP2 SWAP1 PUSH2 0x1C05 JUMP JUMPDEST PUSH1 0x40 MLOAD DUP1 SWAP2 SUB SWAP1 LOG3 POP POP POP POP JUMP JUMPDEST PUSH1 0x0 DUP1 SLOAD PUSH1 0x1 PUSH1 0x1 PUSH1 0xA0 SHL SUB AND ISZERO PUSH2 0xE8A JUMPI PUSH1 0x40 MLOAD PUSH3 0x461BCD PUSH1 0xE5 SHL DUP2 MSTORE PUSH1 0x4 ADD PUSH2 0x56C SWAP1 PUSH2 0x1CA5 JUMP JUMPDEST PUSH1 0x0 PUSH2 0xE96 PUSH1 0x1 PUSH2 0x12B9 JUMP JUMPDEST SWAP1 POP DUP1 DUP4 LT ISZERO PUSH2 0xEB8 JUMPI PUSH1 0x40 MLOAD PUSH3 0x461BCD PUSH1 0xE5 SHL DUP2 MSTORE PUSH1 0x4 ADD PUSH2 0x56C SWAP1 PUSH2 0x1C5D JUMP JUMPDEST PUSH2 0xA87 DUP5 CALLVALUE PUSH1 0x1 PUSH2 0x1478 JUMP JUMPDEST PUSH1 0x0 SLOAD PUSH1 0x1 PUSH1 0x1 PUSH1 0xA0 SHL SUB AND PUSH2 0xEEC JUMPI PUSH1 0x40 MLOAD PUSH3 0x461BCD PUSH1 0xE5 SHL DUP2 MSTORE PUSH1 0x4 ADD PUSH2 0x56C SWAP1 PUSH2 0x1CE6 JUMP JUMPDEST PUSH1 0x0 PUSH2 0xEF7 DUP3 PUSH2 0x957 JUMP JUMPDEST PUSH1 0xE SLOAD PUSH1 0x40 MLOAD PUSH4 0x7A94C565 PUSH1 0xE1 SHL DUP2 MSTORE CALLER PUSH1 0x4 DUP3 ADD MSTORE PUSH1 0x24 DUP2 ADD DUP7 SWAP1 MSTORE PUSH1 0x44 DUP2 ADD DUP6 SWAP1 MSTORE SWAP2 SWAP3 POP PUSH1 0x1 PUSH1 0x1 PUSH1 0xA0 SHL SUB AND SWAP1 PUSH4 0xF5298ACA SWAP1 PUSH1 0x64 ADD PUSH1 0x0 PUSH1 0x40 MLOAD DUP1 DUP4 SUB DUP2 PUSH1 0x0 DUP8 DUP1 EXTCODESIZE ISZERO DUP1 ISZERO PUSH2 0xF4B JUMPI PUSH1 0x0 DUP1 REVERT JUMPDEST POP GAS CALL ISZERO DUP1 ISZERO PUSH2 0xF5F JUMPI RETURNDATASIZE PUSH1 0x0 DUP1 RETURNDATACOPY RETURNDATASIZE PUSH1 0x0 REVERT JUMPDEST POP POP PUSH1 0x7 SLOAD PUSH2 0xF71 SWAP3 POP SWAP1 POP DUP3 PUSH2 0x1704 JUMP JUMPDEST PUSH1 0x7 SSTORE PUSH1 0x0 SLOAD PUSH2 0xF8B SWAP1 PUSH1 0x1 PUSH1 0x1 PUSH1 0xA0 SHL SUB AND CALLER DUP4 PUSH2 0x169C JUMP JUMPDEST PUSH1 0x7 SLOAD DUP2 DUP5 PUSH32 0x995CA2C4AF96166D9CA34DA2B4BF391C101A82CD1A12C60D5A8A0F65B24BEFC0 DUP6 PUSH1 0x40 MLOAD PUSH2 0xFC1 SWAP2 DUP2 MSTORE PUSH1 0x20 ADD SWAP1 JUMP JUMPDEST PUSH1 0x40 MLOAD DUP1 SWAP2 SUB SWAP1 LOG4 POP POP POP JUMP JUMPDEST PUSH1 0x0 SLOAD PUSH1 0x1 PUSH1 0x1 PUSH1 0xA0 SHL SUB AND ISZERO PUSH2 0xFF7 JUMPI PUSH1 0x40 MLOAD PUSH3 0x461BCD PUSH1 0xE5 SHL DUP2 MSTORE PUSH1 0x4 ADD PUSH2 0x56C SWAP1 PUSH2 0x1CA5 JUMP JUMPDEST PUSH1 0x0 PUSH2 0x1002 DUP3 PUSH2 0x957 JUMP JUMPDEST PUSH1 0xE SLOAD PUSH1 0x40 MLOAD PUSH4 0x7A94C565 PUSH1 0xE1 SHL DUP2 MSTORE CALLER PUSH1 0x4 DUP3 ADD MSTORE PUSH1 0x24 DUP2 ADD DUP7 SWAP1 MSTORE PUSH1 0x44 DUP2 ADD DUP6 SWAP1 MSTORE SWAP2 SWAP3 POP PUSH1 0x1 PUSH1 0x1 PUSH1 0xA0 SHL SUB AND SWAP1 PUSH4 0xF5298ACA SWAP1 PUSH1 0x64 ADD PUSH1 0x0 PUSH1 0x40 MLOAD DUP1 DUP4 SUB DUP2 PUSH1 0x0 DUP8 DUP1 EXTCODESIZE ISZERO DUP1 ISZERO PUSH2 0x1056 JUMPI PUSH1 0x0 DUP1 REVERT JUMPDEST POP GAS CALL ISZERO DUP1 ISZERO PUSH2 0x106A JUMPI RETURNDATASIZE PUSH1 0x0 DUP1 RETURNDATACOPY RETURNDATASIZE PUSH1 0x0 REVERT JUMPDEST POP POP PUSH1 0x7 SLOAD PUSH2 0x107C SWAP3 POP SWAP1 POP DUP3 PUSH2 0x1704 JUMP JUMPDEST PUSH1 0x7 SSTORE PUSH1 0x40 MLOAD CALLER SWAP1 DUP3 ISZERO PUSH2 0x8FC MUL SWAP1 DUP4 SWAP1 PUSH1 0x0 DUP2 DUP2 DUP2 DUP6 DUP9 DUP9 CALL SWAP4 POP POP POP POP ISZERO DUP1 ISZERO PUSH2 0x10AC JUMPI RETURNDATASIZE PUSH1 0x0 DUP1 RETURNDATACOPY RETURNDATASIZE PUSH1 0x0 REVERT JUMPDEST POP PUSH1 0x7 SLOAD DUP2 DUP5 PUSH32 0x995CA2C4AF96166D9CA34DA2B4BF391C101A82CD1A12C60D5A8A0F65B24BEFC0 DUP6 PUSH1 0x40 MLOAD PUSH2 0xFC1 SWAP2 DUP2 MSTORE PUSH1 0x20 ADD SWAP1 JUMP JUMPDEST PUSH1 0x0 SLOAD PUSH1 0x1 PUSH1 0x1 PUSH1 0xA0 SHL SUB AND ISZERO PUSH2 0x110C JUMPI PUSH1 0x40 MLOAD PUSH3 0x461BCD PUSH1 0xE5 SHL DUP2 MSTORE PUSH1 0x4 ADD PUSH2 0x56C SWAP1 PUSH2 0x1CE6 JUMP JUMPDEST DUP1 MLOAD DUP3 MLOAD EQ PUSH2 0x1174 JUMPI PUSH1 0x40 MLOAD PUSH3 0x461BCD PUSH1 0xE5 SHL DUP2 MSTORE PUSH1 0x20 PUSH1 0x4 DUP3 ADD MSTORE PUSH1 0x2E PUSH1 0x24 DUP3 ADD MSTORE PUSH32 0x43757276653A205F746F6B656E49647320616E64205F62616C616E636573206C PUSH1 0x44 DUP3 ADD MSTORE PUSH14 0xCADCCEE8D040DAD2E6DAC2E8C6D PUSH1 0x93 SHL PUSH1 0x64 DUP3 ADD MSTORE PUSH1 0x84 ADD PUSH2 0x56C JUMP JUMPDEST PUSH1 0x0 DUP1 JUMPDEST DUP3 MLOAD DUP2 LT ISZERO PUSH2 0x11BA JUMPI DUP3 DUP2 DUP2 MLOAD DUP2 LT PUSH2 0x1193 JUMPI PUSH2 0x1193 PUSH2 0x1EEC JUMP JUMPDEST PUSH1 0x20 MUL PUSH1 0x20 ADD ADD MLOAD DUP3 PUSH2 0x11A6 SWAP2 SWAP1 PUSH2 0x1D1D JUMP JUMPDEST SWAP2 POP DUP1 PUSH2 0x11B2 DUP2 PUSH2 0x1EBB JUMP JUMPDEST SWAP2 POP POP PUSH2 0x1178 JUMP JUMPDEST POP PUSH1 0x0 PUSH2 0x11C6 DUP3 PUSH2 0x957 JUMP JUMPDEST PUSH1 0xE SLOAD PUSH1 0x40 MLOAD PUSH4 0x1AC83115 PUSH1 0xE2 SHL DUP2 MSTORE SWAP2 SWAP3 POP PUSH1 0x1 PUSH1 0x1 PUSH1 0xA0 SHL SUB AND SWAP1 PUSH4 0x6B20C454 SWAP1 PUSH2 0x11FB SWAP1 CALLER SWAP1 DUP9 SWAP1 DUP9 SWAP1 PUSH1 0x4 ADD PUSH2 0x1BC5 JUMP JUMPDEST PUSH1 0x0 PUSH1 0x40 MLOAD DUP1 DUP4 SUB DUP2 PUSH1 0x0 DUP8 DUP1 EXTCODESIZE ISZERO DUP1 ISZERO PUSH2 0x1215 JUMPI PUSH1 0x0 DUP1 REVERT JUMPDEST POP GAS CALL ISZERO DUP1 ISZERO PUSH2 0x1229 JUMPI RETURNDATASIZE PUSH1 0x0 DUP1 RETURNDATACOPY RETURNDATASIZE PUSH1 0x0 REVERT JUMPDEST POP POP PUSH1 0x7 SLOAD PUSH2 0x123B SWAP3 POP SWAP1 POP DUP3 PUSH2 0x1704 JUMP JUMPDEST PUSH1 0x7 SSTORE PUSH1 0x40 MLOAD CALLER SWAP1 DUP3 ISZERO PUSH2 0x8FC MUL SWAP1 DUP4 SWAP1 PUSH1 0x0 DUP2 DUP2 DUP2 DUP6 DUP9 DUP9 CALL SWAP4 POP POP POP POP ISZERO DUP1 ISZERO PUSH2 0x126B JUMPI RETURNDATASIZE PUSH1 0x0 DUP1 RETURNDATACOPY RETURNDATASIZE PUSH1 0x0 REVERT JUMPDEST POP PUSH1 0x7 SLOAD DUP2 PUSH32 0xD06D805CCCC689C42FE1C35F911544F3F334EB2A888128624CC1103D31863E3B DUP7 DUP7 PUSH1 0x40 MLOAD PUSH2 0xE52 SWAP3 SWAP2 SWAP1 PUSH2 0x1C05 JUMP JUMPDEST PUSH1 0x0 PUSH2 0x7D4 DUP3 DUP5 PUSH2 0x1D35 JUMP JUMPDEST PUSH1 0x0 PUSH2 0x7D4 DUP3 DUP5 PUSH2 0x1E42 JUMP JUMPDEST PUSH1 0x0 DUP1 PUSH2 0x12C4 PUSH2 0x8D5 JUMP JUMPDEST PUSH2 0x12CF SWAP1 PUSH1 0x1 PUSH2 0x1D1D JUMP JUMPDEST SWAP1 POP PUSH1 0x0 DUP1 PUSH1 0x4 SLOAD GT ISZERO PUSH2 0x133F JUMPI PUSH1 0xA PUSH1 0x4 SLOAD GT PUSH2 0x12FE JUMPI PUSH1 0x0 PUSH2 0x609 PUSH1 0x4 SLOAD DUP5 PUSH1 0x1 DUP9 DUP8 PUSH2 0x5FF SWAP2 SWAP1 PUSH2 0x1D1D JUMP JUMPDEST DUP2 JUMPDEST PUSH2 0x130A DUP6 DUP5 PUSH2 0x1D1D JUMP JUMPDEST DUP2 LT ISZERO PUSH2 0x68F JUMPI PUSH2 0x132B PUSH2 0x674 PUSH1 0x5 SLOAD PUSH2 0x630 PUSH1 0x4 SLOAD DUP6 PUSH2 0x66B SWAP2 SWAP1 PUSH2 0x1D9A JUMP JUMPDEST SWAP2 POP DUP1 PUSH2 0x1337 DUP2 PUSH2 0x1EBB JUMP JUMPDEST SWAP2 POP POP PUSH2 0x1300 JUMP JUMPDEST DUP2 JUMPDEST PUSH2 0x134B DUP6 DUP5 PUSH2 0x1D1D JUMP JUMPDEST DUP2 LT ISZERO PUSH2 0x797 JUMPI PUSH1 0x0 DUP2 DUP2 MSTORE PUSH1 0x6 PUSH1 0x20 MSTORE PUSH1 0x40 SWAP1 KECCAK256 SLOAD PUSH2 0x1449 JUMPI PUSH1 0xF SLOAD PUSH1 0x2 SLOAD PUSH1 0x3 SLOAD PUSH1 0x40 MLOAD PUSH4 0x16BFCD37 PUSH1 0xE2 SHL DUP2 MSTORE PUSH1 0x4 DUP2 ADD DUP6 SWAP1 MSTORE PUSH1 0x1 PUSH1 0x24 DUP3 ADD MSTORE PUSH1 0x44 DUP2 ADD SWAP3 SWAP1 SWAP3 MSTORE PUSH1 0x64 DUP3 ADD MSTORE PUSH1 0x0 SWAP2 DUP3 SWAP2 PUSH1 0x1 PUSH1 0x1 PUSH1 0xA0 SHL SUB SWAP1 SWAP2 AND SWAP1 PUSH4 0x5AFF34DC SWAP1 PUSH1 0x84 ADD PUSH1 0x40 DUP1 MLOAD DUP1 DUP4 SUB DUP2 DUP7 DUP1 EXTCODESIZE ISZERO DUP1 ISZERO PUSH2 0x13C7 JUMPI PUSH1 0x0 DUP1 REVERT JUMPDEST POP GAS STATICCALL ISZERO DUP1 ISZERO PUSH2 0x13DB JUMPI RETURNDATASIZE PUSH1 0x0 DUP1 RETURNDATACOPY RETURNDATASIZE PUSH1 0x0 REVERT JUMPDEST POP POP POP POP PUSH1 0x40 MLOAD RETURNDATASIZE PUSH1 0x1F NOT PUSH1 0x1F DUP3 ADD AND DUP3 ADD DUP1 PUSH1 0x40 MSTORE POP DUP2 ADD SWAP1 PUSH2 0x13FF SWAP2 SWAP1 PUSH2 0x1B1E JUMP JUMPDEST SWAP2 POP SWAP2 POP PUSH1 0x0 PUSH2 0x1421 PUSH2 0x76A DUP4 PUSH2 0x764 DUP7 PUSH1 0x1 SLOAD PUSH2 0x12AD SWAP1 SWAP2 SWAP1 PUSH4 0xFFFFFFFF AND JUMP JUMPDEST SWAP1 POP PUSH2 0x142D DUP6 DUP3 PUSH2 0x1690 JUMP JUMPDEST PUSH1 0x0 DUP6 DUP2 MSTORE PUSH1 0x6 PUSH1 0x20 MSTORE PUSH1 0x40 SWAP1 KECCAK256 SWAP2 SWAP1 SWAP2 SSTORE SWAP4 POP PUSH2 0x1466 SWAP2 POP POP JUMP JUMPDEST PUSH1 0x0 DUP2 DUP2 MSTORE PUSH1 0x6 PUSH1 0x20 MSTORE PUSH1 0x40 SWAP1 KECCAK256 SLOAD PUSH2 0x1463 SWAP1 DUP4 SWAP1 PUSH2 0x1690 JUMP JUMPDEST SWAP2 POP JUMPDEST DUP1 PUSH2 0x1470 DUP2 PUSH2 0x1EBB JUMP JUMPDEST SWAP2 POP POP PUSH2 0x1341 JUMP JUMPDEST PUSH1 0x0 DUP1 PUSH2 0x1484 DUP6 PUSH2 0x12B9 JUMP JUMPDEST SWAP1 POP DUP1 DUP5 LT ISZERO PUSH2 0x14D6 JUMPI PUSH1 0x40 MLOAD PUSH3 0x461BCD PUSH1 0xE5 SHL DUP2 MSTORE PUSH1 0x20 PUSH1 0x4 DUP3 ADD MSTORE PUSH1 0x1C PUSH1 0x24 DUP3 ADD MSTORE PUSH32 0x43757276653A206E6F7420656E6F75676820746F6B656E2073656E7400000000 PUSH1 0x44 DUP3 ADD MSTORE PUSH1 0x64 ADD PUSH2 0x56C JUMP JUMPDEST DUP3 ISZERO PUSH2 0x152B JUMPI PUSH1 0x0 PUSH2 0x14E8 DUP6 DUP4 PUSH2 0x1704 JUMP JUMPDEST GT ISZERO PUSH2 0x1526 JUMPI CALLER PUSH2 0x8FC PUSH2 0x14FC DUP7 DUP5 PUSH2 0x1704 JUMP JUMPDEST PUSH1 0x40 MLOAD DUP2 ISZERO SWAP1 SWAP3 MUL SWAP2 PUSH1 0x0 DUP2 DUP2 DUP2 DUP6 DUP9 DUP9 CALL SWAP4 POP POP POP POP ISZERO DUP1 ISZERO PUSH2 0x1524 JUMPI RETURNDATASIZE PUSH1 0x0 DUP1 RETURNDATACOPY RETURNDATASIZE PUSH1 0x0 REVERT JUMPDEST POP JUMPDEST PUSH2 0x1543 JUMP JUMPDEST PUSH1 0x0 SLOAD PUSH2 0x1543 SWAP1 PUSH1 0x1 PUSH1 0x1 PUSH1 0xA0 SHL SUB AND CALLER ADDRESS DUP5 PUSH2 0x1710 JUMP JUMPDEST PUSH1 0xE SLOAD PUSH1 0x40 MLOAD PUSH4 0x40C10F19 PUSH1 0xE0 SHL DUP2 MSTORE CALLER PUSH1 0x4 DUP3 ADD MSTORE PUSH1 0x24 DUP2 ADD DUP8 SWAP1 MSTORE PUSH1 0x0 SWAP2 PUSH1 0x1 PUSH1 0x1 PUSH1 0xA0 SHL SUB AND SWAP1 PUSH4 0x40C10F19 SWAP1 PUSH1 0x44 ADD PUSH1 0x20 PUSH1 0x40 MLOAD DUP1 DUP4 SUB DUP2 PUSH1 0x0 DUP8 DUP1 EXTCODESIZE ISZERO DUP1 ISZERO PUSH2 0x1590 JUMPI PUSH1 0x0 DUP1 REVERT JUMPDEST POP GAS CALL ISZERO DUP1 ISZERO PUSH2 0x15A4 JUMPI RETURNDATASIZE PUSH1 0x0 DUP1 RETURNDATACOPY RETURNDATASIZE PUSH1 0x0 REVERT JUMPDEST POP POP POP POP PUSH1 0x40 MLOAD RETURNDATASIZE PUSH1 0x1F NOT PUSH1 0x1F DUP3 ADD AND DUP3 ADD DUP1 PUSH1 0x40 MSTORE POP DUP2 ADD SWAP1 PUSH2 0x15C8 SWAP2 SWAP1 PUSH2 0x1AE3 JUMP JUMPDEST SWAP1 POP PUSH1 0x0 PUSH2 0x15E6 PUSH1 0x64 PUSH2 0x764 PUSH1 0x9 SLOAD DUP7 PUSH2 0x12AD SWAP1 SWAP2 SWAP1 PUSH4 0xFFFFFFFF AND JUMP JUMPDEST SWAP1 POP PUSH1 0x0 PUSH2 0x1604 PUSH1 0x64 PUSH2 0x764 PUSH1 0xC SLOAD DUP8 PUSH2 0x12AD SWAP1 SWAP2 SWAP1 PUSH4 0xFFFFFFFF AND JUMP JUMPDEST PUSH1 0xA SLOAD SWAP1 SWAP2 POP PUSH2 0x1614 SWAP1 DUP4 PUSH2 0x1690 JUMP JUMPDEST PUSH1 0xA SSTORE PUSH1 0xD SLOAD PUSH2 0x1624 SWAP1 DUP3 PUSH2 0x1690 JUMP JUMPDEST PUSH1 0xD SSTORE PUSH1 0x0 PUSH2 0x1637 DUP3 PUSH2 0xCA5 DUP8 DUP7 PUSH2 0x1704 JUMP JUMPDEST PUSH1 0x7 SLOAD SWAP1 SWAP2 POP PUSH2 0x1647 SWAP1 DUP3 PUSH2 0x1690 JUMP JUMPDEST PUSH1 0x7 DUP2 SWAP1 SSTORE PUSH1 0x40 MLOAD DUP11 DUP2 MSTORE DUP7 SWAP1 DUP7 SWAP1 PUSH32 0xFFCEF012C57AEBE5AC5892B7A52A23E54435AB8349CFBAA6620D7F3B0DA0A001 SWAP1 PUSH1 0x20 ADD PUSH1 0x40 MLOAD DUP1 SWAP2 SUB SWAP1 LOG4 POP SWAP2 SWAP8 SWAP7 POP POP POP POP POP POP POP JUMP JUMPDEST PUSH1 0x0 PUSH2 0x7D4 DUP3 DUP5 PUSH2 0x1D1D JUMP JUMPDEST PUSH1 0x40 MLOAD PUSH1 0x1 PUSH1 0x1 PUSH1 0xA0 SHL SUB DUP4 AND PUSH1 0x24 DUP3 ADD MSTORE PUSH1 0x44 DUP2 ADD DUP3 SWAP1 MSTORE PUSH2 0x16FF SWAP1 DUP5 SWAP1 PUSH4 0xA9059CBB PUSH1 0xE0 SHL SWAP1 PUSH1 0x64 ADD JUMPDEST PUSH1 0x40 DUP1 MLOAD PUSH1 0x1F NOT DUP2 DUP5 SUB ADD DUP2 MSTORE SWAP2 SWAP1 MSTORE PUSH1 0x20 DUP2 ADD DUP1 MLOAD PUSH1 0x1 PUSH1 0x1 PUSH1 0xE0 SHL SUB AND PUSH1 0x1 PUSH1 0x1 PUSH1 0xE0 SHL SUB NOT SWAP1 SWAP4 AND SWAP3 SWAP1 SWAP3 OR SWAP1 SWAP2 MSTORE PUSH2 0x174E JUMP JUMPDEST POP POP POP JUMP JUMPDEST PUSH1 0x0 PUSH2 0x7D4 DUP3 DUP5 PUSH2 0x1E61 JUMP JUMPDEST PUSH1 0x40 MLOAD PUSH1 0x1 PUSH1 0x1 PUSH1 0xA0 SHL SUB DUP1 DUP6 AND PUSH1 0x24 DUP4 ADD MSTORE DUP4 AND PUSH1 0x44 DUP3 ADD MSTORE PUSH1 0x64 DUP2 ADD DUP3 SWAP1 MSTORE PUSH2 0x1748 SWAP1 DUP6 SWAP1 PUSH4 0x23B872DD PUSH1 0xE0 SHL SWAP1 PUSH1 0x84 ADD PUSH2 0x16C8 JUMP JUMPDEST POP POP POP POP JUMP JUMPDEST PUSH1 0x0 PUSH2 0x17A3 DUP3 PUSH1 0x40 MLOAD DUP1 PUSH1 0x40 ADD PUSH1 0x40 MSTORE DUP1 PUSH1 0x20 DUP2 MSTORE PUSH1 0x20 ADD PUSH32 0x5361666545524332303A206C6F772D6C6576656C2063616C6C206661696C6564 DUP2 MSTORE POP DUP6 PUSH1 0x1 PUSH1 0x1 PUSH1 0xA0 SHL SUB AND PUSH2 0x1820 SWAP1 SWAP3 SWAP2 SWAP1 PUSH4 0xFFFFFFFF AND JUMP JUMPDEST DUP1 MLOAD SWAP1 SWAP2 POP ISZERO PUSH2 0x16FF JUMPI DUP1 DUP1 PUSH1 0x20 ADD SWAP1 MLOAD DUP2 ADD SWAP1 PUSH2 0x17C1 SWAP2 SWAP1 PUSH2 0x1AAD JUMP JUMPDEST PUSH2 0x16FF JUMPI PUSH1 0x40 MLOAD PUSH3 0x461BCD PUSH1 0xE5 SHL DUP2 MSTORE PUSH1 0x20 PUSH1 0x4 DUP3 ADD MSTORE PUSH1 0x2A PUSH1 0x24 DUP3 ADD MSTORE PUSH32 0x5361666545524332303A204552433230206F7065726174696F6E20646964206E PUSH1 0x44 DUP3 ADD MSTORE PUSH10 0x1BDD081CDD58D8D95959 PUSH1 0xB2 SHL PUSH1 0x64 DUP3 ADD MSTORE PUSH1 0x84 ADD PUSH2 0x56C JUMP JUMPDEST PUSH1 0x60 PUSH2 0xA87 DUP5 DUP5 PUSH1 0x0 DUP6 DUP6 DUP5 EXTCODESIZE PUSH2 0x1879 JUMPI PUSH1 0x40 MLOAD PUSH3 0x461BCD PUSH1 0xE5 SHL DUP2 MSTORE PUSH1 0x20 PUSH1 0x4 DUP3 ADD MSTORE PUSH1 0x1D PUSH1 0x24 DUP3 ADD MSTORE PUSH32 0x416464726573733A2063616C6C20746F206E6F6E2D636F6E7472616374000000 PUSH1 0x44 DUP3 ADD MSTORE PUSH1 0x64 ADD PUSH2 0x56C JUMP JUMPDEST PUSH1 0x0 DUP1 DUP7 PUSH1 0x1 PUSH1 0x1 PUSH1 0xA0 SHL SUB AND DUP6 DUP8 PUSH1 0x40 MLOAD PUSH2 0x1895 SWAP2 SWAP1 PUSH2 0x1BA9 JUMP JUMPDEST PUSH1 0x0 PUSH1 0x40 MLOAD DUP1 DUP4 SUB DUP2 DUP6 DUP8 GAS CALL SWAP3 POP POP POP RETURNDATASIZE DUP1 PUSH1 0x0 DUP2 EQ PUSH2 0x18D2 JUMPI PUSH1 0x40 MLOAD SWAP2 POP PUSH1 0x1F NOT PUSH1 0x3F RETURNDATASIZE ADD AND DUP3 ADD PUSH1 0x40 MSTORE RETURNDATASIZE DUP3 MSTORE RETURNDATASIZE PUSH1 0x0 PUSH1 0x20 DUP5 ADD RETURNDATACOPY PUSH2 0x18D7 JUMP JUMPDEST PUSH1 0x60 SWAP2 POP JUMPDEST POP SWAP2 POP SWAP2 POP PUSH2 0x18E7 DUP3 DUP3 DUP7 PUSH2 0x18F2 JUMP JUMPDEST SWAP8 SWAP7 POP POP POP POP POP POP POP JUMP JUMPDEST PUSH1 0x60 DUP4 ISZERO PUSH2 0x1901 JUMPI POP DUP2 PUSH2 0x5B3 JUMP JUMPDEST DUP3 MLOAD ISZERO PUSH2 0x1911 JUMPI DUP3 MLOAD DUP1 DUP5 PUSH1 0x20 ADD REVERT JUMPDEST DUP2 PUSH1 0x40 MLOAD PUSH3 0x461BCD PUSH1 0xE5 SHL DUP2 MSTORE PUSH1 0x4 ADD PUSH2 0x56C SWAP2 SWAP1 PUSH2 0x1C2A JUMP JUMPDEST DUP1 CALLDATALOAD PUSH1 0x1 PUSH1 0x1 PUSH1 0xA0 SHL SUB DUP2 AND DUP2 EQ PUSH2 0x1942 JUMPI PUSH1 0x0 DUP1 REVERT JUMPDEST SWAP2 SWAP1 POP JUMP JUMPDEST PUSH1 0x0 DUP3 PUSH1 0x1F DUP4 ADD SLT PUSH2 0x1958 JUMPI PUSH1 0x0 DUP1 REVERT JUMPDEST DUP2 CALLDATALOAD PUSH1 0x20 PUSH8 0xFFFFFFFFFFFFFFFF DUP1 DUP4 GT ISZERO PUSH2 0x1975 JUMPI PUSH2 0x1975 PUSH2 0x1F02 JUMP JUMPDEST DUP3 PUSH1 0x5 SHL PUSH1 0x40 MLOAD PUSH1 0x1F NOT PUSH1 0x3F DUP4 ADD AND DUP2 ADD DUP2 DUP2 LT DUP5 DUP3 GT OR ISZERO PUSH2 0x199A JUMPI PUSH2 0x199A PUSH2 0x1F02 JUMP JUMPDEST PUSH1 0x40 MSTORE DUP5 DUP2 MSTORE DUP4 DUP2 ADD SWAP3 POP DUP7 DUP5 ADD DUP3 DUP9 ADD DUP6 ADD DUP10 LT ISZERO PUSH2 0x19B9 JUMPI PUSH1 0x0 DUP1 REVERT JUMPDEST PUSH1 0x0 SWAP3 POP JUMPDEST DUP6 DUP4 LT ISZERO PUSH2 0x19DC JUMPI DUP1 CALLDATALOAD DUP5 MSTORE SWAP3 DUP5 ADD SWAP3 PUSH1 0x1 SWAP3 SWAP1 SWAP3 ADD SWAP2 DUP5 ADD PUSH2 0x19BE JUMP JUMPDEST POP SWAP8 SWAP7 POP POP POP POP POP POP POP JUMP JUMPDEST PUSH1 0x0 DUP1 PUSH1 0x0 DUP1 PUSH1 0x80 DUP6 DUP8 SUB SLT ISZERO PUSH2 0x19FE JUMPI PUSH1 0x0 DUP1 REVERT JUMPDEST PUSH2 0x1A07 DUP6 PUSH2 0x192B JUMP JUMPDEST SWAP4 POP PUSH1 0x20 DUP6 ADD CALLDATALOAD SWAP3 POP PUSH2 0x1A1C PUSH1 0x40 DUP7 ADD PUSH2 0x192B JUMP JUMPDEST SWAP4 SWAP7 SWAP3 SWAP6 POP SWAP3 SWAP4 PUSH1 0x60 ADD CALLDATALOAD SWAP3 POP POP JUMP JUMPDEST PUSH1 0x0 DUP1 PUSH1 0x40 DUP4 DUP6 SUB SLT ISZERO PUSH2 0x1A3F JUMPI PUSH1 0x0 DUP1 REVERT JUMPDEST DUP3 CALLDATALOAD PUSH8 0xFFFFFFFFFFFFFFFF DUP1 DUP3 GT ISZERO PUSH2 0x1A57 JUMPI PUSH1 0x0 DUP1 REVERT JUMPDEST PUSH2 0x1A63 DUP7 DUP4 DUP8 ADD PUSH2 0x1947 JUMP JUMPDEST SWAP4 POP PUSH1 0x20 DUP6 ADD CALLDATALOAD SWAP2 POP DUP1 DUP3 GT ISZERO PUSH2 0x1A79 JUMPI PUSH1 0x0 DUP1 REVERT JUMPDEST POP PUSH2 0x1A86 DUP6 DUP3 DUP7 ADD PUSH2 0x1947 JUMP JUMPDEST SWAP2 POP POP SWAP3 POP SWAP3 SWAP1 POP JUMP JUMPDEST PUSH1 0x0 PUSH1 0x20 DUP3 DUP5 SUB SLT ISZERO PUSH2 0x1AA2 JUMPI PUSH1 0x0 DUP1 REVERT JUMPDEST DUP2 CALLDATALOAD PUSH2 0x5B3 DUP2 PUSH2 0x1F18 JUMP JUMPDEST PUSH1 0x0 PUSH1 0x20 DUP3 DUP5 SUB SLT ISZERO PUSH2 0x1ABF JUMPI PUSH1 0x0 DUP1 REVERT JUMPDEST DUP2 MLOAD PUSH2 0x5B3 DUP2 PUSH2 0x1F18 JUMP JUMPDEST PUSH1 0x0 PUSH1 0x20 DUP3 DUP5 SUB SLT ISZERO PUSH2 0x1ADC JUMPI PUSH1 0x0 DUP1 REVERT JUMPDEST POP CALLDATALOAD SWAP2 SWAP1 POP JUMP JUMPDEST PUSH1 0x0 PUSH1 0x20 DUP3 DUP5 SUB SLT ISZERO PUSH2 0x1AF5 JUMPI PUSH1 0x0 DUP1 REVERT JUMPDEST POP MLOAD SWAP2 SWAP1 POP JUMP JUMPDEST PUSH1 0x0 DUP1 PUSH1 0x40 DUP4 DUP6 SUB SLT ISZERO PUSH2 0x1B0F JUMPI PUSH1 0x0 DUP1 REVERT JUMPDEST POP POP DUP1 CALLDATALOAD SWAP3 PUSH1 0x20 SWAP1 SWAP2 ADD CALLDATALOAD SWAP2 POP JUMP JUMPDEST PUSH1 0x0 DUP1 PUSH1 0x40 DUP4 DUP6 SUB SLT ISZERO PUSH2 0x1B31 JUMPI PUSH1 0x0 DUP1 REVERT JUMPDEST POP POP DUP1 MLOAD PUSH1 0x20 SWAP1 SWAP2 ADD MLOAD SWAP1 SWAP3 SWAP1 SWAP2 POP JUMP JUMPDEST PUSH1 0x0 DUP1 PUSH1 0x0 PUSH1 0x60 DUP5 DUP7 SUB SLT ISZERO PUSH2 0x1B57 JUMPI PUSH1 0x0 DUP1 REVERT JUMPDEST POP POP DUP2 CALLDATALOAD SWAP4 PUSH1 0x20 DUP4 ADD CALLDATALOAD SWAP4 POP PUSH1 0x40 SWAP1 SWAP3 ADD CALLDATALOAD SWAP2 SWAP1 POP JUMP JUMPDEST PUSH1 0x0 DUP2 MLOAD DUP1 DUP5 MSTORE PUSH1 0x20 DUP1 DUP6 ADD SWAP5 POP DUP1 DUP5 ADD PUSH1 0x0 JUMPDEST DUP4 DUP2 LT ISZERO PUSH2 0x1B9E JUMPI DUP2 MLOAD DUP8 MSTORE SWAP6 DUP3 ADD SWAP6 SWAP1 DUP3 ADD SWAP1 PUSH1 0x1 ADD PUSH2 0x1B82 JUMP JUMPDEST POP SWAP5 SWAP6 SWAP5 POP POP POP POP POP JUMP JUMPDEST PUSH1 0x0 DUP3 MLOAD PUSH2 0x1BBB DUP2 DUP5 PUSH1 0x20 DUP8 ADD PUSH2 0x1E78 JUMP JUMPDEST SWAP2 SWAP1 SWAP2 ADD SWAP3 SWAP2 POP POP JUMP JUMPDEST PUSH1 0x1 PUSH1 0x1 PUSH1 0xA0 SHL SUB DUP5 AND DUP2 MSTORE PUSH1 0x60 PUSH1 0x20 DUP3 ADD DUP2 SWAP1 MSTORE PUSH1 0x0 SWAP1 PUSH2 0x1BE9 SWAP1 DUP4 ADD DUP6 PUSH2 0x1B6E JUMP JUMPDEST DUP3 DUP2 SUB PUSH1 0x40 DUP5 ADD MSTORE PUSH2 0x1BFB DUP2 DUP6 PUSH2 0x1B6E JUMP JUMPDEST SWAP7 SWAP6 POP POP POP POP POP POP JUMP JUMPDEST PUSH1 0x40 DUP2 MSTORE PUSH1 0x0 PUSH2 0x1C18 PUSH1 0x40 DUP4 ADD DUP6 PUSH2 0x1B6E JUMP JUMPDEST DUP3 DUP2 SUB PUSH1 0x20 DUP5 ADD MSTORE PUSH2 0x5AF DUP2 DUP6 PUSH2 0x1B6E JUMP JUMPDEST PUSH1 0x20 DUP2 MSTORE PUSH1 0x0 DUP3 MLOAD DUP1 PUSH1 0x20 DUP5 ADD MSTORE PUSH2 0x1C49 DUP2 PUSH1 0x40 DUP6 ADD PUSH1 0x20 DUP8 ADD PUSH2 0x1E78 JUMP JUMPDEST PUSH1 0x1F ADD PUSH1 0x1F NOT AND SWAP2 SWAP1 SWAP2 ADD PUSH1 0x40 ADD SWAP3 SWAP2 POP POP JUMP JUMPDEST PUSH1 0x20 DUP1 DUP3 MSTORE PUSH1 0x28 SWAP1 DUP3 ADD MSTORE PUSH32 0x43757276653A207072696365206578636565647320736C69707061676520746F PUSH1 0x40 DUP3 ADD MSTORE PUSH8 0x3632B930B731B297 PUSH1 0xC1 SHL PUSH1 0x60 DUP3 ADD MSTORE PUSH1 0x80 ADD SWAP1 JUMP JUMPDEST PUSH1 0x20 DUP1 DUP3 MSTORE PUSH1 0x21 SWAP1 DUP3 ADD MSTORE PUSH32 0x43757276653A2065726332302061646472657373206973204E4F54206E756C6C PUSH1 0x40 DUP3 ADD MSTORE PUSH1 0x17 PUSH1 0xF9 SHL PUSH1 0x60 DUP3 ADD MSTORE PUSH1 0x80 ADD SWAP1 JUMP JUMPDEST PUSH1 0x20 DUP1 DUP3 MSTORE PUSH1 0x1D SWAP1 DUP3 ADD MSTORE PUSH32 0x43757276653A2065726332302061646472657373206973206E756C6C2E000000 PUSH1 0x40 DUP3 ADD MSTORE PUSH1 0x60 ADD SWAP1 JUMP JUMPDEST PUSH1 0x0 DUP3 NOT DUP3 GT ISZERO PUSH2 0x1D30 JUMPI PUSH2 0x1D30 PUSH2 0x1ED6 JUMP JUMPDEST POP ADD SWAP1 JUMP JUMPDEST PUSH1 0x0 DUP3 PUSH2 0x1D52 JUMPI PUSH4 0x4E487B71 PUSH1 0xE0 SHL PUSH1 0x0 MSTORE PUSH1 0x12 PUSH1 0x4 MSTORE PUSH1 0x24 PUSH1 0x0 REVERT JUMPDEST POP DIV SWAP1 JUMP JUMPDEST PUSH1 0x1 DUP2 DUP2 JUMPDEST DUP1 DUP6 GT ISZERO PUSH2 0x1D92 JUMPI DUP2 PUSH1 0x0 NOT DIV DUP3 GT ISZERO PUSH2 0x1D78 JUMPI PUSH2 0x1D78 PUSH2 0x1ED6 JUMP JUMPDEST DUP1 DUP6 AND ISZERO PUSH2 0x1D85 JUMPI SWAP2 DUP2 MUL SWAP2 JUMPDEST SWAP4 DUP5 SHR SWAP4 SWAP1 DUP1 MUL SWAP1 PUSH2 0x1D5C JUMP JUMPDEST POP SWAP3 POP SWAP3 SWAP1 POP JUMP JUMPDEST PUSH1 0x0 PUSH2 0x7D4 DUP4 DUP4 PUSH1 0x0 DUP3 PUSH2 0x1DB0 JUMPI POP PUSH1 0x1 PUSH2 0x7D7 JUMP JUMPDEST DUP2 PUSH2 0x1DBD JUMPI POP PUSH1 0x0 PUSH2 0x7D7 JUMP JUMPDEST DUP2 PUSH1 0x1 DUP2 EQ PUSH2 0x1DD3 JUMPI PUSH1 0x2 DUP2 EQ PUSH2 0x1DDD JUMPI PUSH2 0x1DF9 JUMP JUMPDEST PUSH1 0x1 SWAP2 POP POP PUSH2 0x7D7 JUMP JUMPDEST PUSH1 0xFF DUP5 GT ISZERO PUSH2 0x1DEE JUMPI PUSH2 0x1DEE PUSH2 0x1ED6 JUMP JUMPDEST POP POP PUSH1 0x1 DUP3 SHL PUSH2 0x7D7 JUMP JUMPDEST POP PUSH1 0x20 DUP4 LT PUSH2 0x133 DUP4 LT AND PUSH1 0x4E DUP5 LT PUSH1 0xB DUP5 LT AND OR ISZERO PUSH2 0x1E1C JUMPI POP DUP2 DUP2 EXP PUSH2 0x7D7 JUMP JUMPDEST PUSH2 0x1E26 DUP4 DUP4 PUSH2 0x1D57 JUMP JUMPDEST DUP1 PUSH1 0x0 NOT DIV DUP3 GT ISZERO PUSH2 0x1E3A JUMPI PUSH2 0x1E3A PUSH2 0x1ED6 JUMP JUMPDEST MUL SWAP4 SWAP3 POP POP POP JUMP JUMPDEST PUSH1 0x0 DUP2 PUSH1 0x0 NOT DIV DUP4 GT DUP3 ISZERO ISZERO AND ISZERO PUSH2 0x1E5C JUMPI PUSH2 0x1E5C PUSH2 0x1ED6 JUMP JUMPDEST POP MUL SWAP1 JUMP JUMPDEST PUSH1 0x0 DUP3 DUP3 LT ISZERO PUSH2 0x1E73 JUMPI PUSH2 0x1E73 PUSH2 0x1ED6 JUMP JUMPDEST POP SUB SWAP1 JUMP JUMPDEST PUSH1 0x0 JUMPDEST DUP4 DUP2 LT ISZERO PUSH2 0x1E93 JUMPI DUP2 DUP2 ADD MLOAD DUP4 DUP3 ADD MSTORE PUSH1 0x20 ADD PUSH2 0x1E7B JUMP JUMPDEST DUP4 DUP2 GT ISZERO PUSH2 0x1748 JUMPI POP POP PUSH1 0x0 SWAP2 ADD MSTORE JUMP JUMPDEST PUSH1 0x0 DUP2 PUSH2 0x1EB3 JUMPI PUSH2 0x1EB3 PUSH2 0x1ED6 JUMP JUMPDEST POP PUSH1 0x0 NOT ADD SWAP1 JUMP JUMPDEST PUSH1 0x0 PUSH1 0x0 NOT DUP3 EQ ISZERO PUSH2 0x1ECF JUMPI PUSH2 0x1ECF PUSH2 0x1ED6 JUMP JUMPDEST POP PUSH1 0x1 ADD SWAP1 JUMP JUMPDEST PUSH4 0x4E487B71 PUSH1 0xE0 SHL PUSH1 0x0 MSTORE PUSH1 0x11 PUSH1 0x4 MSTORE PUSH1 0x24 PUSH1 0x0 REVERT JUMPDEST PUSH4 0x4E487B71 PUSH1 0xE0 SHL PUSH1 0x0 MSTORE PUSH1 0x32 PUSH1 0x4 MSTORE PUSH1 0x24 PUSH1 0x0 REVERT JUMPDEST PUSH4 0x4E487B71 PUSH1 0xE0 SHL PUSH1 0x0 MSTORE PUSH1 0x41 PUSH1 0x4 MSTORE PUSH1 0x24 PUSH1 0x0 REVERT JUMPDEST DUP1 ISZERO ISZERO DUP2 EQ PUSH2 0x8D2 JUMPI PUSH1 0x0 DUP1 REVERT INVALID LOG2 PUSH5 0x6970667358 0x22 SLT KECCAK256 PUSH1 0xD6 BYTE CALLDATACOPY SLOAD SWAP2 SWAP2 MUL 0xCB GASLIMIT 0xB0 0xEC 0xDB PUSH4 0xACCA79C9 0xCF SWAP12 PUSH30 0x7A64526F62BBB33C8DB364736F6C634300080600336080604052348015 PUSH3 0x11 JUMPI PUSH1 0x0 DUP1 REVERT JUMPDEST POP PUSH1 0x40 MLOAD PUSH3 0x20EB CODESIZE SUB DUP1 PUSH3 0x20EB DUP4 CODECOPY DUP2 ADD PUSH1 0x40 DUP2 SWAP1 MSTORE PUSH3 0x34 SWAP2 PUSH3 0x119 JUMP JUMPDEST DUP1 PUSH3 0x40 DUP2 PUSH3 0x5A JUMP JUMPDEST POP POP PUSH1 0x3 DUP1 SLOAD PUSH1 0x1 PUSH1 0x1 PUSH1 0xA0 SHL SUB NOT AND CALLER OR SWAP1 SSTORE PUSH3 0x248 JUMP JUMPDEST DUP1 MLOAD PUSH3 0x6F SWAP1 PUSH1 0x2 SWAP1 PUSH1 0x20 DUP5 ADD SWAP1 PUSH3 0x73 JUMP JUMPDEST POP POP JUMP JUMPDEST DUP3 DUP1 SLOAD PUSH3 0x81 SWAP1 PUSH3 0x1F5 JUMP JUMPDEST SWAP1 PUSH1 0x0 MSTORE PUSH1 0x20 PUSH1 0x0 KECCAK256 SWAP1 PUSH1 0x1F ADD PUSH1 0x20 SWAP1 DIV DUP2 ADD SWAP3 DUP3 PUSH3 0xA5 JUMPI PUSH1 0x0 DUP6 SSTORE PUSH3 0xF0 JUMP JUMPDEST DUP3 PUSH1 0x1F LT PUSH3 0xC0 JUMPI DUP1 MLOAD PUSH1 0xFF NOT AND DUP4 DUP1 ADD OR DUP6 SSTORE PUSH3 0xF0 JUMP JUMPDEST DUP3 DUP1 ADD PUSH1 0x1 ADD DUP6 SSTORE DUP3 ISZERO PUSH3 0xF0 JUMPI SWAP2 DUP3 ADD JUMPDEST DUP3 DUP2 GT ISZERO PUSH3 0xF0 JUMPI DUP3 MLOAD DUP3 SSTORE SWAP2 PUSH1 0x20 ADD SWAP2 SWAP1 PUSH1 0x1 ADD SWAP1 PUSH3 0xD3 JUMP JUMPDEST POP PUSH3 0xFE SWAP3 SWAP2 POP PUSH3 0x102 JUMP JUMPDEST POP SWAP1 JUMP JUMPDEST JUMPDEST DUP1 DUP3 GT ISZERO PUSH3 0xFE JUMPI PUSH1 0x0 DUP2 SSTORE PUSH1 0x1 ADD PUSH3 0x103 JUMP JUMPDEST PUSH1 0x0 PUSH1 0x20 DUP1 DUP4 DUP6 SUB SLT ISZERO PUSH3 0x12D JUMPI PUSH1 0x0 DUP1 REVERT JUMPDEST DUP3 MLOAD PUSH1 0x1 PUSH1 0x1 PUSH1 0x40 SHL SUB DUP1 DUP3 GT ISZERO PUSH3 0x145 JUMPI PUSH1 0x0 DUP1 REVERT JUMPDEST DUP2 DUP6 ADD SWAP2 POP DUP6 PUSH1 0x1F DUP4 ADD SLT PUSH3 0x15A JUMPI PUSH1 0x0 DUP1 REVERT JUMPDEST DUP2 MLOAD DUP2 DUP2 GT ISZERO PUSH3 0x16F JUMPI PUSH3 0x16F PUSH3 0x232 JUMP JUMPDEST PUSH1 0x40 MLOAD PUSH1 0x1F DUP3 ADD PUSH1 0x1F NOT SWAP1 DUP2 AND PUSH1 0x3F ADD AND DUP2 ADD SWAP1 DUP4 DUP3 GT DUP2 DUP4 LT OR ISZERO PUSH3 0x19A JUMPI PUSH3 0x19A PUSH3 0x232 JUMP JUMPDEST DUP2 PUSH1 0x40 MSTORE DUP3 DUP2 MSTORE DUP9 DUP7 DUP5 DUP8 ADD ADD GT ISZERO PUSH3 0x1B3 JUMPI PUSH1 0x0 DUP1 REVERT JUMPDEST PUSH1 0x0 SWAP4 POP JUMPDEST DUP3 DUP5 LT ISZERO PUSH3 0x1D7 JUMPI DUP5 DUP5 ADD DUP7 ADD MLOAD DUP2 DUP6 ADD DUP8 ADD MSTORE SWAP3 DUP6 ADD SWAP3 PUSH3 0x1B8 JUMP JUMPDEST DUP3 DUP5 GT ISZERO PUSH3 0x1E9 JUMPI PUSH1 0x0 DUP7 DUP5 DUP4 ADD ADD MSTORE JUMPDEST SWAP9 SWAP8 POP POP POP POP POP POP POP POP JUMP JUMPDEST PUSH1 0x1 DUP2 DUP2 SHR SWAP1 DUP3 AND DUP1 PUSH3 0x20A JUMPI PUSH1 0x7F DUP3 AND SWAP2 POP JUMPDEST PUSH1 0x20 DUP3 LT DUP2 EQ ISZERO PUSH3 0x22C JUMPI PUSH4 0x4E487B71 PUSH1 0xE0 SHL PUSH1 0x0 MSTORE PUSH1 0x22 PUSH1 0x4 MSTORE PUSH1 0x24 PUSH1 0x0 REVERT JUMPDEST POP SWAP2 SWAP1 POP JUMP JUMPDEST PUSH4 0x4E487B71 PUSH1 0xE0 SHL PUSH1 0x0 MSTORE PUSH1 0x41 PUSH1 0x4 MSTORE PUSH1 0x24 PUSH1 0x0 REVERT JUMPDEST PUSH2 0x1E93 DUP1 PUSH3 0x258 PUSH1 0x0 CODECOPY PUSH1 0x0 RETURN INVALID PUSH1 0x80 PUSH1 0x40 MSTORE CALLVALUE DUP1 ISZERO PUSH2 0x10 JUMPI PUSH1 0x0 DUP1 REVERT JUMPDEST POP PUSH1 0x4 CALLDATASIZE LT PUSH2 0xFF JUMPI PUSH1 0x0 CALLDATALOAD PUSH1 0xE0 SHR DUP1 PUSH4 0x4E1273F4 GT PUSH2 0x97 JUMPI DUP1 PUSH4 0xE985E9C5 GT PUSH2 0x66 JUMPI DUP1 PUSH4 0xE985E9C5 EQ PUSH2 0x22B JUMPI DUP1 PUSH4 0xF242432A EQ PUSH2 0x267 JUMPI DUP1 PUSH4 0xF3F1CDB6 EQ PUSH2 0x27A JUMPI DUP1 PUSH4 0xF5298ACA EQ PUSH2 0x28D JUMPI PUSH1 0x0 DUP1 REVERT JUMPDEST DUP1 PUSH4 0x4E1273F4 EQ PUSH2 0x1BA JUMPI DUP1 PUSH4 0x6B20C454 EQ PUSH2 0x1DA JUMPI DUP1 PUSH4 0x7165485D EQ PUSH2 0x1ED JUMPI DUP1 PUSH4 0xA22CB465 EQ PUSH2 0x218 JUMPI PUSH1 0x0 DUP1 REVERT JUMPDEST DUP1 PUSH4 0x18160DDD GT PUSH2 0xD3 JUMPI DUP1 PUSH4 0x18160DDD EQ PUSH2 0x176 JUMPI DUP1 PUSH4 0x27D8EDA2 EQ PUSH2 0x17F JUMPI DUP1 PUSH4 0x2EB2C2D6 EQ PUSH2 0x192 JUMPI DUP1 PUSH4 0x40C10F19 EQ PUSH2 0x1A7 JUMPI PUSH1 0x0 DUP1 REVERT JUMPDEST DUP1 PUSH3 0xFDD58E EQ PUSH2 0x104 JUMPI DUP1 PUSH4 0x1FFC9A7 EQ PUSH2 0x12A JUMPI DUP1 PUSH4 0xE89341C EQ PUSH2 0x14D JUMPI DUP1 PUSH4 0x17D70F7C EQ PUSH2 0x16D JUMPI JUMPDEST PUSH1 0x0 DUP1 REVERT JUMPDEST PUSH2 0x117 PUSH2 0x112 CALLDATASIZE PUSH1 0x4 PUSH2 0x17CA JUMP JUMPDEST PUSH2 0x2A0 JUMP JUMPDEST PUSH1 0x40 MLOAD SWAP1 DUP2 MSTORE PUSH1 0x20 ADD JUMPDEST PUSH1 0x40 MLOAD DUP1 SWAP2 SUB SWAP1 RETURN JUMPDEST PUSH2 0x13D PUSH2 0x138 CALLDATASIZE PUSH1 0x4 PUSH2 0x18F8 JUMP JUMPDEST PUSH2 0x33A JUMP JUMPDEST PUSH1 0x40 MLOAD SWAP1 ISZERO ISZERO DUP2 MSTORE PUSH1 0x20 ADD PUSH2 0x121 JUMP JUMPDEST PUSH2 0x160 PUSH2 0x15B CALLDATASIZE PUSH1 0x4 PUSH2 0x1932 JUMP JUMPDEST PUSH2 0x38A JUMP JUMPDEST PUSH1 0x40 MLOAD PUSH2 0x121 SWAP2 SWAP1 PUSH2 0x1AB7 JUMP JUMPDEST PUSH2 0x117 PUSH1 0x5 SLOAD DUP2 JUMP JUMPDEST PUSH2 0x117 PUSH1 0x4 SLOAD DUP2 JUMP JUMPDEST PUSH2 0x117 PUSH2 0x18D CALLDATASIZE PUSH1 0x4 PUSH2 0x17CA JUMP JUMPDEST PUSH2 0x41E JUMP JUMPDEST PUSH2 0x1A5 PUSH2 0x1A0 CALLDATASIZE PUSH1 0x4 PUSH2 0x160B JUMP JUMPDEST PUSH2 0x447 JUMP JUMPDEST STOP JUMPDEST PUSH2 0x117 PUSH2 0x1B5 CALLDATASIZE PUSH1 0x4 PUSH2 0x17CA JUMP JUMPDEST PUSH2 0x4DE JUMP JUMPDEST PUSH2 0x1CD PUSH2 0x1C8 CALLDATASIZE PUSH1 0x4 PUSH2 0x1827 JUMP JUMPDEST PUSH2 0x5C3 JUMP JUMPDEST PUSH1 0x40 MLOAD PUSH2 0x121 SWAP2 SWAP1 PUSH2 0x1A76 JUMP JUMPDEST PUSH2 0x1A5 PUSH2 0x1E8 CALLDATASIZE PUSH1 0x4 PUSH2 0x171A JUMP JUMPDEST PUSH2 0x6ED JUMP JUMPDEST PUSH1 0x3 SLOAD PUSH2 0x200 SWAP1 PUSH1 0x1 PUSH1 0x1 PUSH1 0xA0 SHL SUB AND DUP2 JUMP JUMPDEST PUSH1 0x40 MLOAD PUSH1 0x1 PUSH1 0x1 PUSH1 0xA0 SHL SUB SWAP1 SWAP2 AND DUP2 MSTORE PUSH1 0x20 ADD PUSH2 0x121 JUMP JUMPDEST PUSH2 0x1A5 PUSH2 0x226 CALLDATASIZE PUSH1 0x4 PUSH2 0x178E JUMP JUMPDEST PUSH2 0x81F JUMP JUMPDEST PUSH2 0x13D PUSH2 0x239 CALLDATASIZE PUSH1 0x4 PUSH2 0x15D8 JUMP JUMPDEST PUSH1 0x1 PUSH1 0x1 PUSH1 0xA0 SHL SUB SWAP2 DUP3 AND PUSH1 0x0 SWAP1 DUP2 MSTORE PUSH1 0x1 PUSH1 0x20 SWAP1 DUP2 MSTORE PUSH1 0x40 DUP1 DUP4 KECCAK256 SWAP4 SWAP1 SWAP5 AND DUP3 MSTORE SWAP2 SWAP1 SWAP2 MSTORE KECCAK256 SLOAD PUSH1 0xFF AND SWAP1 JUMP JUMPDEST PUSH2 0x1A5 PUSH2 0x275 CALLDATASIZE PUSH1 0x4 PUSH2 0x16B5 JUMP JUMPDEST PUSH2 0x8F6 JUMP JUMPDEST PUSH2 0x117 PUSH2 0x288 CALLDATASIZE PUSH1 0x4 PUSH2 0x15BD JUMP JUMPDEST PUSH2 0x97D JUMP JUMPDEST PUSH2 0x1A5 PUSH2 0x29B CALLDATASIZE PUSH1 0x4 PUSH2 0x17F4 JUMP JUMPDEST PUSH2 0x99E JUMP JUMPDEST PUSH1 0x0 PUSH1 0x1 PUSH1 0x1 PUSH1 0xA0 SHL SUB DUP4 AND PUSH2 0x311 JUMPI PUSH1 0x40 MLOAD PUSH3 0x461BCD PUSH1 0xE5 SHL DUP2 MSTORE PUSH1 0x20 PUSH1 0x4 DUP3 ADD MSTORE PUSH1 0x2B PUSH1 0x24 DUP3 ADD MSTORE PUSH32 0x455243313135353A2062616C616E636520717565727920666F7220746865207A PUSH1 0x44 DUP3 ADD MSTORE PUSH11 0x65726F2061646472657373 PUSH1 0xA8 SHL PUSH1 0x64 DUP3 ADD MSTORE PUSH1 0x84 ADD JUMPDEST PUSH1 0x40 MLOAD DUP1 SWAP2 SUB SWAP1 REVERT JUMPDEST POP PUSH1 0x0 DUP2 DUP2 MSTORE PUSH1 0x20 DUP2 DUP2 MSTORE PUSH1 0x40 DUP1 DUP4 KECCAK256 PUSH1 0x1 PUSH1 0x1 PUSH1 0xA0 SHL SUB DUP7 AND DUP5 MSTORE SWAP1 SWAP2 MSTORE SWAP1 KECCAK256 SLOAD JUMPDEST SWAP3 SWAP2 POP POP JUMP JUMPDEST PUSH1 0x0 PUSH1 0x1 PUSH1 0x1 PUSH1 0xE0 SHL SUB NOT DUP3 AND PUSH4 0x6CDB3D13 PUSH1 0xE1 SHL EQ DUP1 PUSH2 0x36B JUMPI POP PUSH1 0x1 PUSH1 0x1 PUSH1 0xE0 SHL SUB NOT DUP3 AND PUSH4 0x3A24D07 PUSH1 0xE2 SHL EQ JUMPDEST DUP1 PUSH2 0x334 JUMPI POP PUSH4 0x1FFC9A7 PUSH1 0xE0 SHL PUSH1 0x1 PUSH1 0x1 PUSH1 0xE0 SHL SUB NOT DUP4 AND EQ PUSH2 0x334 JUMP JUMPDEST PUSH1 0x60 PUSH1 0x2 DUP1 SLOAD PUSH2 0x399 SWAP1 PUSH2 0x1CC3 JUMP JUMPDEST DUP1 PUSH1 0x1F ADD PUSH1 0x20 DUP1 SWAP2 DIV MUL PUSH1 0x20 ADD PUSH1 0x40 MLOAD SWAP1 DUP2 ADD PUSH1 0x40 MSTORE DUP1 SWAP3 SWAP2 SWAP1 DUP2 DUP2 MSTORE PUSH1 0x20 ADD DUP3 DUP1 SLOAD PUSH2 0x3C5 SWAP1 PUSH2 0x1CC3 JUMP JUMPDEST DUP1 ISZERO PUSH2 0x412 JUMPI DUP1 PUSH1 0x1F LT PUSH2 0x3E7 JUMPI PUSH2 0x100 DUP1 DUP4 SLOAD DIV MUL DUP4 MSTORE SWAP2 PUSH1 0x20 ADD SWAP2 PUSH2 0x412 JUMP JUMPDEST DUP3 ADD SWAP2 SWAP1 PUSH1 0x0 MSTORE PUSH1 0x20 PUSH1 0x0 KECCAK256 SWAP1 JUMPDEST DUP2 SLOAD DUP2 MSTORE SWAP1 PUSH1 0x1 ADD SWAP1 PUSH1 0x20 ADD DUP1 DUP4 GT PUSH2 0x3F5 JUMPI DUP3 SWAP1 SUB PUSH1 0x1F AND DUP3 ADD SWAP2 JUMPDEST POP POP POP POP POP SWAP1 POP SWAP2 SWAP1 POP JUMP JUMPDEST PUSH1 0x1 PUSH1 0x1 PUSH1 0xA0 SHL SUB DUP3 AND PUSH1 0x0 SWAP1 DUP2 MSTORE PUSH1 0x6 PUSH1 0x20 MSTORE PUSH1 0x40 DUP2 KECCAK256 PUSH2 0x440 SWAP1 DUP4 PUSH2 0xA5B JUMP JUMPDEST SWAP4 SWAP3 POP POP POP JUMP JUMPDEST PUSH1 0x1 PUSH1 0x1 PUSH1 0xA0 SHL SUB DUP6 AND CALLER EQ DUP1 PUSH2 0x463 JUMPI POP PUSH2 0x463 DUP6 CALLER PUSH2 0x239 JUMP JUMPDEST PUSH2 0x4CA JUMPI PUSH1 0x40 MLOAD PUSH3 0x461BCD PUSH1 0xE5 SHL DUP2 MSTORE PUSH1 0x20 PUSH1 0x4 DUP3 ADD MSTORE PUSH1 0x32 PUSH1 0x24 DUP3 ADD MSTORE PUSH32 0x455243313135353A207472616E736665722063616C6C6572206973206E6F7420 PUSH1 0x44 DUP3 ADD MSTORE PUSH18 0x1BDDDB995C881B9BDC88185C1C1C9BDD9959 PUSH1 0x72 SHL PUSH1 0x64 DUP3 ADD MSTORE PUSH1 0x84 ADD PUSH2 0x308 JUMP JUMPDEST PUSH2 0x4D7 DUP6 DUP6 DUP6 DUP6 DUP6 PUSH2 0xA67 JUMP JUMPDEST POP POP POP POP POP JUMP JUMPDEST PUSH1 0x3 SLOAD PUSH1 0x0 SWAP1 PUSH1 0x1 PUSH1 0x1 PUSH1 0xA0 SHL SUB AND CALLER EQ PUSH2 0x546 JUMPI PUSH1 0x40 MLOAD PUSH3 0x461BCD PUSH1 0xE5 SHL DUP2 MSTORE PUSH1 0x20 PUSH1 0x4 DUP3 ADD MSTORE PUSH1 0x22 PUSH1 0x24 DUP3 ADD MSTORE PUSH32 0x4552433131353545783A204D696E746572206973206E6F742074686520435552 PUSH1 0x44 DUP3 ADD MSTORE PUSH2 0x5645 PUSH1 0xF0 SHL PUSH1 0x64 DUP3 ADD MSTORE PUSH1 0x84 ADD PUSH2 0x308 JUMP JUMPDEST PUSH1 0x1 PUSH1 0x5 PUSH1 0x0 DUP3 DUP3 SLOAD PUSH2 0x559 SWAP2 SWAP1 PUSH2 0x1C94 JUMP JUMPDEST SWAP3 POP POP DUP2 SWAP1 SSTORE POP PUSH2 0x57D DUP4 PUSH1 0x5 SLOAD DUP5 PUSH1 0x40 MLOAD DUP1 PUSH1 0x20 ADD PUSH1 0x40 MSTORE DUP1 PUSH1 0x0 DUP2 MSTORE POP PUSH2 0xC03 JUMP JUMPDEST DUP2 PUSH1 0x4 PUSH1 0x0 DUP3 DUP3 SLOAD PUSH2 0x58F SWAP2 SWAP1 PUSH2 0x1C94 JUMP JUMPDEST SWAP1 SWAP2 SSTORE POP POP PUSH1 0x5 SLOAD PUSH1 0x1 PUSH1 0x1 PUSH1 0xA0 SHL SUB DUP5 AND PUSH1 0x0 SWAP1 DUP2 MSTORE PUSH1 0x6 PUSH1 0x20 MSTORE PUSH1 0x40 SWAP1 KECCAK256 PUSH2 0x5B8 SWAP2 PUSH2 0xD0D JUMP JUMPDEST POP POP PUSH1 0x5 SLOAD SWAP3 SWAP2 POP POP JUMP JUMPDEST PUSH1 0x60 DUP2 MLOAD DUP4 MLOAD EQ PUSH2 0x628 JUMPI PUSH1 0x40 MLOAD PUSH3 0x461BCD PUSH1 0xE5 SHL DUP2 MSTORE PUSH1 0x20 PUSH1 0x4 DUP3 ADD MSTORE PUSH1 0x29 PUSH1 0x24 DUP3 ADD MSTORE PUSH32 0x455243313135353A206163636F756E747320616E6420696473206C656E677468 PUSH1 0x44 DUP3 ADD MSTORE PUSH9 0x40DAD2E6DAC2E8C6D PUSH1 0xBB SHL PUSH1 0x64 DUP3 ADD MSTORE PUSH1 0x84 ADD PUSH2 0x308 JUMP JUMPDEST PUSH1 0x0 DUP4 MLOAD PUSH8 0xFFFFFFFFFFFFFFFF DUP2 GT ISZERO PUSH2 0x644 JUMPI PUSH2 0x644 PUSH2 0x1D88 JUMP JUMPDEST PUSH1 0x40 MLOAD SWAP1 DUP1 DUP3 MSTORE DUP1 PUSH1 0x20 MUL PUSH1 0x20 ADD DUP3 ADD PUSH1 0x40 MSTORE DUP1 ISZERO PUSH2 0x66D JUMPI DUP2 PUSH1 0x20 ADD PUSH1 0x20 DUP3 MUL DUP1 CALLDATASIZE DUP4 CALLDATACOPY ADD SWAP1 POP JUMPDEST POP SWAP1 POP PUSH1 0x0 JUMPDEST DUP5 MLOAD DUP2 LT ISZERO PUSH2 0x6E5 JUMPI PUSH2 0x6B8 DUP6 DUP3 DUP2 MLOAD DUP2 LT PUSH2 0x691 JUMPI PUSH2 0x691 PUSH2 0x1D72 JUMP JUMPDEST PUSH1 0x20 MUL PUSH1 0x20 ADD ADD MLOAD DUP6 DUP4 DUP2 MLOAD DUP2 LT PUSH2 0x6AB JUMPI PUSH2 0x6AB PUSH2 0x1D72 JUMP JUMPDEST PUSH1 0x20 MUL PUSH1 0x20 ADD ADD MLOAD PUSH2 0x2A0 JUMP JUMPDEST DUP3 DUP3 DUP2 MLOAD DUP2 LT PUSH2 0x6CA JUMPI PUSH2 0x6CA PUSH2 0x1D72 JUMP JUMPDEST PUSH1 0x20 SWAP1 DUP2 MUL SWAP2 SWAP1 SWAP2 ADD ADD MSTORE PUSH2 0x6DE DUP2 PUSH2 0x1D2B JUMP JUMPDEST SWAP1 POP PUSH2 0x673 JUMP JUMPDEST POP SWAP4 SWAP3 POP POP POP JUMP JUMPDEST PUSH1 0x3 SLOAD PUSH1 0x1 PUSH1 0x1 PUSH1 0xA0 SHL SUB AND CALLER EQ PUSH2 0x752 JUMPI PUSH1 0x40 MLOAD PUSH3 0x461BCD PUSH1 0xE5 SHL DUP2 MSTORE PUSH1 0x20 PUSH1 0x4 DUP3 ADD MSTORE PUSH1 0x22 PUSH1 0x24 DUP3 ADD MSTORE PUSH32 0x4552433131353545783A204D696E746572206973206E6F742074686520637572 PUSH1 0x44 DUP3 ADD MSTORE PUSH2 0x7665 PUSH1 0xF0 SHL PUSH1 0x64 DUP3 ADD MSTORE PUSH1 0x84 ADD PUSH2 0x308 JUMP JUMPDEST PUSH2 0x75D DUP4 DUP4 DUP4 PUSH2 0xD19 JUMP JUMPDEST PUSH1 0x0 JUMPDEST DUP3 MLOAD DUP2 LT ISZERO PUSH2 0x819 JUMPI DUP2 DUP2 DUP2 MLOAD DUP2 LT PUSH2 0x77B JUMPI PUSH2 0x77B PUSH2 0x1D72 JUMP JUMPDEST PUSH1 0x20 MUL PUSH1 0x20 ADD ADD MLOAD PUSH1 0x4 PUSH1 0x0 DUP3 DUP3 SLOAD PUSH2 0x794 SWAP2 SWAP1 PUSH2 0x1CAC JUMP JUMPDEST SWAP3 POP POP DUP2 SWAP1 SSTORE POP PUSH2 0x7B1 DUP5 DUP5 DUP4 DUP2 MLOAD DUP2 LT PUSH2 0x6AB JUMPI PUSH2 0x6AB PUSH2 0x1D72 JUMP JUMPDEST PUSH2 0x807 JUMPI PUSH2 0x805 DUP4 DUP3 DUP2 MLOAD DUP2 LT PUSH2 0x7CA JUMPI PUSH2 0x7CA PUSH2 0x1D72 JUMP JUMPDEST PUSH1 0x20 MUL PUSH1 0x20 ADD ADD MLOAD PUSH1 0x6 PUSH1 0x0 DUP8 PUSH1 0x1 PUSH1 0x1 PUSH1 0xA0 SHL SUB AND PUSH1 0x1 PUSH1 0x1 PUSH1 0xA0 SHL SUB AND DUP2 MSTORE PUSH1 0x20 ADD SWAP1 DUP2 MSTORE PUSH1 0x20 ADD PUSH1 0x0 KECCAK256 PUSH2 0xE95 SWAP1 SWAP2 SWAP1 PUSH4 0xFFFFFFFF AND JUMP JUMPDEST POP JUMPDEST DUP1 PUSH2 0x811 DUP2 PUSH2 0x1D2B JUMP JUMPDEST SWAP2 POP POP PUSH2 0x760 JUMP JUMPDEST POP POP POP POP JUMP JUMPDEST CALLER PUSH1 0x1 PUSH1 0x1 PUSH1 0xA0 SHL SUB DUP4 AND EQ ISZERO PUSH2 0x88A JUMPI PUSH1 0x40 MLOAD PUSH3 0x461BCD PUSH1 0xE5 SHL DUP2 MSTORE PUSH1 0x20 PUSH1 0x4 DUP3 ADD MSTORE PUSH1 0x29 PUSH1 0x24 DUP3 ADD MSTORE PUSH32 0x455243313135353A2073657474696E6720617070726F76616C20737461747573 PUSH1 0x44 DUP3 ADD MSTORE PUSH9 0x103337B91039B2B633 PUSH1 0xB9 SHL PUSH1 0x64 DUP3 ADD MSTORE PUSH1 0x84 ADD PUSH2 0x308 JUMP JUMPDEST CALLER PUSH1 0x0 DUP2 DUP2 MSTORE PUSH1 0x1 PUSH1 0x20 SWAP1 DUP2 MSTORE PUSH1 0x40 DUP1 DUP4 KECCAK256 PUSH1 0x1 PUSH1 0x1 PUSH1 0xA0 SHL SUB DUP8 AND DUP1 DUP6 MSTORE SWAP1 DUP4 MSTORE SWAP3 DUP2 SWAP1 KECCAK256 DUP1 SLOAD PUSH1 0xFF NOT AND DUP7 ISZERO ISZERO SWAP1 DUP2 OR SWAP1 SWAP2 SSTORE SWAP1 MLOAD SWAP1 DUP2 MSTORE SWAP2 SWAP3 SWAP2 PUSH32 0x17307EAB39AB6107E8899845AD3D59BD9653F200F220920489CA2B5937696C31 SWAP2 ADD PUSH1 0x40 MLOAD DUP1 SWAP2 SUB SWAP1 LOG3 POP POP JUMP JUMPDEST PUSH1 0x1 PUSH1 0x1 PUSH1 0xA0 SHL SUB DUP6 AND CALLER EQ DUP1 PUSH2 0x912 JUMPI POP PUSH2 0x912 DUP6 CALLER PUSH2 0x239 JUMP JUMPDEST PUSH2 0x970 JUMPI PUSH1 0x40 MLOAD PUSH3 0x461BCD PUSH1 0xE5 SHL DUP2 MSTORE PUSH1 0x20 PUSH1 0x4 DUP3 ADD MSTORE PUSH1 0x29 PUSH1 0x24 DUP3 ADD MSTORE PUSH32 0x455243313135353A2063616C6C6572206973206E6F74206F776E6572206E6F72 PUSH1 0x44 DUP3 ADD MSTORE PUSH9 0x8185C1C1C9BDD9959 PUSH1 0xBA SHL PUSH1 0x64 DUP3 ADD MSTORE PUSH1 0x84 ADD PUSH2 0x308 JUMP JUMPDEST PUSH2 0x4D7 DUP6 DUP6 DUP6 DUP6 DUP6 PUSH2 0xEA1 JUMP JUMPDEST PUSH1 0x1 PUSH1 0x1 PUSH1 0xA0 SHL SUB DUP2 AND PUSH1 0x0 SWAP1 DUP2 MSTORE PUSH1 0x6 PUSH1 0x20 MSTORE PUSH1 0x40 DUP2 KECCAK256 PUSH2 0x334 SWAP1 PUSH2 0xFBE JUMP JUMPDEST PUSH1 0x3 SLOAD PUSH1 0x1 PUSH1 0x1 PUSH1 0xA0 SHL SUB AND CALLER EQ PUSH2 0xA03 JUMPI PUSH1 0x40 MLOAD PUSH3 0x461BCD PUSH1 0xE5 SHL DUP2 MSTORE PUSH1 0x20 PUSH1 0x4 DUP3 ADD MSTORE PUSH1 0x22 PUSH1 0x24 DUP3 ADD MSTORE PUSH32 0x4552433131353545783A206D696E746572206973206E6F742074686520637572 PUSH1 0x44 DUP3 ADD MSTORE PUSH2 0x7665 PUSH1 0xF0 SHL PUSH1 0x64 DUP3 ADD MSTORE PUSH1 0x84 ADD PUSH2 0x308 JUMP JUMPDEST PUSH2 0xA0E DUP4 DUP4 DUP4 PUSH2 0xFC8 JUMP JUMPDEST DUP1 PUSH1 0x4 PUSH1 0x0 DUP3 DUP3 SLOAD PUSH2 0xA20 SWAP2 SWAP1 PUSH2 0x1CAC JUMP JUMPDEST SWAP1 SWAP2 SSTORE POP PUSH2 0xA30 SWAP1 POP DUP4 DUP4 PUSH2 0x2A0 JUMP JUMPDEST PUSH2 0xA56 JUMPI PUSH1 0x1 PUSH1 0x1 PUSH1 0xA0 SHL SUB DUP4 AND PUSH1 0x0 SWAP1 DUP2 MSTORE PUSH1 0x6 PUSH1 0x20 MSTORE PUSH1 0x40 SWAP1 KECCAK256 PUSH2 0x819 SWAP1 DUP4 PUSH2 0xE95 JUMP JUMPDEST POP POP POP JUMP JUMPDEST PUSH1 0x0 PUSH2 0x440 DUP4 DUP4 PUSH2 0x10CA JUMP JUMPDEST DUP2 MLOAD DUP4 MLOAD EQ PUSH2 0xA88 JUMPI PUSH1 0x40 MLOAD PUSH3 0x461BCD PUSH1 0xE5 SHL DUP2 MSTORE PUSH1 0x4 ADD PUSH2 0x308 SWAP1 PUSH2 0x1C28 JUMP JUMPDEST PUSH1 0x1 PUSH1 0x1 PUSH1 0xA0 SHL SUB DUP5 AND PUSH2 0xAAE JUMPI PUSH1 0x40 MLOAD PUSH3 0x461BCD PUSH1 0xE5 SHL DUP2 MSTORE PUSH1 0x4 ADD PUSH2 0x308 SWAP1 PUSH2 0x1B56 JUMP JUMPDEST CALLER PUSH1 0x0 JUMPDEST DUP5 MLOAD DUP2 LT ISZERO PUSH2 0xB95 JUMPI PUSH1 0x0 DUP6 DUP3 DUP2 MLOAD DUP2 LT PUSH2 0xACF JUMPI PUSH2 0xACF PUSH2 0x1D72 JUMP JUMPDEST PUSH1 0x20 MUL PUSH1 0x20 ADD ADD MLOAD SWAP1 POP PUSH1 0x0 DUP6 DUP4 DUP2 MLOAD DUP2 LT PUSH2 0xAED JUMPI PUSH2 0xAED PUSH2 0x1D72 JUMP JUMPDEST PUSH1 0x20 SWAP1 DUP2 MUL SWAP2 SWAP1 SWAP2 ADD DUP2 ADD MLOAD PUSH1 0x0 DUP5 DUP2 MSTORE DUP1 DUP4 MSTORE PUSH1 0x40 DUP1 DUP3 KECCAK256 PUSH1 0x1 PUSH1 0x1 PUSH1 0xA0 SHL SUB DUP15 AND DUP4 MSTORE SWAP1 SWAP4 MSTORE SWAP2 SWAP1 SWAP2 KECCAK256 SLOAD SWAP1 SWAP2 POP DUP2 DUP2 LT ISZERO PUSH2 0xB3D JUMPI PUSH1 0x40 MLOAD PUSH3 0x461BCD PUSH1 0xE5 SHL DUP2 MSTORE PUSH1 0x4 ADD PUSH2 0x308 SWAP1 PUSH2 0x1BDE JUMP JUMPDEST PUSH1 0x0 DUP4 DUP2 MSTORE PUSH1 0x20 DUP2 DUP2 MSTORE PUSH1 0x40 DUP1 DUP4 KECCAK256 PUSH1 0x1 PUSH1 0x1 PUSH1 0xA0 SHL SUB DUP15 DUP2 AND DUP6 MSTORE SWAP3 MSTORE DUP1 DUP4 KECCAK256 DUP6 DUP6 SUB SWAP1 SSTORE SWAP1 DUP12 AND DUP3 MSTORE DUP2 KECCAK256 DUP1 SLOAD DUP5 SWAP3 SWAP1 PUSH2 0xB7A SWAP1 DUP5 SWAP1 PUSH2 0x1C94 JUMP JUMPDEST SWAP3 POP POP DUP2 SWAP1 SSTORE POP POP POP POP DUP1 PUSH2 0xB8E SWAP1 PUSH2 0x1D2B JUMP JUMPDEST SWAP1 POP PUSH2 0xAB2 JUMP JUMPDEST POP DUP5 PUSH1 0x1 PUSH1 0x1 PUSH1 0xA0 SHL SUB AND DUP7 PUSH1 0x1 PUSH1 0x1 PUSH1 0xA0 SHL SUB AND DUP3 PUSH1 0x1 PUSH1 0x1 PUSH1 0xA0 SHL SUB AND PUSH32 0x4A39DC06D4C0DBC64B70AF90FD698A233A518AA5D07E595D983B8C0526C8F7FB DUP8 DUP8 PUSH1 0x40 MLOAD PUSH2 0xBE5 SWAP3 SWAP2 SWAP1 PUSH2 0x1A89 JUMP JUMPDEST PUSH1 0x40 MLOAD DUP1 SWAP2 SUB SWAP1 LOG4 PUSH2 0xBFB DUP2 DUP8 DUP8 DUP8 DUP8 DUP8 PUSH2 0x10F4 JUMP JUMPDEST POP POP POP POP POP POP JUMP JUMPDEST PUSH1 0x1 PUSH1 0x1 PUSH1 0xA0 SHL SUB DUP5 AND PUSH2 0xC63 JUMPI PUSH1 0x40 MLOAD PUSH3 0x461BCD PUSH1 0xE5 SHL DUP2 MSTORE PUSH1 0x20 PUSH1 0x4 DUP3 ADD MSTORE PUSH1 0x21 PUSH1 0x24 DUP3 ADD MSTORE PUSH32 0x455243313135353A206D696E7420746F20746865207A65726F20616464726573 PUSH1 0x44 DUP3 ADD MSTORE PUSH1 0x73 PUSH1 0xF8 SHL PUSH1 0x64 DUP3 ADD MSTORE PUSH1 0x84 ADD PUSH2 0x308 JUMP JUMPDEST CALLER PUSH2 0xC7D DUP2 PUSH1 0x0 DUP8 PUSH2 0xC74 DUP9 PUSH2 0x125F JUMP JUMPDEST PUSH2 0x4D7 DUP9 PUSH2 0x125F JUMP JUMPDEST PUSH1 0x0 DUP5 DUP2 MSTORE PUSH1 0x20 DUP2 DUP2 MSTORE PUSH1 0x40 DUP1 DUP4 KECCAK256 PUSH1 0x1 PUSH1 0x1 PUSH1 0xA0 SHL SUB DUP10 AND DUP5 MSTORE SWAP1 SWAP2 MSTORE DUP2 KECCAK256 DUP1 SLOAD DUP6 SWAP3 SWAP1 PUSH2 0xCAD SWAP1 DUP5 SWAP1 PUSH2 0x1C94 JUMP JUMPDEST SWAP1 SWAP2 SSTORE POP POP PUSH1 0x40 DUP1 MLOAD DUP6 DUP2 MSTORE PUSH1 0x20 DUP2 ADD DUP6 SWAP1 MSTORE PUSH1 0x1 PUSH1 0x1 PUSH1 0xA0 SHL SUB DUP1 DUP9 AND SWAP3 PUSH1 0x0 SWAP3 SWAP2 DUP6 AND SWAP2 PUSH32 0xC3D58168C5AE7397731D063D5BBF3D657854427343F4C083240F7AACAA2D0F62 SWAP2 ADD PUSH1 0x40 MLOAD DUP1 SWAP2 SUB SWAP1 LOG4 PUSH2 0x4D7 DUP2 PUSH1 0x0 DUP8 DUP8 DUP8 DUP8 PUSH2 0x12AA JUMP JUMPDEST PUSH1 0x0 PUSH2 0x440 DUP4 DUP4 PUSH2 0x1374 JUMP JUMPDEST PUSH1 0x1 PUSH1 0x1 PUSH1 0xA0 SHL SUB DUP4 AND PUSH2 0xD3F JUMPI PUSH1 0x40 MLOAD PUSH3 0x461BCD PUSH1 0xE5 SHL DUP2 MSTORE PUSH1 0x4 ADD PUSH2 0x308 SWAP1 PUSH2 0x1B9B JUMP JUMPDEST DUP1 MLOAD DUP3 MLOAD EQ PUSH2 0xD60 JUMPI PUSH1 0x40 MLOAD PUSH3 0x461BCD PUSH1 0xE5 SHL DUP2 MSTORE PUSH1 0x4 ADD PUSH2 0x308 SWAP1 PUSH2 0x1C28 JUMP JUMPDEST PUSH1 0x40 DUP1 MLOAD PUSH1 0x20 DUP2 ADD SWAP1 SWAP2 MSTORE PUSH1 0x0 SWAP1 DUP2 SWAP1 MSTORE CALLER SWAP1 JUMPDEST DUP4 MLOAD DUP2 LT ISZERO PUSH2 0xE36 JUMPI PUSH1 0x0 DUP5 DUP3 DUP2 MLOAD DUP2 LT PUSH2 0xD91 JUMPI PUSH2 0xD91 PUSH2 0x1D72 JUMP JUMPDEST PUSH1 0x20 MUL PUSH1 0x20 ADD ADD MLOAD SWAP1 POP PUSH1 0x0 DUP5 DUP4 DUP2 MLOAD DUP2 LT PUSH2 0xDAF JUMPI PUSH2 0xDAF PUSH2 0x1D72 JUMP JUMPDEST PUSH1 0x20 SWAP1 DUP2 MUL SWAP2 SWAP1 SWAP2 ADD DUP2 ADD MLOAD PUSH1 0x0 DUP5 DUP2 MSTORE DUP1 DUP4 MSTORE PUSH1 0x40 DUP1 DUP3 KECCAK256 PUSH1 0x1 PUSH1 0x1 PUSH1 0xA0 SHL SUB DUP13 AND DUP4 MSTORE SWAP1 SWAP4 MSTORE SWAP2 SWAP1 SWAP2 KECCAK256 SLOAD SWAP1 SWAP2 POP DUP2 DUP2 LT ISZERO PUSH2 0xDFF JUMPI PUSH1 0x40 MLOAD PUSH3 0x461BCD PUSH1 0xE5 SHL DUP2 MSTORE PUSH1 0x4 ADD PUSH2 0x308 SWAP1 PUSH2 0x1B12 JUMP JUMPDEST PUSH1 0x0 SWAP3 DUP4 MSTORE PUSH1 0x20 DUP4 DUP2 MSTORE PUSH1 0x40 DUP1 DUP6 KECCAK256 PUSH1 0x1 PUSH1 0x1 PUSH1 0xA0 SHL SUB DUP12 AND DUP7 MSTORE SWAP1 SWAP2 MSTORE SWAP1 SWAP3 KECCAK256 SWAP2 SUB SWAP1 SSTORE DUP1 PUSH2 0xE2E DUP2 PUSH2 0x1D2B JUMP JUMPDEST SWAP2 POP POP PUSH2 0xD74 JUMP JUMPDEST POP PUSH1 0x0 PUSH1 0x1 PUSH1 0x1 PUSH1 0xA0 SHL SUB AND DUP5 PUSH1 0x1 PUSH1 0x1 PUSH1 0xA0 SHL SUB AND DUP3 PUSH1 0x1 PUSH1 0x1 PUSH1 0xA0 SHL SUB AND PUSH32 0x4A39DC06D4C0DBC64B70AF90FD698A233A518AA5D07E595D983B8C0526C8F7FB DUP7 DUP7 PUSH1 0x40 MLOAD PUSH2 0xE87 SWAP3 SWAP2 SWAP1 PUSH2 0x1A89 JUMP JUMPDEST PUSH1 0x40 MLOAD DUP1 SWAP2 SUB SWAP1 LOG4 POP POP POP POP JUMP JUMPDEST PUSH1 0x0 PUSH2 0x440 DUP4 DUP4 PUSH2 0x13C3 JUMP JUMPDEST PUSH1 0x1 PUSH1 0x1 PUSH1 0xA0 SHL SUB DUP5 AND PUSH2 0xEC7 JUMPI PUSH1 0x40 MLOAD PUSH3 0x461BCD PUSH1 0xE5 SHL DUP2 MSTORE PUSH1 0x4 ADD PUSH2 0x308 SWAP1 PUSH2 0x1B56 JUMP JUMPDEST CALLER PUSH2 0xED7 DUP2 DUP8 DUP8 PUSH2 0xC74 DUP9 PUSH2 0x125F JUMP JUMPDEST PUSH1 0x0 DUP5 DUP2 MSTORE PUSH1 0x20 DUP2 DUP2 MSTORE PUSH1 0x40 DUP1 DUP4 KECCAK256 PUSH1 0x1 PUSH1 0x1 PUSH1 0xA0 SHL SUB DUP11 AND DUP5 MSTORE SWAP1 SWAP2 MSTORE SWAP1 KECCAK256 SLOAD DUP4 DUP2 LT ISZERO PUSH2 0xF18 JUMPI PUSH1 0x40 MLOAD PUSH3 0x461BCD PUSH1 0xE5 SHL DUP2 MSTORE PUSH1 0x4 ADD PUSH2 0x308 SWAP1 PUSH2 0x1BDE JUMP JUMPDEST PUSH1 0x0 DUP6 DUP2 MSTORE PUSH1 0x20 DUP2 DUP2 MSTORE PUSH1 0x40 DUP1 DUP4 KECCAK256 PUSH1 0x1 PUSH1 0x1 PUSH1 0xA0 SHL SUB DUP12 DUP2 AND DUP6 MSTORE SWAP3 MSTORE DUP1 DUP4 KECCAK256 DUP8 DUP6 SUB SWAP1 SSTORE SWAP1 DUP9 AND DUP3 MSTORE DUP2 KECCAK256 DUP1 SLOAD DUP7 SWAP3 SWAP1 PUSH2 0xF55 SWAP1 DUP5 SWAP1 PUSH2 0x1C94 JUMP JUMPDEST SWAP1 SWAP2 SSTORE POP POP PUSH1 0x40 DUP1 MLOAD DUP7 DUP2 MSTORE PUSH1 0x20 DUP2 ADD DUP7 SWAP1 MSTORE PUSH1 0x1 PUSH1 0x1 PUSH1 0xA0 SHL SUB DUP1 DUP10 AND SWAP3 DUP11 DUP3 AND SWAP3 SWAP2 DUP7 AND SWAP2 PUSH32 0xC3D58168C5AE7397731D063D5BBF3D657854427343F4C083240F7AACAA2D0F62 SWAP2 ADD PUSH1 0x40 MLOAD DUP1 SWAP2 SUB SWAP1 LOG4 PUSH2 0xFB5 DUP3 DUP9 DUP9 DUP9 DUP9 DUP9 PUSH2 0x12AA JUMP JUMPDEST POP POP POP POP POP POP POP JUMP JUMPDEST PUSH1 0x0 PUSH2 0x334 DUP3 SLOAD SWAP1 JUMP JUMPDEST PUSH1 0x1 PUSH1 0x1 PUSH1 0xA0 SHL SUB DUP4 AND PUSH2 0xFEE JUMPI PUSH1 0x40 MLOAD PUSH3 0x461BCD PUSH1 0xE5 SHL DUP2 MSTORE PUSH1 0x4 ADD PUSH2 0x308 SWAP1 PUSH2 0x1B9B JUMP JUMPDEST CALLER PUSH2 0x101E DUP2 DUP6 PUSH1 0x0 PUSH2 0xFFF DUP8 PUSH2 0x125F JUMP JUMPDEST PUSH2 0x1008 DUP8 PUSH2 0x125F JUMP JUMPDEST POP POP PUSH1 0x40 DUP1 MLOAD PUSH1 0x20 DUP2 ADD SWAP1 SWAP2 MSTORE PUSH1 0x0 SWAP1 MSTORE POP POP POP JUMP JUMPDEST PUSH1 0x0 DUP4 DUP2 MSTORE PUSH1 0x20 DUP2 DUP2 MSTORE PUSH1 0x40 DUP1 DUP4 KECCAK256 PUSH1 0x1 PUSH1 0x1 PUSH1 0xA0 SHL SUB DUP9 AND DUP5 MSTORE SWAP1 SWAP2 MSTORE SWAP1 KECCAK256 SLOAD DUP3 DUP2 LT ISZERO PUSH2 0x105F JUMPI PUSH1 0x40 MLOAD PUSH3 0x461BCD PUSH1 0xE5 SHL DUP2 MSTORE PUSH1 0x4 ADD PUSH2 0x308 SWAP1 PUSH2 0x1B12 JUMP JUMPDEST PUSH1 0x0 DUP5 DUP2 MSTORE PUSH1 0x20 DUP2 DUP2 MSTORE PUSH1 0x40 DUP1 DUP4 KECCAK256 PUSH1 0x1 PUSH1 0x1 PUSH1 0xA0 SHL SUB DUP10 DUP2 AND DUP1 DUP7 MSTORE SWAP2 DUP5 MSTORE DUP3 DUP6 KECCAK256 DUP9 DUP8 SUB SWAP1 SSTORE DUP3 MLOAD DUP10 DUP2 MSTORE SWAP4 DUP5 ADD DUP9 SWAP1 MSTORE SWAP1 SWAP3 SWAP1 DUP7 AND SWAP2 PUSH32 0xC3D58168C5AE7397731D063D5BBF3D657854427343F4C083240F7AACAA2D0F62 SWAP2 ADD PUSH1 0x40 MLOAD DUP1 SWAP2 SUB SWAP1 LOG4 POP POP POP POP POP JUMP JUMPDEST PUSH1 0x0 DUP3 PUSH1 0x0 ADD DUP3 DUP2 SLOAD DUP2 LT PUSH2 0x10E1 JUMPI PUSH2 0x10E1 PUSH2 0x1D72 JUMP JUMPDEST SWAP1 PUSH1 0x0 MSTORE PUSH1 0x20 PUSH1 0x0 KECCAK256 ADD SLOAD SWAP1 POP SWAP3 SWAP2 POP POP JUMP JUMPDEST PUSH1 0x1 PUSH1 0x1 PUSH1 0xA0 SHL SUB DUP5 AND EXTCODESIZE ISZERO PUSH2 0xBFB JUMPI PUSH1 0x40 MLOAD PUSH4 0xBC197C81 PUSH1 0xE0 SHL DUP2 MSTORE PUSH1 0x1 PUSH1 0x1 PUSH1 0xA0 SHL SUB DUP6 AND SWAP1 PUSH4 0xBC197C81 SWAP1 PUSH2 0x1138 SWAP1 DUP10 SWAP1 DUP10 SWAP1 DUP9 SWAP1 DUP9 SWAP1 DUP9 SWAP1 PUSH1 0x4 ADD PUSH2 0x19D3 JUMP JUMPDEST PUSH1 0x20 PUSH1 0x40 MLOAD DUP1 DUP4 SUB DUP2 PUSH1 0x0 DUP8 DUP1 EXTCODESIZE ISZERO DUP1 ISZERO PUSH2 0x1152 JUMPI PUSH1 0x0 DUP1 REVERT JUMPDEST POP GAS CALL SWAP3 POP POP POP DUP1 ISZERO PUSH2 0x1182 JUMPI POP PUSH1 0x40 DUP1 MLOAD PUSH1 0x1F RETURNDATASIZE SWAP1 DUP2 ADD PUSH1 0x1F NOT AND DUP3 ADD SWAP1 SWAP3 MSTORE PUSH2 0x117F SWAP2 DUP2 ADD SWAP1 PUSH2 0x1915 JUMP JUMPDEST PUSH1 0x1 JUMPDEST PUSH2 0x122F JUMPI PUSH2 0x118E PUSH2 0x1D9E JUMP JUMPDEST DUP1 PUSH4 0x8C379A0 EQ ISZERO PUSH2 0x11C8 JUMPI POP PUSH2 0x11A3 PUSH2 0x1DBA JUMP JUMPDEST DUP1 PUSH2 0x11AE JUMPI POP PUSH2 0x11CA JUMP JUMPDEST DUP1 PUSH1 0x40 MLOAD PUSH3 0x461BCD PUSH1 0xE5 SHL DUP2 MSTORE PUSH1 0x4 ADD PUSH2 0x308 SWAP2 SWAP1 PUSH2 0x1AB7 JUMP JUMPDEST POP JUMPDEST PUSH1 0x40 MLOAD PUSH3 0x461BCD PUSH1 0xE5 SHL DUP2 MSTORE PUSH1 0x20 PUSH1 0x4 DUP3 ADD MSTORE PUSH1 0x34 PUSH1 0x24 DUP3 ADD MSTORE PUSH32 0x455243313135353A207472616E7366657220746F206E6F6E2045524331313535 PUSH1 0x44 DUP3 ADD MSTORE PUSH20 0x2932B1B2B4BB32B91034B6B83632B6B2B73A32B9 PUSH1 0x61 SHL PUSH1 0x64 DUP3 ADD MSTORE PUSH1 0x84 ADD PUSH2 0x308 JUMP JUMPDEST PUSH1 0x1 PUSH1 0x1 PUSH1 0xE0 SHL SUB NOT DUP2 AND PUSH4 0xBC197C81 PUSH1 0xE0 SHL EQ PUSH2 0xFB5 JUMPI PUSH1 0x40 MLOAD PUSH3 0x461BCD PUSH1 0xE5 SHL DUP2 MSTORE PUSH1 0x4 ADD PUSH2 0x308 SWAP1 PUSH2 0x1ACA JUMP JUMPDEST PUSH1 0x40 DUP1 MLOAD PUSH1 0x1 DUP1 DUP3 MSTORE DUP2 DUP4 ADD SWAP1 SWAP3 MSTORE PUSH1 0x60 SWAP2 PUSH1 0x0 SWAP2 SWAP1 PUSH1 0x20 DUP1 DUP4 ADD SWAP1 DUP1 CALLDATASIZE DUP4 CALLDATACOPY ADD SWAP1 POP POP SWAP1 POP DUP3 DUP2 PUSH1 0x0 DUP2 MLOAD DUP2 LT PUSH2 0x1299 JUMPI PUSH2 0x1299 PUSH2 0x1D72 JUMP JUMPDEST PUSH1 0x20 SWAP1 DUP2 MUL SWAP2 SWAP1 SWAP2 ADD ADD MSTORE SWAP3 SWAP2 POP POP JUMP JUMPDEST PUSH1 0x1 PUSH1 0x1 PUSH1 0xA0 SHL SUB DUP5 AND EXTCODESIZE ISZERO PUSH2 0xBFB JUMPI PUSH1 0x40 MLOAD PUSH4 0xF23A6E61 PUSH1 0xE0 SHL DUP2 MSTORE PUSH1 0x1 PUSH1 0x1 PUSH1 0xA0 SHL SUB DUP6 AND SWAP1 PUSH4 0xF23A6E61 SWAP1 PUSH2 0x12EE SWAP1 DUP10 SWAP1 DUP10 SWAP1 DUP9 SWAP1 DUP9 SWAP1 DUP9 SWAP1 PUSH1 0x4 ADD PUSH2 0x1A31 JUMP JUMPDEST PUSH1 0x20 PUSH1 0x40 MLOAD DUP1 DUP4 SUB DUP2 PUSH1 0x0 DUP8 DUP1 EXTCODESIZE ISZERO DUP1 ISZERO PUSH2 0x1308 JUMPI PUSH1 0x0 DUP1 REVERT JUMPDEST POP GAS CALL SWAP3 POP POP POP DUP1 ISZERO PUSH2 0x1338 JUMPI POP PUSH1 0x40 DUP1 MLOAD PUSH1 0x1F RETURNDATASIZE SWAP1 DUP2 ADD PUSH1 0x1F NOT AND DUP3 ADD SWAP1 SWAP3 MSTORE PUSH2 0x1335 SWAP2 DUP2 ADD SWAP1 PUSH2 0x1915 JUMP JUMPDEST PUSH1 0x1 JUMPDEST PUSH2 0x1344 JUMPI PUSH2 0x118E PUSH2 0x1D9E JUMP JUMPDEST PUSH1 0x1 PUSH1 0x1 PUSH1 0xE0 SHL SUB NOT DUP2 AND PUSH4 0xF23A6E61 PUSH1 0xE0 SHL EQ PUSH2 0xFB5 JUMPI PUSH1 0x40 MLOAD PUSH3 0x461BCD PUSH1 0xE5 SHL DUP2 MSTORE PUSH1 0x4 ADD PUSH2 0x308 SWAP1 PUSH2 0x1ACA JUMP JUMPDEST PUSH1 0x0 DUP2 DUP2 MSTORE PUSH1 0x1 DUP4 ADD PUSH1 0x20 MSTORE PUSH1 0x40 DUP2 KECCAK256 SLOAD PUSH2 0x13BB JUMPI POP DUP2 SLOAD PUSH1 0x1 DUP2 DUP2 ADD DUP5 SSTORE PUSH1 0x0 DUP5 DUP2 MSTORE PUSH1 0x20 DUP1 DUP3 KECCAK256 SWAP1 SWAP4 ADD DUP5 SWAP1 SSTORE DUP5 SLOAD DUP5 DUP3 MSTORE DUP3 DUP7 ADD SWAP1 SWAP4 MSTORE PUSH1 0x40 SWAP1 KECCAK256 SWAP2 SWAP1 SWAP2 SSTORE PUSH2 0x334 JUMP JUMPDEST POP PUSH1 0x0 PUSH2 0x334 JUMP JUMPDEST PUSH1 0x0 DUP2 DUP2 MSTORE PUSH1 0x1 DUP4 ADD PUSH1 0x20 MSTORE PUSH1 0x40 DUP2 KECCAK256 SLOAD DUP1 ISZERO PUSH2 0x14AC JUMPI PUSH1 0x0 PUSH2 0x13E7 PUSH1 0x1 DUP4 PUSH2 0x1CAC JUMP JUMPDEST DUP6 SLOAD SWAP1 SWAP2 POP PUSH1 0x0 SWAP1 PUSH2 0x13FB SWAP1 PUSH1 0x1 SWAP1 PUSH2 0x1CAC JUMP JUMPDEST SWAP1 POP DUP2 DUP2 EQ PUSH2 0x1460 JUMPI PUSH1 0x0 DUP7 PUSH1 0x0 ADD DUP3 DUP2 SLOAD DUP2 LT PUSH2 0x141B JUMPI PUSH2 0x141B PUSH2 0x1D72 JUMP JUMPDEST SWAP1 PUSH1 0x0 MSTORE PUSH1 0x20 PUSH1 0x0 KECCAK256 ADD SLOAD SWAP1 POP DUP1 DUP8 PUSH1 0x0 ADD DUP5 DUP2 SLOAD DUP2 LT PUSH2 0x143E JUMPI PUSH2 0x143E PUSH2 0x1D72 JUMP JUMPDEST PUSH1 0x0 SWAP2 DUP3 MSTORE PUSH1 0x20 DUP1 DUP4 KECCAK256 SWAP1 SWAP2 ADD SWAP3 SWAP1 SWAP3 SSTORE SWAP2 DUP3 MSTORE PUSH1 0x1 DUP9 ADD SWAP1 MSTORE PUSH1 0x40 SWAP1 KECCAK256 DUP4 SWAP1 SSTORE JUMPDEST DUP6 SLOAD DUP7 SWAP1 DUP1 PUSH2 0x1471 JUMPI PUSH2 0x1471 PUSH2 0x1D5C JUMP JUMPDEST PUSH1 0x1 SWAP1 SUB DUP2 DUP2 SWAP1 PUSH1 0x0 MSTORE PUSH1 0x20 PUSH1 0x0 KECCAK256 ADD PUSH1 0x0 SWAP1 SSTORE SWAP1 SSTORE DUP6 PUSH1 0x1 ADD PUSH1 0x0 DUP7 DUP2 MSTORE PUSH1 0x20 ADD SWAP1 DUP2 MSTORE PUSH1 0x20 ADD PUSH1 0x0 KECCAK256 PUSH1 0x0 SWAP1 SSTORE PUSH1 0x1 SWAP4 POP POP POP POP PUSH2 0x334 JUMP JUMPDEST PUSH1 0x0 SWAP2 POP POP PUSH2 0x334 JUMP JUMPDEST DUP1 CALLDATALOAD PUSH1 0x1 PUSH1 0x1 PUSH1 0xA0 SHL SUB DUP2 AND DUP2 EQ PUSH2 0x14CD JUMPI PUSH1 0x0 DUP1 REVERT JUMPDEST SWAP2 SWAP1 POP JUMP JUMPDEST PUSH1 0x0 DUP3 PUSH1 0x1F DUP4 ADD SLT PUSH2 0x14E3 JUMPI PUSH1 0x0 DUP1 REVERT JUMPDEST DUP2 CALLDATALOAD PUSH1 0x20 PUSH2 0x14F0 DUP3 PUSH2 0x1C70 JUMP JUMPDEST PUSH1 0x40 MLOAD PUSH2 0x14FD DUP3 DUP3 PUSH2 0x1CFE JUMP JUMPDEST DUP4 DUP2 MSTORE DUP3 DUP2 ADD SWAP2 POP DUP6 DUP4 ADD PUSH1 0x5 DUP6 SWAP1 SHL DUP8 ADD DUP5 ADD DUP9 LT ISZERO PUSH2 0x151D JUMPI PUSH1 0x0 DUP1 REVERT JUMPDEST PUSH1 0x0 JUMPDEST DUP6 DUP2 LT ISZERO PUSH2 0x153C JUMPI DUP2 CALLDATALOAD DUP5 MSTORE SWAP3 DUP5 ADD SWAP3 SWAP1 DUP5 ADD SWAP1 PUSH1 0x1 ADD PUSH2 0x1520 JUMP JUMPDEST POP SWAP1 SWAP8 SWAP7 POP POP POP POP POP POP POP JUMP JUMPDEST PUSH1 0x0 DUP3 PUSH1 0x1F DUP4 ADD SLT PUSH2 0x155A JUMPI PUSH1 0x0 DUP1 REVERT JUMPDEST DUP2 CALLDATALOAD PUSH8 0xFFFFFFFFFFFFFFFF DUP2 GT ISZERO PUSH2 0x1574 JUMPI PUSH2 0x1574 PUSH2 0x1D88 JUMP JUMPDEST PUSH1 0x40 MLOAD PUSH2 0x158B PUSH1 0x1F DUP4 ADD PUSH1 0x1F NOT AND PUSH1 0x20 ADD DUP3 PUSH2 0x1CFE JUMP JUMPDEST DUP2 DUP2 MSTORE DUP5 PUSH1 0x20 DUP4 DUP7 ADD ADD GT ISZERO PUSH2 0x15A0 JUMPI PUSH1 0x0 DUP1 REVERT JUMPDEST DUP2 PUSH1 0x20 DUP6 ADD PUSH1 0x20 DUP4 ADD CALLDATACOPY PUSH1 0x0 SWAP2 DUP2 ADD PUSH1 0x20 ADD SWAP2 SWAP1 SWAP2 MSTORE SWAP4 SWAP3 POP POP POP JUMP JUMPDEST PUSH1 0x0 PUSH1 0x20 DUP3 DUP5 SUB SLT ISZERO PUSH2 0x15CF JUMPI PUSH1 0x0 DUP1 REVERT JUMPDEST PUSH2 0x440 DUP3 PUSH2 0x14B6 JUMP JUMPDEST PUSH1 0x0 DUP1 PUSH1 0x40 DUP4 DUP6 SUB SLT ISZERO PUSH2 0x15EB JUMPI PUSH1 0x0 DUP1 REVERT JUMPDEST PUSH2 0x15F4 DUP4 PUSH2 0x14B6 JUMP JUMPDEST SWAP2 POP PUSH2 0x1602 PUSH1 0x20 DUP5 ADD PUSH2 0x14B6 JUMP JUMPDEST SWAP1 POP SWAP3 POP SWAP3 SWAP1 POP JUMP JUMPDEST PUSH1 0x0 DUP1 PUSH1 0x0 DUP1 PUSH1 0x0 PUSH1 0xA0 DUP7 DUP9 SUB SLT ISZERO PUSH2 0x1623 JUMPI PUSH1 0x0 DUP1 REVERT JUMPDEST PUSH2 0x162C DUP7 PUSH2 0x14B6 JUMP JUMPDEST SWAP5 POP PUSH2 0x163A PUSH1 0x20 DUP8 ADD PUSH2 0x14B6 JUMP JUMPDEST SWAP4 POP PUSH1 0x40 DUP7 ADD CALLDATALOAD PUSH8 0xFFFFFFFFFFFFFFFF DUP1 DUP3 GT ISZERO PUSH2 0x1657 JUMPI PUSH1 0x0 DUP1 REVERT JUMPDEST PUSH2 0x1663 DUP10 DUP4 DUP11 ADD PUSH2 0x14D2 JUMP JUMPDEST SWAP5 POP PUSH1 0x60 DUP9 ADD CALLDATALOAD SWAP2 POP DUP1 DUP3 GT ISZERO PUSH2 0x1679 JUMPI PUSH1 0x0 DUP1 REVERT JUMPDEST PUSH2 0x1685 DUP10 DUP4 DUP11 ADD PUSH2 0x14D2 JUMP JUMPDEST SWAP4 POP PUSH1 0x80 DUP9 ADD CALLDATALOAD SWAP2 POP DUP1 DUP3 GT ISZERO PUSH2 0x169B JUMPI PUSH1 0x0 DUP1 REVERT JUMPDEST POP PUSH2 0x16A8 DUP9 DUP3 DUP10 ADD PUSH2 0x1549 JUMP JUMPDEST SWAP2 POP POP SWAP3 SWAP6 POP SWAP3 SWAP6 SWAP1 SWAP4 POP JUMP JUMPDEST PUSH1 0x0 DUP1 PUSH1 0x0 DUP1 PUSH1 0x0 PUSH1 0xA0 DUP7 DUP9 SUB SLT ISZERO PUSH2 0x16CD JUMPI PUSH1 0x0 DUP1 REVERT JUMPDEST PUSH2 0x16D6 DUP7 PUSH2 0x14B6 JUMP JUMPDEST SWAP5 POP PUSH2 0x16E4 PUSH1 0x20 DUP8 ADD PUSH2 0x14B6 JUMP JUMPDEST SWAP4 POP PUSH1 0x40 DUP7 ADD CALLDATALOAD SWAP3 POP PUSH1 0x60 DUP7 ADD CALLDATALOAD SWAP2 POP PUSH1 0x80 DUP7 ADD CALLDATALOAD PUSH8 0xFFFFFFFFFFFFFFFF DUP2 GT ISZERO PUSH2 0x170E JUMPI PUSH1 0x0 DUP1 REVERT JUMPDEST PUSH2 0x16A8 DUP9 DUP3 DUP10 ADD PUSH2 0x1549 JUMP JUMPDEST PUSH1 0x0 DUP1 PUSH1 0x0 PUSH1 0x60 DUP5 DUP7 SUB SLT ISZERO PUSH2 0x172F JUMPI PUSH1 0x0 DUP1 REVERT JUMPDEST PUSH2 0x1738 DUP5 PUSH2 0x14B6 JUMP JUMPDEST SWAP3 POP PUSH1 0x20 DUP5 ADD CALLDATALOAD PUSH8 0xFFFFFFFFFFFFFFFF DUP1 DUP3 GT ISZERO PUSH2 0x1755 JUMPI PUSH1 0x0 DUP1 REVERT JUMPDEST PUSH2 0x1761 DUP8 DUP4 DUP9 ADD PUSH2 0x14D2 JUMP JUMPDEST SWAP4 POP PUSH1 0x40 DUP7 ADD CALLDATALOAD SWAP2 POP DUP1 DUP3 GT ISZERO PUSH2 0x1777 JUMPI PUSH1 0x0 DUP1 REVERT JUMPDEST POP PUSH2 0x1784 DUP7 DUP3 DUP8 ADD PUSH2 0x14D2 JUMP JUMPDEST SWAP2 POP POP SWAP3 POP SWAP3 POP SWAP3 JUMP JUMPDEST PUSH1 0x0 DUP1 PUSH1 0x40 DUP4 DUP6 SUB SLT ISZERO PUSH2 0x17A1 JUMPI PUSH1 0x0 DUP1 REVERT JUMPDEST PUSH2 0x17AA DUP4 PUSH2 0x14B6 JUMP JUMPDEST SWAP2 POP PUSH1 0x20 DUP4 ADD CALLDATALOAD DUP1 ISZERO ISZERO DUP2 EQ PUSH2 0x17BF JUMPI PUSH1 0x0 DUP1 REVERT JUMPDEST DUP1 SWAP2 POP POP SWAP3 POP SWAP3 SWAP1 POP JUMP JUMPDEST PUSH1 0x0 DUP1 PUSH1 0x40 DUP4 DUP6 SUB SLT ISZERO PUSH2 0x17DD JUMPI PUSH1 0x0 DUP1 REVERT JUMPDEST PUSH2 0x17E6 DUP4 PUSH2 0x14B6 JUMP JUMPDEST SWAP5 PUSH1 0x20 SWAP4 SWAP1 SWAP4 ADD CALLDATALOAD SWAP4 POP POP POP JUMP JUMPDEST PUSH1 0x0 DUP1 PUSH1 0x0 PUSH1 0x60 DUP5 DUP7 SUB SLT ISZERO PUSH2 0x1809 JUMPI PUSH1 0x0 DUP1 REVERT JUMPDEST PUSH2 0x1812 DUP5 PUSH2 0x14B6 JUMP JUMPDEST SWAP6 PUSH1 0x20 DUP6 ADD CALLDATALOAD SWAP6 POP PUSH1 0x40 SWAP1 SWAP5 ADD CALLDATALOAD SWAP4 SWAP3 POP POP POP JUMP JUMPDEST PUSH1 0x0 DUP1 PUSH1 0x40 DUP4 DUP6 SUB SLT ISZERO PUSH2 0x183A JUMPI PUSH1 0x0 DUP1 REVERT JUMPDEST DUP3 CALLDATALOAD PUSH8 0xFFFFFFFFFFFFFFFF DUP1 DUP3 GT ISZERO PUSH2 0x1852 JUMPI PUSH1 0x0 DUP1 REVERT JUMPDEST DUP2 DUP6 ADD SWAP2 POP DUP6 PUSH1 0x1F DUP4 ADD SLT PUSH2 0x1866 JUMPI PUSH1 0x0 DUP1 REVERT JUMPDEST DUP2 CALLDATALOAD PUSH1 0x20 PUSH2 0x1873 DUP3 PUSH2 0x1C70 JUMP JUMPDEST PUSH1 0x40 MLOAD PUSH2 0x1880 DUP3 DUP3 PUSH2 0x1CFE JUMP JUMPDEST DUP4 DUP2 MSTORE DUP3 DUP2 ADD SWAP2 POP DUP6 DUP4 ADD PUSH1 0x5 DUP6 SWAP1 SHL DUP8 ADD DUP5 ADD DUP12 LT ISZERO PUSH2 0x18A0 JUMPI PUSH1 0x0 DUP1 REVERT JUMPDEST PUSH1 0x0 SWAP7 POP JUMPDEST DUP5 DUP8 LT ISZERO PUSH2 0x18CA JUMPI PUSH2 0x18B6 DUP2 PUSH2 0x14B6 JUMP JUMPDEST DUP4 MSTORE PUSH1 0x1 SWAP7 SWAP1 SWAP7 ADD SWAP6 SWAP2 DUP4 ADD SWAP2 DUP4 ADD PUSH2 0x18A5 JUMP JUMPDEST POP SWAP7 POP POP DUP7 ADD CALLDATALOAD SWAP3 POP POP DUP1 DUP3 GT ISZERO PUSH2 0x18E1 JUMPI PUSH1 0x0 DUP1 REVERT JUMPDEST POP PUSH2 0x18EE DUP6 DUP3 DUP7 ADD PUSH2 0x14D2 JUMP JUMPDEST SWAP2 POP POP SWAP3 POP SWAP3 SWAP1 POP JUMP JUMPDEST PUSH1 0x0 PUSH1 0x20 DUP3 DUP5 SUB SLT ISZERO PUSH2 0x190A JUMPI PUSH1 0x0 DUP1 REVERT JUMPDEST DUP2 CALLDATALOAD PUSH2 0x440 DUP2 PUSH2 0x1E44 JUMP JUMPDEST PUSH1 0x0 PUSH1 0x20 DUP3 DUP5 SUB SLT ISZERO PUSH2 0x1927 JUMPI PUSH1 0x0 DUP1 REVERT JUMPDEST DUP2 MLOAD PUSH2 0x440 DUP2 PUSH2 0x1E44 JUMP JUMPDEST PUSH1 0x0 PUSH1 0x20 DUP3 DUP5 SUB SLT ISZERO PUSH2 0x1944 JUMPI PUSH1 0x0 DUP1 REVERT JUMPDEST POP CALLDATALOAD SWAP2 SWAP1 POP JUMP JUMPDEST PUSH1 0x0 DUP2 MLOAD DUP1 DUP5 MSTORE PUSH1 0x20 DUP1 DUP6 ADD SWAP5 POP DUP1 DUP5 ADD PUSH1 0x0 JUMPDEST DUP4 DUP2 LT ISZERO PUSH2 0x197B JUMPI DUP2 MLOAD DUP8 MSTORE SWAP6 DUP3 ADD SWAP6 SWAP1 DUP3 ADD SWAP1 PUSH1 0x1 ADD PUSH2 0x195F JUMP JUMPDEST POP SWAP5 SWAP6 SWAP5 POP POP POP POP POP JUMP JUMPDEST PUSH1 0x0 DUP2 MLOAD DUP1 DUP5 MSTORE PUSH1 0x0 JUMPDEST DUP2 DUP2 LT ISZERO PUSH2 0x19AC JUMPI PUSH1 0x20 DUP2 DUP6 ADD DUP2 ADD MLOAD DUP7 DUP4 ADD DUP3 ADD MSTORE ADD PUSH2 0x1990 JUMP JUMPDEST DUP2 DUP2 GT ISZERO PUSH2 0x19BE JUMPI PUSH1 0x0 PUSH1 0x20 DUP4 DUP8 ADD ADD MSTORE JUMPDEST POP PUSH1 0x1F ADD PUSH1 0x1F NOT AND SWAP3 SWAP1 SWAP3 ADD PUSH1 0x20 ADD SWAP3 SWAP2 POP POP JUMP JUMPDEST PUSH1 0x1 PUSH1 0x1 PUSH1 0xA0 SHL SUB DUP7 DUP2 AND DUP3 MSTORE DUP6 AND PUSH1 0x20 DUP3 ADD MSTORE PUSH1 0xA0 PUSH1 0x40 DUP3 ADD DUP2 SWAP1 MSTORE PUSH1 0x0 SWAP1 PUSH2 0x19FF SWAP1 DUP4 ADD DUP7 PUSH2 0x194B JUMP JUMPDEST DUP3 DUP2 SUB PUSH1 0x60 DUP5 ADD MSTORE PUSH2 0x1A11 DUP2 DUP7 PUSH2 0x194B JUMP JUMPDEST SWAP1 POP DUP3 DUP2 SUB PUSH1 0x80 DUP5 ADD MSTORE PUSH2 0x1A25 DUP2 DUP6 PUSH2 0x1986 JUMP JUMPDEST SWAP9 SWAP8 POP POP POP POP POP POP POP POP JUMP JUMPDEST PUSH1 0x1 PUSH1 0x1 PUSH1 0xA0 SHL SUB DUP7 DUP2 AND DUP3 MSTORE DUP6 AND PUSH1 0x20 DUP3 ADD MSTORE PUSH1 0x40 DUP2 ADD DUP5 SWAP1 MSTORE PUSH1 0x60 DUP2 ADD DUP4 SWAP1 MSTORE PUSH1 0xA0 PUSH1 0x80 DUP3 ADD DUP2 SWAP1 MSTORE PUSH1 0x0 SWAP1 PUSH2 0x1A6B SWAP1 DUP4 ADD DUP5 PUSH2 0x1986 JUMP JUMPDEST SWAP8 SWAP7 POP POP POP POP POP POP POP JUMP JUMPDEST PUSH1 0x20 DUP2 MSTORE PUSH1 0x0 PUSH2 0x440 PUSH1 0x20 DUP4 ADD DUP5 PUSH2 0x194B JUMP JUMPDEST PUSH1 0x40 DUP2 MSTORE PUSH1 0x0 PUSH2 0x1A9C PUSH1 0x40 DUP4 ADD DUP6 PUSH2 0x194B JUMP JUMPDEST DUP3 DUP2 SUB PUSH1 0x20 DUP5 ADD MSTORE PUSH2 0x1AAE DUP2 DUP6 PUSH2 0x194B JUMP JUMPDEST SWAP6 SWAP5 POP POP POP POP POP JUMP JUMPDEST PUSH1 0x20 DUP2 MSTORE PUSH1 0x0 PUSH2 0x440 PUSH1 0x20 DUP4 ADD DUP5 PUSH2 0x1986 JUMP JUMPDEST PUSH1 0x20 DUP1 DUP3 MSTORE PUSH1 0x28 SWAP1 DUP3 ADD MSTORE PUSH32 0x455243313135353A204552433131353552656365697665722072656A65637465 PUSH1 0x40 DUP3 ADD MSTORE PUSH8 0x6420746F6B656E73 PUSH1 0xC0 SHL PUSH1 0x60 DUP3 ADD MSTORE PUSH1 0x80 ADD SWAP1 JUMP JUMPDEST PUSH1 0x20 DUP1 DUP3 MSTORE PUSH1 0x24 SWAP1 DUP3 ADD MSTORE PUSH32 0x455243313135353A206275726E20616D6F756E7420657863656564732062616C PUSH1 0x40 DUP3 ADD MSTORE PUSH4 0x616E6365 PUSH1 0xE0 SHL PUSH1 0x60 DUP3 ADD MSTORE PUSH1 0x80 ADD SWAP1 JUMP JUMPDEST PUSH1 0x20 DUP1 DUP3 MSTORE PUSH1 0x25 SWAP1 DUP3 ADD MSTORE PUSH32 0x455243313135353A207472616E7366657220746F20746865207A65726F206164 PUSH1 0x40 DUP3 ADD MSTORE PUSH5 0x6472657373 PUSH1 0xD8 SHL PUSH1 0x60 DUP3 ADD MSTORE PUSH1 0x80 ADD SWAP1 JUMP JUMPDEST PUSH1 0x20 DUP1 DUP3 MSTORE PUSH1 0x23 SWAP1 DUP3 ADD MSTORE PUSH32 0x455243313135353A206275726E2066726F6D20746865207A65726F2061646472 PUSH1 0x40 DUP3 ADD MSTORE PUSH3 0x657373 PUSH1 0xE8 SHL PUSH1 0x60 DUP3 ADD MSTORE PUSH1 0x80 ADD SWAP1 JUMP JUMPDEST PUSH1 0x20 DUP1 DUP3 MSTORE PUSH1 0x2A SWAP1 DUP3 ADD MSTORE PUSH32 0x455243313135353A20696E73756666696369656E742062616C616E636520666F PUSH1 0x40 DUP3 ADD MSTORE PUSH10 0x39103A3930B739B332B9 PUSH1 0xB1 SHL PUSH1 0x60 DUP3 ADD MSTORE PUSH1 0x80 ADD SWAP1 JUMP JUMPDEST PUSH1 0x20 DUP1 DUP3 MSTORE PUSH1 0x28 SWAP1 DUP3 ADD MSTORE PUSH32 0x455243313135353A2069647320616E6420616D6F756E7473206C656E67746820 PUSH1 0x40 DUP3 ADD MSTORE PUSH8 0xDAD2E6DAC2E8C6D PUSH1 0xC3 SHL PUSH1 0x60 DUP3 ADD MSTORE PUSH1 0x80 ADD SWAP1 JUMP JUMPDEST PUSH1 0x0 PUSH8 0xFFFFFFFFFFFFFFFF DUP3 GT ISZERO PUSH2 0x1C8A JUMPI PUSH2 0x1C8A PUSH2 0x1D88 JUMP JUMPDEST POP PUSH1 0x5 SHL PUSH1 0x20 ADD SWAP1 JUMP JUMPDEST PUSH1 0x0 DUP3 NOT DUP3 GT ISZERO PUSH2 0x1CA7 JUMPI PUSH2 0x1CA7 PUSH2 0x1D46 JUMP JUMPDEST POP ADD SWAP1 JUMP JUMPDEST PUSH1 0x0 DUP3 DUP3 LT ISZERO PUSH2 0x1CBE JUMPI PUSH2 0x1CBE PUSH2 0x1D46 JUMP JUMPDEST POP SUB SWAP1 JUMP JUMPDEST PUSH1 0x1 DUP2 DUP2 SHR SWAP1 DUP3 AND DUP1 PUSH2 0x1CD7 JUMPI PUSH1 0x7F DUP3 AND SWAP2 POP JUMPDEST PUSH1 0x20 DUP3 LT DUP2 EQ ISZERO PUSH2 0x1CF8 JUMPI PUSH4 0x4E487B71 PUSH1 0xE0 SHL PUSH1 0x0 MSTORE PUSH1 0x22 PUSH1 0x4 MSTORE PUSH1 0x24 PUSH1 0x0 REVERT JUMPDEST POP SWAP2 SWAP1 POP JUMP JUMPDEST PUSH1 0x1F DUP3 ADD PUSH1 0x1F NOT AND DUP2 ADD PUSH8 0xFFFFFFFFFFFFFFFF DUP2 GT DUP3 DUP3 LT OR ISZERO PUSH2 0x1D24 JUMPI PUSH2 0x1D24 PUSH2 0x1D88 JUMP JUMPDEST PUSH1 0x40 MSTORE POP POP JUMP JUMPDEST PUSH1 0x0 PUSH1 0x0 NOT DUP3 EQ ISZERO PUSH2 0x1D3F JUMPI PUSH2 0x1D3F PUSH2 0x1D46 JUMP JUMPDEST POP PUSH1 0x1 ADD SWAP1 JUMP JUMPDEST PUSH4 0x4E487B71 PUSH1 0xE0 SHL PUSH1 0x0 MSTORE PUSH1 0x11 PUSH1 0x4 MSTORE PUSH1 0x24 PUSH1 0x0 REVERT JUMPDEST PUSH4 0x4E487B71 PUSH1 0xE0 SHL PUSH1 0x0 MSTORE PUSH1 0x31 PUSH1 0x4 MSTORE PUSH1 0x24 PUSH1 0x0 REVERT JUMPDEST PUSH4 0x4E487B71 PUSH1 0xE0 SHL PUSH1 0x0 MSTORE PUSH1 0x32 PUSH1 0x4 MSTORE PUSH1 0x24 PUSH1 0x0 REVERT JUMPDEST PUSH4 0x4E487B71 PUSH1 0xE0 SHL PUSH1 0x0 MSTORE PUSH1 0x41 PUSH1 0x4 MSTORE PUSH1 0x24 PUSH1 0x0 REVERT JUMPDEST PUSH1 0x0 PUSH1 0x3 RETURNDATASIZE GT ISZERO PUSH2 0x1DB7 JUMPI PUSH1 0x4 PUSH1 0x0 DUP1 RETURNDATACOPY POP PUSH1 0x0 MLOAD PUSH1 0xE0 SHR JUMPDEST SWAP1 JUMP JUMPDEST PUSH1 0x0 PUSH1 0x44 RETURNDATASIZE LT ISZERO PUSH2 0x1DC8 JUMPI SWAP1 JUMP JUMPDEST PUSH1 0x40 MLOAD PUSH1 0x3 NOT RETURNDATASIZE DUP2 ADD PUSH1 0x4 DUP4 RETURNDATACOPY DUP2 MLOAD RETURNDATASIZE PUSH8 0xFFFFFFFFFFFFFFFF DUP2 PUSH1 0x24 DUP5 ADD GT DUP2 DUP5 GT OR ISZERO PUSH2 0x1DF8 JUMPI POP POP POP POP POP SWAP1 JUMP JUMPDEST DUP3 DUP6 ADD SWAP2 POP DUP2 MLOAD DUP2 DUP2 GT ISZERO PUSH2 0x1E10 JUMPI POP POP POP POP POP POP SWAP1 JUMP JUMPDEST DUP5 RETURNDATASIZE DUP8 ADD ADD PUSH1 0x20 DUP3 DUP6 ADD ADD GT ISZERO PUSH2 0x1E2A JUMPI POP POP POP POP POP POP SWAP1 JUMP JUMPDEST PUSH2 0x1E39 PUSH1 0x20 DUP3 DUP7 ADD ADD DUP8 PUSH2 0x1CFE JUMP JUMPDEST POP SWAP1 SWAP6 SWAP5 POP POP POP POP POP JUMP JUMPDEST PUSH1 0x1 PUSH1 0x1 PUSH1 0xE0 SHL SUB NOT DUP2 AND DUP2 EQ PUSH2 0x1E5A JUMPI PUSH1 0x0 DUP1 REVERT JUMPDEST POP JUMP INVALID LOG2 PUSH5 0x6970667358 0x22 SLT KECCAK256 CHAINID SELFDESTRUCT DUP13 CODECOPY CREATE2 SLOAD LT PUSH4 0xC5A1E6D9 SWAP4 0xBD SLT SWAP4 PUSH4 0x440DBF79 0xAC 0x29 JUMPDEST 0x2E SWAP11 0x4D PUSH8 0x8009D3FC64736F6C PUSH4 0x43000806 STOP CALLER "
		},
		"gasEstimates": {
			"creation": {
				"codeDepositCost": "1605600",
				"executionCost": "infinite",
				"totalCost": "infinite"
			},
			"external": {
				"analyticMath()": "2427",
				"burn(uint256,uint256)": "infinite",
				"burnBatch(uint256[],uint256[])": "infinite",
				"burnBatchETH(uint256[],uint256[])": "infinite",
				"burnEth(uint256,uint256)": "infinite",
				"caculateIntervalSum(uint256,uint256,uint256)": "infinite",
				"claimTotalProfit(bool)": "infinite",
				"creator()": "2406",
				"creatorRate()": "2396",
				"d()": "2395",
				"decPowerCache(uint256)": "2473",
				"erc20()": "2382",
				"getCurrentCostToMint(uint256)": "infinite",
				"getCurrentReturnToBurn(uint256)": "infinite",
				"getCurrentSupply()": "infinite",
				"intPower()": "2374",
				"m()": "2373",
				"mint(uint256,uint256)": "infinite",
				"mint(uint256,uint256,uint256)": "infinite",
				"mintEth(uint256)": "infinite",
				"mintEth(uint256,uint256)": "infinite",
				"n()": "2330",
				"platform()": "2382",
				"platformRate()": "2352",
				"reserve()": "2395",
				"setFeeParameters(address,uint256,address,uint256)": "infinite",
				"thePASS()": "2447",
				"totalCreatorProfit()": "2396",
				"totalPlatformProfit()": "2373",
				"virtualBalance()": "2372"
			},
			"internal": {
				"_mint(uint256,uint256,bool)": "infinite",
				"caculateCurrentCostToMint(uint256)": "infinite"
			}
		},
		"methodIdentifiers": {
			"analyticMath()": "3ef7a36e",
			"burn(uint256,uint256)": "b390c0ab",
			"burnBatch(uint256[],uint256[])": "83ca4b6f",
			"burnBatchETH(uint256[],uint256[])": "d9af0609",
			"burnEth(uint256,uint256)": "d0603e5e",
			"caculateIntervalSum(uint256,uint256,uint256)": "8256df8f",
			"claimTotalProfit(bool)": "29d15248",
			"creator()": "02d05d3f",
			"creatorRate()": "4baa3faa",
			"d()": "8a054ac2",
			"decPowerCache(uint256)": "0ad3b196",
			"erc20()": "785e9e86",
			"getCurrentCostToMint(uint256)": "0490a780",
			"getCurrentReturnToBurn(uint256)": "613a9fd5",
			"getCurrentSupply()": "4f3e1efc",
			"intPower()": "72520137",
			"m()": "5a2ee019",
			"mint(uint256,uint256)": "1b2ef1ca",
			"mint(uint256,uint256,uint256)": "02acc94b",
			"mintEth(uint256)": "6a58b216",
			"mintEth(uint256,uint256)": "aafe1a22",
			"n()": "2e52d606",
			"platform()": "4bde38c8",
			"platformRate()": "36e0cac6",
			"reserve()": "cd3293de",
			"setFeeParameters(address,uint256,address,uint256)": "645a106a",
			"thePASS()": "e71da82f",
			"totalCreatorProfit()": "2ae02e3a",
			"totalPlatformProfit()": "b9d3c3a6",
			"virtualBalance()": "dcd2af17"
		}
	},
	"abi": [
		{
			"inputs": [
				{
					"internalType": "address",
					"name": "_erc20",
					"type": "address"
				},
				{
					"internalType": "uint256",
					"name": "_initMintPrice",
					"type": "uint256"
				},
				{
					"internalType": "uint256",
					"name": "_m",
					"type": "uint256"
				},
				{
					"internalType": "uint256",
					"name": "_n",
					"type": "uint256"
				},
				{
					"internalType": "uint256",
					"name": "_d",
					"type": "uint256"
				},
				{
					"internalType": "string",
					"name": "_baseUri",
					"type": "string"
				}
			],
			"stateMutability": "nonpayable",
			"type": "constructor"
		},
		{
			"anonymous": false,
			"inputs": [
				{
					"indexed": false,
					"internalType": "uint256[]",
					"name": "tokenIds",
					"type": "uint256[]"
				},
				{
					"indexed": false,
					"internalType": "uint256[]",
					"name": "balances",
					"type": "uint256[]"
				},
				{
					"indexed": true,
					"internalType": "uint256",
					"name": "returnAmount",
					"type": "uint256"
				},
				{
					"indexed": true,
					"internalType": "uint256",
					"name": "reserveAfterBurn",
					"type": "uint256"
				}
			],
			"name": "BatchBurned",
			"type": "event"
		},
		{
			"anonymous": false,
			"inputs": [
				{
					"indexed": true,
					"internalType": "uint256",
					"name": "tokenId",
					"type": "uint256"
				},
				{
					"indexed": true,
					"internalType": "uint256",
					"name": "returnAmount",
					"type": "uint256"
				},
				{
					"indexed": true,
					"internalType": "uint256",
					"name": "reserveAfterBurn",
					"type": "uint256"
				},
				{
					"indexed": false,
					"internalType": "uint256",
					"name": "balance",
					"type": "uint256"
				}
			],
			"name": "Burned",
			"type": "event"
		},
		{
			"anonymous": false,
			"inputs": [
				{
					"indexed": true,
					"internalType": "uint256",
					"name": "tokenId",
					"type": "uint256"
				},
				{
					"indexed": true,
					"internalType": "uint256",
					"name": "cost",
					"type": "uint256"
				},
				{
					"indexed": true,
					"internalType": "uint256",
					"name": "reserveAfterMint",
					"type": "uint256"
				},
				{
					"indexed": false,
					"internalType": "uint256",
					"name": "balance",
					"type": "uint256"
				}
			],
			"name": "Minted",
			"type": "event"
		},
		{
			"inputs": [],
			"name": "analyticMath",
			"outputs": [
				{
					"internalType": "contract IAnalyticMath",
					"name": "",
					"type": "address"
				}
			],
			"stateMutability": "view",
			"type": "function"
		},
		{
			"inputs": [
				{
					"internalType": "uint256",
					"name": "_tokenId",
					"type": "uint256"
				},
				{
					"internalType": "uint256",
					"name": "_balance",
					"type": "uint256"
				}
			],
			"name": "burn",
			"outputs": [],
			"stateMutability": "nonpayable",
			"type": "function"
		},
		{
			"inputs": [
				{
					"internalType": "uint256[]",
					"name": "_tokenIds",
					"type": "uint256[]"
				},
				{
					"internalType": "uint256[]",
					"name": "_balances",
					"type": "uint256[]"
				}
			],
			"name": "burnBatch",
			"outputs": [],
			"stateMutability": "nonpayable",
			"type": "function"
		},
		{
			"inputs": [
				{
					"internalType": "uint256[]",
					"name": "_tokenIds",
					"type": "uint256[]"
				},
				{
					"internalType": "uint256[]",
					"name": "_balances",
					"type": "uint256[]"
				}
			],
			"name": "burnBatchETH",
			"outputs": [],
			"stateMutability": "nonpayable",
			"type": "function"
		},
		{
			"inputs": [
				{
					"internalType": "uint256",
					"name": "_tokenId",
					"type": "uint256"
				},
				{
					"internalType": "uint256",
					"name": "_balance",
					"type": "uint256"
				}
			],
			"name": "burnEth",
			"outputs": [],
			"stateMutability": "nonpayable",
			"type": "function"
		},
		{
			"inputs": [
				{
					"internalType": "uint256",
					"name": "_power",
					"type": "uint256"
				},
				{
					"internalType": "uint256",
					"name": "_startX",
					"type": "uint256"
				},
				{
					"internalType": "uint256",
					"name": "_endX",
					"type": "uint256"
				}
			],
			"name": "caculateIntervalSum",
			"outputs": [
				{
					"internalType": "uint256",
					"name": "",
					"type": "uint256"
				}
			],
			"stateMutability": "view",
			"type": "function"
		},
		{
			"inputs": [
				{
					"internalType": "bool",
					"name": "bPlatform",
					"type": "bool"
				}
			],
			"name": "claimTotalProfit",
			"outputs": [],
			"stateMutability": "nonpayable",
			"type": "function"
		},
		{
			"inputs": [],
			"name": "creator",
			"outputs": [
				{
					"internalType": "address payable",
					"name": "",
					"type": "address"
				}
			],
			"stateMutability": "view",
			"type": "function"
		},
		{
			"inputs": [],
			"name": "creatorRate",
			"outputs": [
				{
					"internalType": "uint256",
					"name": "",
					"type": "uint256"
				}
			],
			"stateMutability": "view",
			"type": "function"
		},
		{
			"inputs": [],
			"name": "d",
			"outputs": [
				{
					"internalType": "uint256",
					"name": "",
					"type": "uint256"
				}
			],
			"stateMutability": "view",
			"type": "function"
		},
		{
			"inputs": [
				{
					"internalType": "uint256",
					"name": "",
					"type": "uint256"
				}
			],
			"name": "decPowerCache",
			"outputs": [
				{
					"internalType": "uint256",
					"name": "",
					"type": "uint256"
				}
			],
			"stateMutability": "view",
			"type": "function"
		},
		{
			"inputs": [],
			"name": "erc20",
			"outputs": [
				{
					"internalType": "contract IERC20",
					"name": "",
					"type": "address"
				}
			],
			"stateMutability": "view",
			"type": "function"
		},
		{
			"inputs": [
				{
					"internalType": "uint256",
					"name": "_balance",
					"type": "uint256"
				}
			],
			"name": "getCurrentCostToMint",
			"outputs": [
				{
					"internalType": "uint256",
					"name": "",
					"type": "uint256"
				}
			],
			"stateMutability": "view",
			"type": "function"
		},
		{
			"inputs": [
				{
					"internalType": "uint256",
					"name": "_balance",
					"type": "uint256"
				}
			],
			"name": "getCurrentReturnToBurn",
			"outputs": [
				{
					"internalType": "uint256",
					"name": "",
					"type": "uint256"
				}
			],
			"stateMutability": "view",
			"type": "function"
		},
		{
			"inputs": [],
			"name": "getCurrentSupply",
			"outputs": [
				{
					"internalType": "uint256",
					"name": "",
					"type": "uint256"
				}
			],
			"stateMutability": "view",
			"type": "function"
		},
		{
			"inputs": [],
			"name": "intPower",
			"outputs": [
				{
					"internalType": "uint256",
					"name": "",
					"type": "uint256"
				}
			],
			"stateMutability": "view",
			"type": "function"
		},
		{
			"inputs": [],
			"name": "m",
			"outputs": [
				{
					"internalType": "uint256",
					"name": "",
					"type": "uint256"
				}
			],
			"stateMutability": "view",
			"type": "function"
		},
		{
			"inputs": [
				{
					"internalType": "uint256",
					"name": "_balance",
					"type": "uint256"
				},
				{
					"internalType": "uint256",
					"name": "_amount",
					"type": "uint256"
				},
				{
					"internalType": "uint256",
					"name": "_maxPriceFirstPASS",
					"type": "uint256"
				}
			],
			"name": "mint",
			"outputs": [
				{
					"internalType": "uint256",
					"name": "",
					"type": "uint256"
				}
			],
			"stateMutability": "nonpayable",
			"type": "function"
		},
		{
			"inputs": [
				{
					"internalType": "uint256",
					"name": "_balance",
					"type": "uint256"
				},
				{
					"internalType": "uint256",
					"name": "_amount",
					"type": "uint256"
				}
			],
			"name": "mint",
			"outputs": [
				{
					"internalType": "uint256",
					"name": "",
					"type": "uint256"
				}
			],
			"stateMutability": "nonpayable",
			"type": "function"
		},
		{
			"inputs": [
				{
					"internalType": "uint256",
					"name": "_balance",
					"type": "uint256"
				}
			],
			"name": "mintEth",
			"outputs": [
				{
					"internalType": "uint256",
					"name": "",
					"type": "uint256"
				}
			],
			"stateMutability": "payable",
			"type": "function"
		},
		{
			"inputs": [
				{
					"internalType": "uint256",
					"name": "_balance",
					"type": "uint256"
				},
				{
					"internalType": "uint256",
					"name": "_maxPriceFirstPASS",
					"type": "uint256"
				}
			],
			"name": "mintEth",
			"outputs": [
				{
					"internalType": "uint256",
					"name": "",
					"type": "uint256"
				}
			],
			"stateMutability": "payable",
			"type": "function"
		},
		{
			"inputs": [],
			"name": "n",
			"outputs": [
				{
					"internalType": "uint256",
					"name": "",
					"type": "uint256"
				}
			],
			"stateMutability": "view",
			"type": "function"
		},
		{
			"inputs": [],
			"name": "platform",
			"outputs": [
				{
					"internalType": "address payable",
					"name": "",
					"type": "address"
				}
			],
			"stateMutability": "view",
			"type": "function"
		},
		{
			"inputs": [],
			"name": "platformRate",
			"outputs": [
				{
					"internalType": "uint256",
					"name": "",
					"type": "uint256"
				}
			],
			"stateMutability": "view",
			"type": "function"
		},
		{
			"inputs": [],
			"name": "reserve",
			"outputs": [
				{
					"internalType": "uint256",
					"name": "",
					"type": "uint256"
				}
			],
			"stateMutability": "view",
			"type": "function"
		},
		{
			"inputs": [
				{
					"internalType": "address payable",
					"name": "_platform",
					"type": "address"
				},
				{
					"internalType": "uint256",
					"name": "_platformRate",
					"type": "uint256"
				},
				{
					"internalType": "address payable",
					"name": "_creator",
					"type": "address"
				},
				{
					"internalType": "uint256",
					"name": "_createRate",
					"type": "uint256"
				}
			],
			"name": "setFeeParameters",
			"outputs": [],
			"stateMutability": "nonpayable",
			"type": "function"
		},
		{
			"inputs": [],
			"name": "thePASS",
			"outputs": [
				{
					"internalType": "contract ERC1155Ex",
					"name": "",
					"type": "address"
				}
			],
			"stateMutability": "view",
			"type": "function"
		},
		{
			"inputs": [],
			"name": "totalCreatorProfit",
			"outputs": [
				{
					"internalType": "uint256",
					"name": "",
					"type": "uint256"
				}
			],
			"stateMutability": "view",
			"type": "function"
		},
		{
			"inputs": [],
			"name": "totalPlatformProfit",
			"outputs": [
				{
					"internalType": "uint256",
					"name": "",
					"type": "uint256"
				}
			],
			"stateMutability": "view",
			"type": "function"
		},
		{
			"inputs": [],
			"name": "virtualBalance",
			"outputs": [
				{
					"internalType": "uint256",
					"name": "",
					"type": "uint256"
				}
			],
			"stateMutability": "view",
			"type": "function"
		}
	]
}