{
	"data": {
		"bytecode": {
			"linkReferences": {},
			"object": "608060405234801561001057600080fd5b50611a3d806100206000396000f3fe608060405234801561001057600080fd5b50600436106100415760003560e01c8063d71797c114610046578063e1c7392a1461006b578063fdbf63a514610075575b600080fd5b610059610054366004611875565b610088565b60405190815260200160405180910390f35b6100736100c8565b005b610059610083366004611849565b61089f565b600080855b858110156100be576000806100a583600189896108e0565b91509150505080806100b6906119aa565b91505061008d565b5095945050505050565b61089d701c35fedd14ffffffffffffffffffffffff602055701b0ce43b323fffffffffffffffffffffff6021557019f0028ec1ffffffffffffffffffffffff6022557018ded91f0e7fffffffffffffffffffffff6023557017d8ec7f0417ffffffffffffffffffffff6024557016ddc6556cdbffffffffffffffffffffff6025557015ecf52776a1ffffffffffffffffffffff6026557015060c256cb2ffffffffffffffffffffff602755701428a2f98d72ffffffffffffffffffffff6028557013545598e5c23fffffffffffffffffffff602955701288c4161ce1dfffffffffffffffffffff602a557011c592761c666fffffffffffffffffffff602b5570110a688680a757ffffffffffffffffffff602c55701056f1b5bedf77ffffffffffffffffffff602d55700faadceceeff8bffffffffffffffffffff602e55700f05dc6b27edadffffffffffffffffffff602f55700e67a5a25da4107fffffffffffffffffff603055700dcff115b14eedffffffffffffffffffff603155700d3e7a392431239fffffffffffffffffff603255700cb2ff529eb71e4fffffffffffffffffff603355700c2d415c3db974afffffffffffffffffff603455700bad03e7d883f69bffffffffffffffffff603555700b320d03b2c343d5ffffffffffffffffff603655700abc25204e02828dffffffffffffffffff603755700a4b16f74ee4bb207fffffffffffffffff6038557009deaf736ac1f569ffffffffffffffffff603955700976bd9952c7aa957fffffffffffffffff603a557009131271922eaa606fffffffffffffffff603b557008b380f3558668c46fffffffffffffffff603c55700857ddf0117efa215bffffffffffffffff603d557007ffffffffffffffffffffffffffffffff603e557007abbf6f6abb9d087fffffffffffffffff603f5570075af62cbac95f7dfa7fffffffffffffff60405570070d7fb7452e187ac13fffffffffffffff6041557006c3390ecc8af379295fffffffffffffff60425570067c00a3b07ffc01fd6fffffffffffffff604355700637b647c39cbb9d3d27ffffffffffffff6044557005f63b1fc104dbd39587ffffffffffffff6045557005b771955b36e12f7235ffffffffffffff60465570057b3d49dda84556d6f6ffffffffffffff60475570054183095b2c8ececf30ffffffffffffff60485570050a28be635ca2b888f77fffffffffffff6049557004d5156639708c9db33c3fffffffffffff604a557004a23105873875bd52dfdfffffffffffff604b55700471649d87199aa990756fffffffffffff604c557004429a21a029d4c1457cfbffffffffffff604d55700415bc6d6fb7dd71af2cb3ffffffffffff604e557003eab73b3bbfe282243ce1ffffffffffff604f557003c1771ac9fb6b4c18e229ffffffffffff605055700399e96897690418f785257fffffffffff605155700373fc456c53bb779bf0ea9fffffffffff60525570034f9e8e490c48e67e6ab8bfffffffffff60535570032cbfd4a7adc790560b3337ffffffffff60545570030b50570f6e5d2acca94613ffffffffff6055557002eb40f9f620fda6b56c2861ffffffffff6056557002cc8340ecb0d0f520a6af58ffffffffff6057557002af09481380a0a35cf1ba02ffffffffff605855700292c5bdd3b92ec810287b1b3fffffffff605955700277abdcdab07d5a77ac6d6b9fffffffff605a5570025daf6654b1eaa55fd64df5efffffffff605b55700244c49c648baa98192dce88b7ffffffff605c5570022ce03cd5619a311b2471268bffffffff605d55700215f77c045fbe885654a44a0fffffffff605e557001ffffffffffffffffffffffffffffffff605f557001eaefdbdaaee7421fc4d3ede5ffffffff6060557001d6bd8b2eb257df7e8ca57b09bfffffff6061557001c35fedd14b861eb0443f7f133fffffff6062557001b0ce43b322bcde4a56e8ada5afffffff60635570019f0028ec1fff007f5a195a39dfffffff60645570018ded91f0e72ee74f49b15ba527ffffff60655570017d8ec7f04136f4e5615fd41a63ffffff60665570016ddc6556cdb84bdc8d12d22e6fffffff60675570015ecf52776a1155b5bd8395814f7fffff60685570015060c256cb23b3b3cc3754cf40ffffff6069557001428a2f98d728ae223ddab715be3fffff606a5570013545598e5c23276ccf0ede68034fffff606b557001288c4161ce1d6f54b7f61081194fffff606c5570011c592761c666aa641d5a01a40f17ffff606d55700110a688680a7530515f3e6e6cfdcdffff606e557001056f1b5bedf75c6bcb2ce8aed428ffff606f556ffaadceceeff8a0890f3875f008277fff6070556ff05dc6b27edad306388a600f6ba0bfff6071556fe67a5a25da41063de1495d5b18cdbfff6072556fdcff115b14eedde6fc3aa5353f2e4fff6073556fd3e7a3924312399f9aae2e0f868f8fff6074556fcb2ff529eb71e41582cccd5a1ee26fff6075556fc2d415c3db974ab32a51840c0b67edff6076556fbad03e7d883f69ad5b0a186184e06bff6077556fb320d03b2c343d4829abd6075f0cc5ff6078556fabc25204e02828d73c6e80bcdb1a95bf6079556fa4b16f74ee4bb2040a1ec6c15fbbf2df607a556f9deaf736ac1f569deb1b5ae3f36c130f607b556f976bd9952c7aa957f5937d790ef65037607c556f9131271922eaa6064b73a22d0bd4f2bf607d556f8b380f3558668c46c91c49a2f8e967b9607e556f857ddf0117efa215952912839f6473e6607f55565b565b60008060005b838110156108d5576108b78587611902565b6108c190836118a7565b9150806108cd816119aa565b9150506108a5565b5090505b9392505050565b60008084861061090c576109036108fc6001607f1b8888610938565b8585610955565b9150915061092f565b6000806109286109216001607f1b898b610938565b8787610955565b9450925050505b94509492505050565b600061094d610948858585610978565b610a3d565b949350505050565b60008061096b610966868686610978565b610a70565b915091505b935093915050565b60008060006109878686610ac7565b9150915081600014156109ad578381816109a3576109a36119db565b04925050506108d9565b838210156100415760006109c2878787610b02565b90506000806109d2858585610b1d565b9150915081600014156109fb578681816109ee576109ee6119db565b04955050505050506108d9565b6000878103881690610a0e848484610b40565b90506000610a2a838b81610a2457610a246119db565b04610b7d565b9190910297506108d99650505050505050565b600070015bf0a8b1457695355fb8ac404e7a79e4821015610a6757610a6182610ba5565b92915050565b610a6182610f57565b600080600160831b831015610a9557610a8883611001565b936001607f1b9350915050565b6000610aa08461135d565b9050610ab581607f0360ff1685901c82611440565b8160ff166001901b9250925050915091565b6000806000610ad685856117e0565b9050848402808210610aef579081900392509050610afb565b60018183030393509150505b9250929050565b60008180610b1257610b126119db565b838509949350505050565b600080828410610b335750839050818303610970565b600019850183850361096b565b600080610b5e8380830381610b5757610b576119db565b0460010190565b9050828481610b6f57610b6f6119db565b048186021795945050505050565b60006001815b6008811015610b9e5783820260020382029150600101610b83565b5092915050565b6000808080806fd3094c70f034de4b96ff7d5b6f99fcd98610610be8576001607e1b93909301926fd3094c70f034de4b96ff7d5b6f99fcd96001607f1b87020495505b6fa45af1e1f40c333b3de1db4dd55f29a88610610c25576001607d1b93909301926fa45af1e1f40c333b3de1db4dd55f29a86001607f1b87020495505b6f910b022db7ae67ce76b441c27035c6a28610610c62576001607c1b93909301926f910b022db7ae67ce76b441c27035c6a26001607f1b87020495505b6f88415abbe9a76bead8d00cf112e4d4a98610610c9f576001607b1b93909301926f88415abbe9a76bead8d00cf112e4d4a96001607f1b87020495505b6f84102b00893f64c705e841d5d4064bd48610610cdc576001607a1b93909301926f84102b00893f64c705e841d5d4064bd46001607f1b87020495505b6f8204055aaef1c8bd5c3259f4822735a38610610d1957600160791b93909301926f8204055aaef1c8bd5c3259f4822735a36001607f1b87020495505b6f810100ab00222d861931c15e39b44e9a8610610d5657600160781b93909301926f810100ab00222d861931c15e39b44e9a6001607f1b87020495505b6f808040155aabbbe9451521693554f7348610610d9357600160771b93909301926f808040155aabbbe9451521693554f7346001607f1b87020495505b6f7fffffffffffffffffffffffffffffff19860192508291506001607f1b828002049050600160801b83810383020493909301926001607f1b828202049150600160811b836faaaaaaaaaaaaaaaaaaaaaaaaaaaaaaaa03830281610df957610df96119db565b0493909301926001607f1b828202049150600360801b836f9999999999999999999999999999999903830281610e3157610e316119db565b0493909301926001607f1b828202049150600160821b836f9249249249249249249249249249249203830281610e6957610e696119db565b0493909301926001607f1b828202049150600560801b836f8e38e38e38e38e38e38e38e38e38e38e03830281610ea157610ea16119db565b0493909301926001607f1b828202049150600360811b836f8ba2e8ba2e8ba2e8ba2e8ba2e8ba2e8b03830281610ed957610ed96119db565b0493909301926001607f1b828202049150600760801b836f89d89d89d89d89d89d89d89d89d89d8903830281610f1157610f116119db565b0493909301926001607f1b828202049150600160831b836f8888888888888888888888888888888803830281610f4957610f496119db565b049390930195945050505050565b600080600160801b8310610f87576000610f766001607f1b85046117ef565b60ff1693841c936001607f1b029150505b6001607f1b831115610fd557607f5b60ff811615610fd3576001607f1b848002049350600160801b8410610fca57600193841c9360ff6000198301161b91909101905b60001901610f96565b505b6f05b9de1d10bf4103d647b0955897ba806f03f80fe03f80fe03f80fe03f80fe03f88202049392505050565b60008080806001607c1b850691508190506001607f1b818002046710e1b3be415a00008102939093019290506001607f1b828202046705a0913f6b1e00008102939093019290506001607f1b82820204670168244fdac780008102939093019290506001607f1b82820204664807432bc180008102939093019290506001607f1b82820204660c0135dca040008102939093019290506001607f1b828202046601b707b1cdc0008102939093019290506001607f1b828202046536e0f639b8008102939093019290506001607f1b82820204650618fee9f8008102939093019290506001607f1b82820204649c197dcc008102939093019290506001607f1b82820204640e30dce4008102939093019290506001607f1b8282020464012ebd13008102939093019290506001607f1b828202046317499f008102939093019290506001607f1b828202046301a9d4808102939093019290506001607f1b82820204621c63808102939093019290506001607f1b828202046201c6388102939093019290506001607f1b82820204611ab88102939093019290506001607f1b8282020461017c8102939093019290506001607f1b8282020460148102939093019290506001607f1b828202049283019290506001607f1b826721c3677c82b400008504010192506001607c1b85161561121d5770018ebef9eac820ae8682b9793ac6d1e7767001c3d6a24ed82218787d624d3e5eba95f984020492505b6001607d1b851615611253577001368b2fc6f9609fe7aceb46aa619baed470018ebef9eac820ae8682b9793ac6d1e77884020492505b6001607e1b851615611288576fbc5ab1b16779be3575bd8f0520a9f21f7001368b2fc6f9609fe7aceb46aa619baed584020492505b6001607f1b8516156112bc576f454aaa8efe072e7f6ddbab84b40a55c96fbc5ab1b16779be3575bd8f0520a9f21e84020492505b600160801b8516156112f0576f0960aadc109e7a3bf4578099615711ea6f454aaa8efe072e7f6ddbab84b40a55c584020492505b600160811b851615611323576e2bf84208204f5977f9a8cf01fdce3d6f0960aadc109e7a3bf4578099615711d784020492505b600160821b851615611354576d03c6ab775dd0b95b4cbee7e65d116e2bf84208204f5977f9a8cf01fdc30784020492505b50909392505050565b60006020607f5b8060ff168260010160ff1610156113b2576000600260ff848401160490508460008260ff1660808110611399576113996119f1565b0154106113a8578092506113ac565b8091505b50611364565b8360008260ff16608081106113c9576113c96119f1565b0154106113d7579392505050565b8360008360ff16608081106113ee576113ee6119f1565b0154106113fc575092915050565b60405162461bcd60e51b81526020600482015260156024820152740ccd2dcc8a0dee6d2e8d2dedc7440f0407c40dac2f605b1b604482015260640160405180910390fd5b60008083905060008360ff16858302901c9150816f03442c4e6074a82f1797f72ac000000002810190508360ff16858302901c9150816f0116b96f757c380fb287fd0e4000000002810190508360ff16858302901c9150816e45ae5bdd5f0e03eca1ff439000000002810190508360ff16858302901c9150816e0defabf91302cd95b9ffda5000000002810190508360ff16858302901c9150816e02529ca9832b22439efff9b800000002810190508360ff16858302901c9150816d54f1cf12bd04e516b6da8800000002810190508360ff16858302901c9150816d0a9e39e257a09ca2d6db5100000002810190508360ff16858302901c9150816d012e066e7b839fa050c30900000002810190508360ff16858302901c9150816c1e33d7d926c329a1ad1a80000002810190508360ff16858302901c9150816c02bee513bdb4a6b19b5f80000002810190508360ff16858302901c9150816b3a9316fa79b88eccf2a0000002810190508360ff16858302901c9150816b048177ebe1fa81237520000002810190508360ff16858302901c9150816a5263fe90242dcbacf0000002810190508360ff16858302901c9150816a057e22099c030d9410000002810190508360ff16858302901c9150816957e22099c030d941000002810190508360ff16858302901c91508169052b6b5456997631000002810190508360ff16858302901c915081684985f67696bf74800002810190508360ff16858302901c9150816803dea12ea99e49800002810190508360ff16858302901c9150816731880f2214b6e00002810190508360ff16858302901c91508167025bcff56eb3600002810190508360ff16858302901c915081661b722e10ab100002810190508360ff16858302901c9150816601317c7007700002810190508360ff16858302901c915081650cba84aafa0002810190508360ff16858302901c9150816482573a0a0002810190508360ff16858302901c9150816405035ad90002810190508360ff16858302901c915081632f881b0002810190508360ff16858302901c9150816301b2934002810190508360ff16858302901c915081620efc4002810190508360ff16858302901c915081617fe002810190508360ff16858302901c91508161042002810190508360ff16858302901c915081602102810190508360ff16858302901c915081600102810190508360ff166001901b856f0688589cc0e9505e2f2fee558000000083816117d4576117d46119db565b04010195945050505050565b60006000198284099392505050565b600080610100831015611817575b600183111561181257600192831c92016117fd565b610a61565b60805b60ff811615610b9e57600160ff82161b841061183e5760ff81169390931c92908117905b60011c607f1661181a565b60008060006060848603121561185e57600080fd5b505081359360208301359350604090920135919050565b6000806000806080858703121561188b57600080fd5b5050823594602084013594506040840135936060013592509050565b600082198211156118ba576118ba6119c5565b500190565b600181815b808511156118fa5781600019048211156118e0576118e06119c5565b808516156118ed57918102915b93841c93908002906118c4565b509250929050565b60006108d9838360008261191857506001610a61565b8161192557506000610a61565b816001811461193b576002811461194557611961565b6001915050610a61565b60ff841115611956576119566119c5565b50506001821b610a61565b5060208310610133831016604e8410600b8410161715611984575081810a610a61565b61198e83836118bf565b80600019048211156119a2576119a26119c5565b029392505050565b60006000198214156119be576119be6119c5565b5060010190565b634e487b7160e01b600052601160045260246000fd5b634e487b7160e01b600052601260045260246000fd5b634e487b7160e01b600052603260045260246000fdfea26469706673582212205ae912440fe15dc3c655473d3f2f10197520fc268726e7c4fb715900f6455b3c64736f6c63430008060033",
			"opcodes": "PUSH1 0x80 PUSH1 0x40 MSTORE CALLVALUE DUP1 ISZERO PUSH2 0x10 JUMPI PUSH1 0x0 DUP1 REVERT JUMPDEST POP PUSH2 0x1A3D DUP1 PUSH2 0x20 PUSH1 0x0 CODECOPY PUSH1 0x0 RETURN INVALID PUSH1 0x80 PUSH1 0x40 MSTORE CALLVALUE DUP1 ISZERO PUSH2 0x10 JUMPI PUSH1 0x0 DUP1 REVERT JUMPDEST POP PUSH1 0x4 CALLDATASIZE LT PUSH2 0x41 JUMPI PUSH1 0x0 CALLDATALOAD PUSH1 0xE0 SHR DUP1 PUSH4 0xD71797C1 EQ PUSH2 0x46 JUMPI DUP1 PUSH4 0xE1C7392A EQ PUSH2 0x6B JUMPI DUP1 PUSH4 0xFDBF63A5 EQ PUSH2 0x75 JUMPI JUMPDEST PUSH1 0x0 DUP1 REVERT JUMPDEST PUSH2 0x59 PUSH2 0x54 CALLDATASIZE PUSH1 0x4 PUSH2 0x1875 JUMP JUMPDEST PUSH2 0x88 JUMP JUMPDEST PUSH1 0x40 MLOAD SWAP1 DUP2 MSTORE PUSH1 0x20 ADD PUSH1 0x40 MLOAD DUP1 SWAP2 SUB SWAP1 RETURN JUMPDEST PUSH2 0x73 PUSH2 0xC8 JUMP JUMPDEST STOP JUMPDEST PUSH2 0x59 PUSH2 0x83 CALLDATASIZE PUSH1 0x4 PUSH2 0x1849 JUMP JUMPDEST PUSH2 0x89F JUMP JUMPDEST PUSH1 0x0 DUP1 DUP6 JUMPDEST DUP6 DUP2 LT ISZERO PUSH2 0xBE JUMPI PUSH1 0x0 DUP1 PUSH2 0xA5 DUP4 PUSH1 0x1 DUP10 DUP10 PUSH2 0x8E0 JUMP JUMPDEST SWAP2 POP SWAP2 POP POP POP DUP1 DUP1 PUSH2 0xB6 SWAP1 PUSH2 0x19AA JUMP JUMPDEST SWAP2 POP POP PUSH2 0x8D JUMP JUMPDEST POP SWAP6 SWAP5 POP POP POP POP POP JUMP JUMPDEST PUSH2 0x89D PUSH17 0x1C35FEDD14FFFFFFFFFFFFFFFFFFFFFFFF PUSH1 0x20 SSTORE PUSH17 0x1B0CE43B323FFFFFFFFFFFFFFFFFFFFFFF PUSH1 0x21 SSTORE PUSH17 0x19F0028EC1FFFFFFFFFFFFFFFFFFFFFFFF PUSH1 0x22 SSTORE PUSH17 0x18DED91F0E7FFFFFFFFFFFFFFFFFFFFFFF PUSH1 0x23 SSTORE PUSH17 0x17D8EC7F0417FFFFFFFFFFFFFFFFFFFFFF PUSH1 0x24 SSTORE PUSH17 0x16DDC6556CDBFFFFFFFFFFFFFFFFFFFFFF PUSH1 0x25 SSTORE PUSH17 0x15ECF52776A1FFFFFFFFFFFFFFFFFFFFFF PUSH1 0x26 SSTORE PUSH17 0x15060C256CB2FFFFFFFFFFFFFFFFFFFFFF PUSH1 0x27 SSTORE PUSH17 0x1428A2F98D72FFFFFFFFFFFFFFFFFFFFFF PUSH1 0x28 SSTORE PUSH17 0x13545598E5C23FFFFFFFFFFFFFFFFFFFFF PUSH1 0x29 SSTORE PUSH17 0x1288C4161CE1DFFFFFFFFFFFFFFFFFFFFF PUSH1 0x2A SSTORE PUSH17 0x11C592761C666FFFFFFFFFFFFFFFFFFFFF PUSH1 0x2B SSTORE PUSH17 0x110A688680A757FFFFFFFFFFFFFFFFFFFF PUSH1 0x2C SSTORE PUSH17 0x1056F1B5BEDF77FFFFFFFFFFFFFFFFFFFF PUSH1 0x2D SSTORE PUSH17 0xFAADCECEEFF8BFFFFFFFFFFFFFFFFFFFF PUSH1 0x2E SSTORE PUSH17 0xF05DC6B27EDADFFFFFFFFFFFFFFFFFFFF PUSH1 0x2F SSTORE PUSH17 0xE67A5A25DA4107FFFFFFFFFFFFFFFFFFF PUSH1 0x30 SSTORE PUSH17 0xDCFF115B14EEDFFFFFFFFFFFFFFFFFFFF PUSH1 0x31 SSTORE PUSH17 0xD3E7A392431239FFFFFFFFFFFFFFFFFFF PUSH1 0x32 SSTORE PUSH17 0xCB2FF529EB71E4FFFFFFFFFFFFFFFFFFF PUSH1 0x33 SSTORE PUSH17 0xC2D415C3DB974AFFFFFFFFFFFFFFFFFFF PUSH1 0x34 SSTORE PUSH17 0xBAD03E7D883F69BFFFFFFFFFFFFFFFFFF PUSH1 0x35 SSTORE PUSH17 0xB320D03B2C343D5FFFFFFFFFFFFFFFFFF PUSH1 0x36 SSTORE PUSH17 0xABC25204E02828DFFFFFFFFFFFFFFFFFF PUSH1 0x37 SSTORE PUSH17 0xA4B16F74EE4BB207FFFFFFFFFFFFFFFFF PUSH1 0x38 SSTORE PUSH17 0x9DEAF736AC1F569FFFFFFFFFFFFFFFFFF PUSH1 0x39 SSTORE PUSH17 0x976BD9952C7AA957FFFFFFFFFFFFFFFFF PUSH1 0x3A SSTORE PUSH17 0x9131271922EAA606FFFFFFFFFFFFFFFFF PUSH1 0x3B SSTORE PUSH17 0x8B380F3558668C46FFFFFFFFFFFFFFFFF PUSH1 0x3C SSTORE PUSH17 0x857DDF0117EFA215BFFFFFFFFFFFFFFFF PUSH1 0x3D SSTORE PUSH17 0x7FFFFFFFFFFFFFFFFFFFFFFFFFFFFFFFF PUSH1 0x3E SSTORE PUSH17 0x7ABBF6F6ABB9D087FFFFFFFFFFFFFFFFF PUSH1 0x3F SSTORE PUSH17 0x75AF62CBAC95F7DFA7FFFFFFFFFFFFFFF PUSH1 0x40 SSTORE PUSH17 0x70D7FB7452E187AC13FFFFFFFFFFFFFFF PUSH1 0x41 SSTORE PUSH17 0x6C3390ECC8AF379295FFFFFFFFFFFFFFF PUSH1 0x42 SSTORE PUSH17 0x67C00A3B07FFC01FD6FFFFFFFFFFFFFFF PUSH1 0x43 SSTORE PUSH17 0x637B647C39CBB9D3D27FFFFFFFFFFFFFF PUSH1 0x44 SSTORE PUSH17 0x5F63B1FC104DBD39587FFFFFFFFFFFFFF PUSH1 0x45 SSTORE PUSH17 0x5B771955B36E12F7235FFFFFFFFFFFFFF PUSH1 0x46 SSTORE PUSH17 0x57B3D49DDA84556D6F6FFFFFFFFFFFFFF PUSH1 0x47 SSTORE PUSH17 0x54183095B2C8ECECF30FFFFFFFFFFFFFF PUSH1 0x48 SSTORE PUSH17 0x50A28BE635CA2B888F77FFFFFFFFFFFFF PUSH1 0x49 SSTORE PUSH17 0x4D5156639708C9DB33C3FFFFFFFFFFFFF PUSH1 0x4A SSTORE PUSH17 0x4A23105873875BD52DFDFFFFFFFFFFFFF PUSH1 0x4B SSTORE PUSH17 0x471649D87199AA990756FFFFFFFFFFFFF PUSH1 0x4C SSTORE PUSH17 0x4429A21A029D4C1457CFBFFFFFFFFFFFF PUSH1 0x4D SSTORE PUSH17 0x415BC6D6FB7DD71AF2CB3FFFFFFFFFFFF PUSH1 0x4E SSTORE PUSH17 0x3EAB73B3BBFE282243CE1FFFFFFFFFFFF PUSH1 0x4F SSTORE PUSH17 0x3C1771AC9FB6B4C18E229FFFFFFFFFFFF PUSH1 0x50 SSTORE PUSH17 0x399E96897690418F785257FFFFFFFFFFF PUSH1 0x51 SSTORE PUSH17 0x373FC456C53BB779BF0EA9FFFFFFFFFFF PUSH1 0x52 SSTORE PUSH17 0x34F9E8E490C48E67E6AB8BFFFFFFFFFFF PUSH1 0x53 SSTORE PUSH17 0x32CBFD4A7ADC790560B3337FFFFFFFFFF PUSH1 0x54 SSTORE PUSH17 0x30B50570F6E5D2ACCA94613FFFFFFFFFF PUSH1 0x55 SSTORE PUSH17 0x2EB40F9F620FDA6B56C2861FFFFFFFFFF PUSH1 0x56 SSTORE PUSH17 0x2CC8340ECB0D0F520A6AF58FFFFFFFFFF PUSH1 0x57 SSTORE PUSH17 0x2AF09481380A0A35CF1BA02FFFFFFFFFF PUSH1 0x58 SSTORE PUSH17 0x292C5BDD3B92EC810287B1B3FFFFFFFFF PUSH1 0x59 SSTORE PUSH17 0x277ABDCDAB07D5A77AC6D6B9FFFFFFFFF PUSH1 0x5A SSTORE PUSH17 0x25DAF6654B1EAA55FD64DF5EFFFFFFFFF PUSH1 0x5B SSTORE PUSH17 0x244C49C648BAA98192DCE88B7FFFFFFFF PUSH1 0x5C SSTORE PUSH17 0x22CE03CD5619A311B2471268BFFFFFFFF PUSH1 0x5D SSTORE PUSH17 0x215F77C045FBE885654A44A0FFFFFFFFF PUSH1 0x5E SSTORE PUSH17 0x1FFFFFFFFFFFFFFFFFFFFFFFFFFFFFFFF PUSH1 0x5F SSTORE PUSH17 0x1EAEFDBDAAEE7421FC4D3EDE5FFFFFFFF PUSH1 0x60 SSTORE PUSH17 0x1D6BD8B2EB257DF7E8CA57B09BFFFFFFF PUSH1 0x61 SSTORE PUSH17 0x1C35FEDD14B861EB0443F7F133FFFFFFF PUSH1 0x62 SSTORE PUSH17 0x1B0CE43B322BCDE4A56E8ADA5AFFFFFFF PUSH1 0x63 SSTORE PUSH17 0x19F0028EC1FFF007F5A195A39DFFFFFFF PUSH1 0x64 SSTORE PUSH17 0x18DED91F0E72EE74F49B15BA527FFFFFF PUSH1 0x65 SSTORE PUSH17 0x17D8EC7F04136F4E5615FD41A63FFFFFF PUSH1 0x66 SSTORE PUSH17 0x16DDC6556CDB84BDC8D12D22E6FFFFFFF PUSH1 0x67 SSTORE PUSH17 0x15ECF52776A1155B5BD8395814F7FFFFF PUSH1 0x68 SSTORE PUSH17 0x15060C256CB23B3B3CC3754CF40FFFFFF PUSH1 0x69 SSTORE PUSH17 0x1428A2F98D728AE223DDAB715BE3FFFFF PUSH1 0x6A SSTORE PUSH17 0x13545598E5C23276CCF0EDE68034FFFFF PUSH1 0x6B SSTORE PUSH17 0x1288C4161CE1D6F54B7F61081194FFFFF PUSH1 0x6C SSTORE PUSH17 0x11C592761C666AA641D5A01A40F17FFFF PUSH1 0x6D SSTORE PUSH17 0x110A688680A7530515F3E6E6CFDCDFFFF PUSH1 0x6E SSTORE PUSH17 0x1056F1B5BEDF75C6BCB2CE8AED428FFFF PUSH1 0x6F SSTORE PUSH16 0xFAADCECEEFF8A0890F3875F008277FFF PUSH1 0x70 SSTORE PUSH16 0xF05DC6B27EDAD306388A600F6BA0BFFF PUSH1 0x71 SSTORE PUSH16 0xE67A5A25DA41063DE1495D5B18CDBFFF PUSH1 0x72 SSTORE PUSH16 0xDCFF115B14EEDDE6FC3AA5353F2E4FFF PUSH1 0x73 SSTORE PUSH16 0xD3E7A3924312399F9AAE2E0F868F8FFF PUSH1 0x74 SSTORE PUSH16 0xCB2FF529EB71E41582CCCD5A1EE26FFF PUSH1 0x75 SSTORE PUSH16 0xC2D415C3DB974AB32A51840C0B67EDFF PUSH1 0x76 SSTORE PUSH16 0xBAD03E7D883F69AD5B0A186184E06BFF PUSH1 0x77 SSTORE PUSH16 0xB320D03B2C343D4829ABD6075F0CC5FF PUSH1 0x78 SSTORE PUSH16 0xABC25204E02828D73C6E80BCDB1A95BF PUSH1 0x79 SSTORE PUSH16 0xA4B16F74EE4BB2040A1EC6C15FBBF2DF PUSH1 0x7A SSTORE PUSH16 0x9DEAF736AC1F569DEB1B5AE3F36C130F PUSH1 0x7B SSTORE PUSH16 0x976BD9952C7AA957F5937D790EF65037 PUSH1 0x7C SSTORE PUSH16 0x9131271922EAA6064B73A22D0BD4F2BF PUSH1 0x7D SSTORE PUSH16 0x8B380F3558668C46C91C49A2F8E967B9 PUSH1 0x7E SSTORE PUSH16 0x857DDF0117EFA215952912839F6473E6 PUSH1 0x7F SSTORE JUMP JUMPDEST JUMP JUMPDEST PUSH1 0x0 DUP1 PUSH1 0x0 JUMPDEST DUP4 DUP2 LT ISZERO PUSH2 0x8D5 JUMPI PUSH2 0x8B7 DUP6 DUP8 PUSH2 0x1902 JUMP JUMPDEST PUSH2 0x8C1 SWAP1 DUP4 PUSH2 0x18A7 JUMP JUMPDEST SWAP2 POP DUP1 PUSH2 0x8CD DUP2 PUSH2 0x19AA JUMP JUMPDEST SWAP2 POP POP PUSH2 0x8A5 JUMP JUMPDEST POP SWAP1 POP JUMPDEST SWAP4 SWAP3 POP POP POP JUMP JUMPDEST PUSH1 0x0 DUP1 DUP5 DUP7 LT PUSH2 0x90C JUMPI PUSH2 0x903 PUSH2 0x8FC PUSH1 0x1 PUSH1 0x7F SHL DUP9 DUP9 PUSH2 0x938 JUMP JUMPDEST DUP6 DUP6 PUSH2 0x955 JUMP JUMPDEST SWAP2 POP SWAP2 POP PUSH2 0x92F JUMP JUMPDEST PUSH1 0x0 DUP1 PUSH2 0x928 PUSH2 0x921 PUSH1 0x1 PUSH1 0x7F SHL DUP10 DUP12 PUSH2 0x938 JUMP JUMPDEST DUP8 DUP8 PUSH2 0x955 JUMP JUMPDEST SWAP5 POP SWAP3 POP POP POP JUMPDEST SWAP5 POP SWAP5 SWAP3 POP POP POP JUMP JUMPDEST PUSH1 0x0 PUSH2 0x94D PUSH2 0x948 DUP6 DUP6 DUP6 PUSH2 0x978 JUMP JUMPDEST PUSH2 0xA3D JUMP JUMPDEST SWAP5 SWAP4 POP POP POP POP JUMP JUMPDEST PUSH1 0x0 DUP1 PUSH2 0x96B PUSH2 0x966 DUP7 DUP7 DUP7 PUSH2 0x978 JUMP JUMPDEST PUSH2 0xA70 JUMP JUMPDEST SWAP2 POP SWAP2 POP JUMPDEST SWAP4 POP SWAP4 SWAP2 POP POP JUMP JUMPDEST PUSH1 0x0 DUP1 PUSH1 0x0 PUSH2 0x987 DUP7 DUP7 PUSH2 0xAC7 JUMP JUMPDEST SWAP2 POP SWAP2 POP DUP2 PUSH1 0x0 EQ ISZERO PUSH2 0x9AD JUMPI DUP4 DUP2 DUP2 PUSH2 0x9A3 JUMPI PUSH2 0x9A3 PUSH2 0x19DB JUMP JUMPDEST DIV SWAP3 POP POP POP PUSH2 0x8D9 JUMP JUMPDEST DUP4 DUP3 LT ISZERO PUSH2 0x41 JUMPI PUSH1 0x0 PUSH2 0x9C2 DUP8 DUP8 DUP8 PUSH2 0xB02 JUMP JUMPDEST SWAP1 POP PUSH1 0x0 DUP1 PUSH2 0x9D2 DUP6 DUP6 DUP6 PUSH2 0xB1D JUMP JUMPDEST SWAP2 POP SWAP2 POP DUP2 PUSH1 0x0 EQ ISZERO PUSH2 0x9FB JUMPI DUP7 DUP2 DUP2 PUSH2 0x9EE JUMPI PUSH2 0x9EE PUSH2 0x19DB JUMP JUMPDEST DIV SWAP6 POP POP POP POP POP POP PUSH2 0x8D9 JUMP JUMPDEST PUSH1 0x0 DUP8 DUP2 SUB DUP9 AND SWAP1 PUSH2 0xA0E DUP5 DUP5 DUP5 PUSH2 0xB40 JUMP JUMPDEST SWAP1 POP PUSH1 0x0 PUSH2 0xA2A DUP4 DUP12 DUP2 PUSH2 0xA24 JUMPI PUSH2 0xA24 PUSH2 0x19DB JUMP JUMPDEST DIV PUSH2 0xB7D JUMP JUMPDEST SWAP2 SWAP1 SWAP2 MUL SWAP8 POP PUSH2 0x8D9 SWAP7 POP POP POP POP POP POP POP JUMP JUMPDEST PUSH1 0x0 PUSH17 0x15BF0A8B1457695355FB8AC404E7A79E4 DUP3 LT ISZERO PUSH2 0xA67 JUMPI PUSH2 0xA61 DUP3 PUSH2 0xBA5 JUMP JUMPDEST SWAP3 SWAP2 POP POP JUMP JUMPDEST PUSH2 0xA61 DUP3 PUSH2 0xF57 JUMP JUMPDEST PUSH1 0x0 DUP1 PUSH1 0x1 PUSH1 0x83 SHL DUP4 LT ISZERO PUSH2 0xA95 JUMPI PUSH2 0xA88 DUP4 PUSH2 0x1001 JUMP JUMPDEST SWAP4 PUSH1 0x1 PUSH1 0x7F SHL SWAP4 POP SWAP2 POP POP JUMP JUMPDEST PUSH1 0x0 PUSH2 0xAA0 DUP5 PUSH2 0x135D JUMP JUMPDEST SWAP1 POP PUSH2 0xAB5 DUP2 PUSH1 0x7F SUB PUSH1 0xFF AND DUP6 SWAP1 SHR DUP3 PUSH2 0x1440 JUMP JUMPDEST DUP2 PUSH1 0xFF AND PUSH1 0x1 SWAP1 SHL SWAP3 POP SWAP3 POP POP SWAP2 POP SWAP2 JUMP JUMPDEST PUSH1 0x0 DUP1 PUSH1 0x0 PUSH2 0xAD6 DUP6 DUP6 PUSH2 0x17E0 JUMP JUMPDEST SWAP1 POP DUP5 DUP5 MUL DUP1 DUP3 LT PUSH2 0xAEF JUMPI SWAP1 DUP2 SWAP1 SUB SWAP3 POP SWAP1 POP PUSH2 0xAFB JUMP JUMPDEST PUSH1 0x1 DUP2 DUP4 SUB SUB SWAP4 POP SWAP2 POP POP JUMPDEST SWAP3 POP SWAP3 SWAP1 POP JUMP JUMPDEST PUSH1 0x0 DUP2 DUP1 PUSH2 0xB12 JUMPI PUSH2 0xB12 PUSH2 0x19DB JUMP JUMPDEST DUP4 DUP6 MULMOD SWAP5 SWAP4 POP POP POP POP JUMP JUMPDEST PUSH1 0x0 DUP1 DUP3 DUP5 LT PUSH2 0xB33 JUMPI POP DUP4 SWAP1 POP DUP2 DUP4 SUB PUSH2 0x970 JUMP JUMPDEST PUSH1 0x0 NOT DUP6 ADD DUP4 DUP6 SUB PUSH2 0x96B JUMP JUMPDEST PUSH1 0x0 DUP1 PUSH2 0xB5E DUP4 DUP1 DUP4 SUB DUP2 PUSH2 0xB57 JUMPI PUSH2 0xB57 PUSH2 0x19DB JUMP JUMPDEST DIV PUSH1 0x1 ADD SWAP1 JUMP JUMPDEST SWAP1 POP DUP3 DUP5 DUP2 PUSH2 0xB6F JUMPI PUSH2 0xB6F PUSH2 0x19DB JUMP JUMPDEST DIV DUP2 DUP7 MUL OR SWAP6 SWAP5 POP POP POP POP POP JUMP JUMPDEST PUSH1 0x0 PUSH1 0x1 DUP2 JUMPDEST PUSH1 0x8 DUP2 LT ISZERO PUSH2 0xB9E JUMPI DUP4 DUP3 MUL PUSH1 0x2 SUB DUP3 MUL SWAP2 POP PUSH1 0x1 ADD PUSH2 0xB83 JUMP JUMPDEST POP SWAP3 SWAP2 POP POP JUMP JUMPDEST PUSH1 0x0 DUP1 DUP1 DUP1 DUP1 PUSH16 0xD3094C70F034DE4B96FF7D5B6F99FCD9 DUP7 LT PUSH2 0xBE8 JUMPI PUSH1 0x1 PUSH1 0x7E SHL SWAP4 SWAP1 SWAP4 ADD SWAP3 PUSH16 0xD3094C70F034DE4B96FF7D5B6F99FCD9 PUSH1 0x1 PUSH1 0x7F SHL DUP8 MUL DIV SWAP6 POP JUMPDEST PUSH16 0xA45AF1E1F40C333B3DE1DB4DD55F29A8 DUP7 LT PUSH2 0xC25 JUMPI PUSH1 0x1 PUSH1 0x7D SHL SWAP4 SWAP1 SWAP4 ADD SWAP3 PUSH16 0xA45AF1E1F40C333B3DE1DB4DD55F29A8 PUSH1 0x1 PUSH1 0x7F SHL DUP8 MUL DIV SWAP6 POP JUMPDEST PUSH16 0x910B022DB7AE67CE76B441C27035C6A2 DUP7 LT PUSH2 0xC62 JUMPI PUSH1 0x1 PUSH1 0x7C SHL SWAP4 SWAP1 SWAP4 ADD SWAP3 PUSH16 0x910B022DB7AE67CE76B441C27035C6A2 PUSH1 0x1 PUSH1 0x7F SHL DUP8 MUL DIV SWAP6 POP JUMPDEST PUSH16 0x88415ABBE9A76BEAD8D00CF112E4D4A9 DUP7 LT PUSH2 0xC9F JUMPI PUSH1 0x1 PUSH1 0x7B SHL SWAP4 SWAP1 SWAP4 ADD SWAP3 PUSH16 0x88415ABBE9A76BEAD8D00CF112E4D4A9 PUSH1 0x1 PUSH1 0x7F SHL DUP8 MUL DIV SWAP6 POP JUMPDEST PUSH16 0x84102B00893F64C705E841D5D4064BD4 DUP7 LT PUSH2 0xCDC JUMPI PUSH1 0x1 PUSH1 0x7A SHL SWAP4 SWAP1 SWAP4 ADD SWAP3 PUSH16 0x84102B00893F64C705E841D5D4064BD4 PUSH1 0x1 PUSH1 0x7F SHL DUP8 MUL DIV SWAP6 POP JUMPDEST PUSH16 0x8204055AAEF1C8BD5C3259F4822735A3 DUP7 LT PUSH2 0xD19 JUMPI PUSH1 0x1 PUSH1 0x79 SHL SWAP4 SWAP1 SWAP4 ADD SWAP3 PUSH16 0x8204055AAEF1C8BD5C3259F4822735A3 PUSH1 0x1 PUSH1 0x7F SHL DUP8 MUL DIV SWAP6 POP JUMPDEST PUSH16 0x810100AB00222D861931C15E39B44E9A DUP7 LT PUSH2 0xD56 JUMPI PUSH1 0x1 PUSH1 0x78 SHL SWAP4 SWAP1 SWAP4 ADD SWAP3 PUSH16 0x810100AB00222D861931C15E39B44E9A PUSH1 0x1 PUSH1 0x7F SHL DUP8 MUL DIV SWAP6 POP JUMPDEST PUSH16 0x808040155AABBBE9451521693554F734 DUP7 LT PUSH2 0xD93 JUMPI PUSH1 0x1 PUSH1 0x77 SHL SWAP4 SWAP1 SWAP4 ADD SWAP3 PUSH16 0x808040155AABBBE9451521693554F734 PUSH1 0x1 PUSH1 0x7F SHL DUP8 MUL DIV SWAP6 POP JUMPDEST PUSH16 0x7FFFFFFFFFFFFFFFFFFFFFFFFFFFFFFF NOT DUP7 ADD SWAP3 POP DUP3 SWAP2 POP PUSH1 0x1 PUSH1 0x7F SHL DUP3 DUP1 MUL DIV SWAP1 POP PUSH1 0x1 PUSH1 0x80 SHL DUP4 DUP2 SUB DUP4 MUL DIV SWAP4 SWAP1 SWAP4 ADD SWAP3 PUSH1 0x1 PUSH1 0x7F SHL DUP3 DUP3 MUL DIV SWAP2 POP PUSH1 0x1 PUSH1 0x81 SHL DUP4 PUSH16 0xAAAAAAAAAAAAAAAAAAAAAAAAAAAAAAAA SUB DUP4 MUL DUP2 PUSH2 0xDF9 JUMPI PUSH2 0xDF9 PUSH2 0x19DB JUMP JUMPDEST DIV SWAP4 SWAP1 SWAP4 ADD SWAP3 PUSH1 0x1 PUSH1 0x7F SHL DUP3 DUP3 MUL DIV SWAP2 POP PUSH1 0x3 PUSH1 0x80 SHL DUP4 PUSH16 0x99999999999999999999999999999999 SUB DUP4 MUL DUP2 PUSH2 0xE31 JUMPI PUSH2 0xE31 PUSH2 0x19DB JUMP JUMPDEST DIV SWAP4 SWAP1 SWAP4 ADD SWAP3 PUSH1 0x1 PUSH1 0x7F SHL DUP3 DUP3 MUL DIV SWAP2 POP PUSH1 0x1 PUSH1 0x82 SHL DUP4 PUSH16 0x92492492492492492492492492492492 SUB DUP4 MUL DUP2 PUSH2 0xE69 JUMPI PUSH2 0xE69 PUSH2 0x19DB JUMP JUMPDEST DIV SWAP4 SWAP1 SWAP4 ADD SWAP3 PUSH1 0x1 PUSH1 0x7F SHL DUP3 DUP3 MUL DIV SWAP2 POP PUSH1 0x5 PUSH1 0x80 SHL DUP4 PUSH16 0x8E38E38E38E38E38E38E38E38E38E38E SUB DUP4 MUL DUP2 PUSH2 0xEA1 JUMPI PUSH2 0xEA1 PUSH2 0x19DB JUMP JUMPDEST DIV SWAP4 SWAP1 SWAP4 ADD SWAP3 PUSH1 0x1 PUSH1 0x7F SHL DUP3 DUP3 MUL DIV SWAP2 POP PUSH1 0x3 PUSH1 0x81 SHL DUP4 PUSH16 0x8BA2E8BA2E8BA2E8BA2E8BA2E8BA2E8B SUB DUP4 MUL DUP2 PUSH2 0xED9 JUMPI PUSH2 0xED9 PUSH2 0x19DB JUMP JUMPDEST DIV SWAP4 SWAP1 SWAP4 ADD SWAP3 PUSH1 0x1 PUSH1 0x7F SHL DUP3 DUP3 MUL DIV SWAP2 POP PUSH1 0x7 PUSH1 0x80 SHL DUP4 PUSH16 0x89D89D89D89D89D89D89D89D89D89D89 SUB DUP4 MUL DUP2 PUSH2 0xF11 JUMPI PUSH2 0xF11 PUSH2 0x19DB JUMP JUMPDEST DIV SWAP4 SWAP1 SWAP4 ADD SWAP3 PUSH1 0x1 PUSH1 0x7F SHL DUP3 DUP3 MUL DIV SWAP2 POP PUSH1 0x1 PUSH1 0x83 SHL DUP4 PUSH16 0x88888888888888888888888888888888 SUB DUP4 MUL DUP2 PUSH2 0xF49 JUMPI PUSH2 0xF49 PUSH2 0x19DB JUMP JUMPDEST DIV SWAP4 SWAP1 SWAP4 ADD SWAP6 SWAP5 POP POP POP POP POP JUMP JUMPDEST PUSH1 0x0 DUP1 PUSH1 0x1 PUSH1 0x80 SHL DUP4 LT PUSH2 0xF87 JUMPI PUSH1 0x0 PUSH2 0xF76 PUSH1 0x1 PUSH1 0x7F SHL DUP6 DIV PUSH2 0x17EF JUMP JUMPDEST PUSH1 0xFF AND SWAP4 DUP5 SHR SWAP4 PUSH1 0x1 PUSH1 0x7F SHL MUL SWAP2 POP POP JUMPDEST PUSH1 0x1 PUSH1 0x7F SHL DUP4 GT ISZERO PUSH2 0xFD5 JUMPI PUSH1 0x7F JUMPDEST PUSH1 0xFF DUP2 AND ISZERO PUSH2 0xFD3 JUMPI PUSH1 0x1 PUSH1 0x7F SHL DUP5 DUP1 MUL DIV SWAP4 POP PUSH1 0x1 PUSH1 0x80 SHL DUP5 LT PUSH2 0xFCA JUMPI PUSH1 0x1 SWAP4 DUP5 SHR SWAP4 PUSH1 0xFF PUSH1 0x0 NOT DUP4 ADD AND SHL SWAP2 SWAP1 SWAP2 ADD SWAP1 JUMPDEST PUSH1 0x0 NOT ADD PUSH2 0xF96 JUMP JUMPDEST POP JUMPDEST PUSH16 0x5B9DE1D10BF4103D647B0955897BA80 PUSH16 0x3F80FE03F80FE03F80FE03F80FE03F8 DUP3 MUL DIV SWAP4 SWAP3 POP POP POP JUMP JUMPDEST PUSH1 0x0 DUP1 DUP1 DUP1 PUSH1 0x1 PUSH1 0x7C SHL DUP6 MOD SWAP2 POP DUP2 SWAP1 POP PUSH1 0x1 PUSH1 0x7F SHL DUP2 DUP1 MUL DIV PUSH8 0x10E1B3BE415A0000 DUP2 MUL SWAP4 SWAP1 SWAP4 ADD SWAP3 SWAP1 POP PUSH1 0x1 PUSH1 0x7F SHL DUP3 DUP3 MUL DIV PUSH8 0x5A0913F6B1E0000 DUP2 MUL SWAP4 SWAP1 SWAP4 ADD SWAP3 SWAP1 POP PUSH1 0x1 PUSH1 0x7F SHL DUP3 DUP3 MUL DIV PUSH8 0x168244FDAC78000 DUP2 MUL SWAP4 SWAP1 SWAP4 ADD SWAP3 SWAP1 POP PUSH1 0x1 PUSH1 0x7F SHL DUP3 DUP3 MUL DIV PUSH7 0x4807432BC18000 DUP2 MUL SWAP4 SWAP1 SWAP4 ADD SWAP3 SWAP1 POP PUSH1 0x1 PUSH1 0x7F SHL DUP3 DUP3 MUL DIV PUSH7 0xC0135DCA04000 DUP2 MUL SWAP4 SWAP1 SWAP4 ADD SWAP3 SWAP1 POP PUSH1 0x1 PUSH1 0x7F SHL DUP3 DUP3 MUL DIV PUSH7 0x1B707B1CDC000 DUP2 MUL SWAP4 SWAP1 SWAP4 ADD SWAP3 SWAP1 POP PUSH1 0x1 PUSH1 0x7F SHL DUP3 DUP3 MUL DIV PUSH6 0x36E0F639B800 DUP2 MUL SWAP4 SWAP1 SWAP4 ADD SWAP3 SWAP1 POP PUSH1 0x1 PUSH1 0x7F SHL DUP3 DUP3 MUL DIV PUSH6 0x618FEE9F800 DUP2 MUL SWAP4 SWAP1 SWAP4 ADD SWAP3 SWAP1 POP PUSH1 0x1 PUSH1 0x7F SHL DUP3 DUP3 MUL DIV PUSH5 0x9C197DCC00 DUP2 MUL SWAP4 SWAP1 SWAP4 ADD SWAP3 SWAP1 POP PUSH1 0x1 PUSH1 0x7F SHL DUP3 DUP3 MUL DIV PUSH5 0xE30DCE400 DUP2 MUL SWAP4 SWAP1 SWAP4 ADD SWAP3 SWAP1 POP PUSH1 0x1 PUSH1 0x7F SHL DUP3 DUP3 MUL DIV PUSH5 0x12EBD1300 DUP2 MUL SWAP4 SWAP1 SWAP4 ADD SWAP3 SWAP1 POP PUSH1 0x1 PUSH1 0x7F SHL DUP3 DUP3 MUL DIV PUSH4 0x17499F00 DUP2 MUL SWAP4 SWAP1 SWAP4 ADD SWAP3 SWAP1 POP PUSH1 0x1 PUSH1 0x7F SHL DUP3 DUP3 MUL DIV PUSH4 0x1A9D480 DUP2 MUL SWAP4 SWAP1 SWAP4 ADD SWAP3 SWAP1 POP PUSH1 0x1 PUSH1 0x7F SHL DUP3 DUP3 MUL DIV PUSH3 0x1C6380 DUP2 MUL SWAP4 SWAP1 SWAP4 ADD SWAP3 SWAP1 POP PUSH1 0x1 PUSH1 0x7F SHL DUP3 DUP3 MUL DIV PUSH3 0x1C638 DUP2 MUL SWAP4 SWAP1 SWAP4 ADD SWAP3 SWAP1 POP PUSH1 0x1 PUSH1 0x7F SHL DUP3 DUP3 MUL DIV PUSH2 0x1AB8 DUP2 MUL SWAP4 SWAP1 SWAP4 ADD SWAP3 SWAP1 POP PUSH1 0x1 PUSH1 0x7F SHL DUP3 DUP3 MUL DIV PUSH2 0x17C DUP2 MUL SWAP4 SWAP1 SWAP4 ADD SWAP3 SWAP1 POP PUSH1 0x1 PUSH1 0x7F SHL DUP3 DUP3 MUL DIV PUSH1 0x14 DUP2 MUL SWAP4 SWAP1 SWAP4 ADD SWAP3 SWAP1 POP PUSH1 0x1 PUSH1 0x7F SHL DUP3 DUP3 MUL DIV SWAP3 DUP4 ADD SWAP3 SWAP1 POP PUSH1 0x1 PUSH1 0x7F SHL DUP3 PUSH8 0x21C3677C82B40000 DUP6 DIV ADD ADD SWAP3 POP PUSH1 0x1 PUSH1 0x7C SHL DUP6 AND ISZERO PUSH2 0x121D JUMPI PUSH17 0x18EBEF9EAC820AE8682B9793AC6D1E776 PUSH17 0x1C3D6A24ED82218787D624D3E5EBA95F9 DUP5 MUL DIV SWAP3 POP JUMPDEST PUSH1 0x1 PUSH1 0x7D SHL DUP6 AND ISZERO PUSH2 0x1253 JUMPI PUSH17 0x1368B2FC6F9609FE7ACEB46AA619BAED4 PUSH17 0x18EBEF9EAC820AE8682B9793AC6D1E778 DUP5 MUL DIV SWAP3 POP JUMPDEST PUSH1 0x1 PUSH1 0x7E SHL DUP6 AND ISZERO PUSH2 0x1288 JUMPI PUSH16 0xBC5AB1B16779BE3575BD8F0520A9F21F PUSH17 0x1368B2FC6F9609FE7ACEB46AA619BAED5 DUP5 MUL DIV SWAP3 POP JUMPDEST PUSH1 0x1 PUSH1 0x7F SHL DUP6 AND ISZERO PUSH2 0x12BC JUMPI PUSH16 0x454AAA8EFE072E7F6DDBAB84B40A55C9 PUSH16 0xBC5AB1B16779BE3575BD8F0520A9F21E DUP5 MUL DIV SWAP3 POP JUMPDEST PUSH1 0x1 PUSH1 0x80 SHL DUP6 AND ISZERO PUSH2 0x12F0 JUMPI PUSH16 0x960AADC109E7A3BF4578099615711EA PUSH16 0x454AAA8EFE072E7F6DDBAB84B40A55C5 DUP5 MUL DIV SWAP3 POP JUMPDEST PUSH1 0x1 PUSH1 0x81 SHL DUP6 AND ISZERO PUSH2 0x1323 JUMPI PUSH15 0x2BF84208204F5977F9A8CF01FDCE3D PUSH16 0x960AADC109E7A3BF4578099615711D7 DUP5 MUL DIV SWAP3 POP JUMPDEST PUSH1 0x1 PUSH1 0x82 SHL DUP6 AND ISZERO PUSH2 0x1354 JUMPI PUSH14 0x3C6AB775DD0B95B4CBEE7E65D11 PUSH15 0x2BF84208204F5977F9A8CF01FDC307 DUP5 MUL DIV SWAP3 POP JUMPDEST POP SWAP1 SWAP4 SWAP3 POP POP POP JUMP JUMPDEST PUSH1 0x0 PUSH1 0x20 PUSH1 0x7F JUMPDEST DUP1 PUSH1 0xFF AND DUP3 PUSH1 0x1 ADD PUSH1 0xFF AND LT ISZERO PUSH2 0x13B2 JUMPI PUSH1 0x0 PUSH1 0x2 PUSH1 0xFF DUP5 DUP5 ADD AND DIV SWAP1 POP DUP5 PUSH1 0x0 DUP3 PUSH1 0xFF AND PUSH1 0x80 DUP2 LT PUSH2 0x1399 JUMPI PUSH2 0x1399 PUSH2 0x19F1 JUMP JUMPDEST ADD SLOAD LT PUSH2 0x13A8 JUMPI DUP1 SWAP3 POP PUSH2 0x13AC JUMP JUMPDEST DUP1 SWAP2 POP JUMPDEST POP PUSH2 0x1364 JUMP JUMPDEST DUP4 PUSH1 0x0 DUP3 PUSH1 0xFF AND PUSH1 0x80 DUP2 LT PUSH2 0x13C9 JUMPI PUSH2 0x13C9 PUSH2 0x19F1 JUMP JUMPDEST ADD SLOAD LT PUSH2 0x13D7 JUMPI SWAP4 SWAP3 POP POP POP JUMP JUMPDEST DUP4 PUSH1 0x0 DUP4 PUSH1 0xFF AND PUSH1 0x80 DUP2 LT PUSH2 0x13EE JUMPI PUSH2 0x13EE PUSH2 0x19F1 JUMP JUMPDEST ADD SLOAD LT PUSH2 0x13FC JUMPI POP SWAP3 SWAP2 POP POP JUMP JUMPDEST PUSH1 0x40 MLOAD PUSH3 0x461BCD PUSH1 0xE5 SHL DUP2 MSTORE PUSH1 0x20 PUSH1 0x4 DUP3 ADD MSTORE PUSH1 0x15 PUSH1 0x24 DUP3 ADD MSTORE PUSH21 0xCCD2DCC8A0DEE6D2E8D2DEDC7440F0407C40DAC2F PUSH1 0x5B SHL PUSH1 0x44 DUP3 ADD MSTORE PUSH1 0x64 ADD PUSH1 0x40 MLOAD DUP1 SWAP2 SUB SWAP1 REVERT JUMPDEST PUSH1 0x0 DUP1 DUP4 SWAP1 POP PUSH1 0x0 DUP4 PUSH1 0xFF AND DUP6 DUP4 MUL SWAP1 SHR SWAP2 POP DUP2 PUSH16 0x3442C4E6074A82F1797F72AC0000000 MUL DUP2 ADD SWAP1 POP DUP4 PUSH1 0xFF AND DUP6 DUP4 MUL SWAP1 SHR SWAP2 POP DUP2 PUSH16 0x116B96F757C380FB287FD0E40000000 MUL DUP2 ADD SWAP1 POP DUP4 PUSH1 0xFF AND DUP6 DUP4 MUL SWAP1 SHR SWAP2 POP DUP2 PUSH15 0x45AE5BDD5F0E03ECA1FF4390000000 MUL DUP2 ADD SWAP1 POP DUP4 PUSH1 0xFF AND DUP6 DUP4 MUL SWAP1 SHR SWAP2 POP DUP2 PUSH15 0xDEFABF91302CD95B9FFDA50000000 MUL DUP2 ADD SWAP1 POP DUP4 PUSH1 0xFF AND DUP6 DUP4 MUL SWAP1 SHR SWAP2 POP DUP2 PUSH15 0x2529CA9832B22439EFFF9B8000000 MUL DUP2 ADD SWAP1 POP DUP4 PUSH1 0xFF AND DUP6 DUP4 MUL SWAP1 SHR SWAP2 POP DUP2 PUSH14 0x54F1CF12BD04E516B6DA88000000 MUL DUP2 ADD SWAP1 POP DUP4 PUSH1 0xFF AND DUP6 DUP4 MUL SWAP1 SHR SWAP2 POP DUP2 PUSH14 0xA9E39E257A09CA2D6DB51000000 MUL DUP2 ADD SWAP1 POP DUP4 PUSH1 0xFF AND DUP6 DUP4 MUL SWAP1 SHR SWAP2 POP DUP2 PUSH14 0x12E066E7B839FA050C309000000 MUL DUP2 ADD SWAP1 POP DUP4 PUSH1 0xFF AND DUP6 DUP4 MUL SWAP1 SHR SWAP2 POP DUP2 PUSH13 0x1E33D7D926C329A1AD1A800000 MUL DUP2 ADD SWAP1 POP DUP4 PUSH1 0xFF AND DUP6 DUP4 MUL SWAP1 SHR SWAP2 POP DUP2 PUSH13 0x2BEE513BDB4A6B19B5F800000 MUL DUP2 ADD SWAP1 POP DUP4 PUSH1 0xFF AND DUP6 DUP4 MUL SWAP1 SHR SWAP2 POP DUP2 PUSH12 0x3A9316FA79B88ECCF2A00000 MUL DUP2 ADD SWAP1 POP DUP4 PUSH1 0xFF AND DUP6 DUP4 MUL SWAP1 SHR SWAP2 POP DUP2 PUSH12 0x48177EBE1FA812375200000 MUL DUP2 ADD SWAP1 POP DUP4 PUSH1 0xFF AND DUP6 DUP4 MUL SWAP1 SHR SWAP2 POP DUP2 PUSH11 0x5263FE90242DCBACF00000 MUL DUP2 ADD SWAP1 POP DUP4 PUSH1 0xFF AND DUP6 DUP4 MUL SWAP1 SHR SWAP2 POP DUP2 PUSH11 0x57E22099C030D94100000 MUL DUP2 ADD SWAP1 POP DUP4 PUSH1 0xFF AND DUP6 DUP4 MUL SWAP1 SHR SWAP2 POP DUP2 PUSH10 0x57E22099C030D9410000 MUL DUP2 ADD SWAP1 POP DUP4 PUSH1 0xFF AND DUP6 DUP4 MUL SWAP1 SHR SWAP2 POP DUP2 PUSH10 0x52B6B54569976310000 MUL DUP2 ADD SWAP1 POP DUP4 PUSH1 0xFF AND DUP6 DUP4 MUL SWAP1 SHR SWAP2 POP DUP2 PUSH9 0x4985F67696BF748000 MUL DUP2 ADD SWAP1 POP DUP4 PUSH1 0xFF AND DUP6 DUP4 MUL SWAP1 SHR SWAP2 POP DUP2 PUSH9 0x3DEA12EA99E498000 MUL DUP2 ADD SWAP1 POP DUP4 PUSH1 0xFF AND DUP6 DUP4 MUL SWAP1 SHR SWAP2 POP DUP2 PUSH8 0x31880F2214B6E000 MUL DUP2 ADD SWAP1 POP DUP4 PUSH1 0xFF AND DUP6 DUP4 MUL SWAP1 SHR SWAP2 POP DUP2 PUSH8 0x25BCFF56EB36000 MUL DUP2 ADD SWAP1 POP DUP4 PUSH1 0xFF AND DUP6 DUP4 MUL SWAP1 SHR SWAP2 POP DUP2 PUSH7 0x1B722E10AB1000 MUL DUP2 ADD SWAP1 POP DUP4 PUSH1 0xFF AND DUP6 DUP4 MUL SWAP1 SHR SWAP2 POP DUP2 PUSH7 0x1317C70077000 MUL DUP2 ADD SWAP1 POP DUP4 PUSH1 0xFF AND DUP6 DUP4 MUL SWAP1 SHR SWAP2 POP DUP2 PUSH6 0xCBA84AAFA00 MUL DUP2 ADD SWAP1 POP DUP4 PUSH1 0xFF AND DUP6 DUP4 MUL SWAP1 SHR SWAP2 POP DUP2 PUSH5 0x82573A0A00 MUL DUP2 ADD SWAP1 POP DUP4 PUSH1 0xFF AND DUP6 DUP4 MUL SWAP1 SHR SWAP2 POP DUP2 PUSH5 0x5035AD900 MUL DUP2 ADD SWAP1 POP DUP4 PUSH1 0xFF AND DUP6 DUP4 MUL SWAP1 SHR SWAP2 POP DUP2 PUSH4 0x2F881B00 MUL DUP2 ADD SWAP1 POP DUP4 PUSH1 0xFF AND DUP6 DUP4 MUL SWAP1 SHR SWAP2 POP DUP2 PUSH4 0x1B29340 MUL DUP2 ADD SWAP1 POP DUP4 PUSH1 0xFF AND DUP6 DUP4 MUL SWAP1 SHR SWAP2 POP DUP2 PUSH3 0xEFC40 MUL DUP2 ADD SWAP1 POP DUP4 PUSH1 0xFF AND DUP6 DUP4 MUL SWAP1 SHR SWAP2 POP DUP2 PUSH2 0x7FE0 MUL DUP2 ADD SWAP1 POP DUP4 PUSH1 0xFF AND DUP6 DUP4 MUL SWAP1 SHR SWAP2 POP DUP2 PUSH2 0x420 MUL DUP2 ADD SWAP1 POP DUP4 PUSH1 0xFF AND DUP6 DUP4 MUL SWAP1 SHR SWAP2 POP DUP2 PUSH1 0x21 MUL DUP2 ADD SWAP1 POP DUP4 PUSH1 0xFF AND DUP6 DUP4 MUL SWAP1 SHR SWAP2 POP DUP2 PUSH1 0x1 MUL DUP2 ADD SWAP1 POP DUP4 PUSH1 0xFF AND PUSH1 0x1 SWAP1 SHL DUP6 PUSH16 0x688589CC0E9505E2F2FEE5580000000 DUP4 DUP2 PUSH2 0x17D4 JUMPI PUSH2 0x17D4 PUSH2 0x19DB JUMP JUMPDEST DIV ADD ADD SWAP6 SWAP5 POP POP POP POP POP JUMP JUMPDEST PUSH1 0x0 PUSH1 0x0 NOT DUP3 DUP5 MULMOD SWAP4 SWAP3 POP POP POP JUMP JUMPDEST PUSH1 0x0 DUP1 PUSH2 0x100 DUP4 LT ISZERO PUSH2 0x1817 JUMPI JUMPDEST PUSH1 0x1 DUP4 GT ISZERO PUSH2 0x1812 JUMPI PUSH1 0x1 SWAP3 DUP4 SHR SWAP3 ADD PUSH2 0x17FD JUMP JUMPDEST PUSH2 0xA61 JUMP JUMPDEST PUSH1 0x80 JUMPDEST PUSH1 0xFF DUP2 AND ISZERO PUSH2 0xB9E JUMPI PUSH1 0x1 PUSH1 0xFF DUP3 AND SHL DUP5 LT PUSH2 0x183E JUMPI PUSH1 0xFF DUP2 AND SWAP4 SWAP1 SWAP4 SHR SWAP3 SWAP1 DUP2 OR SWAP1 JUMPDEST PUSH1 0x1 SHR PUSH1 0x7F AND PUSH2 0x181A JUMP JUMPDEST PUSH1 0x0 DUP1 PUSH1 0x0 PUSH1 0x60 DUP5 DUP7 SUB SLT ISZERO PUSH2 0x185E JUMPI PUSH1 0x0 DUP1 REVERT JUMPDEST POP POP DUP2 CALLDATALOAD SWAP4 PUSH1 0x20 DUP4 ADD CALLDATALOAD SWAP4 POP PUSH1 0x40 SWAP1 SWAP3 ADD CALLDATALOAD SWAP2 SWAP1 POP JUMP JUMPDEST PUSH1 0x0 DUP1 PUSH1 0x0 DUP1 PUSH1 0x80 DUP6 DUP8 SUB SLT ISZERO PUSH2 0x188B JUMPI PUSH1 0x0 DUP1 REVERT JUMPDEST POP POP DUP3 CALLDATALOAD SWAP5 PUSH1 0x20 DUP5 ADD CALLDATALOAD SWAP5 POP PUSH1 0x40 DUP5 ADD CALLDATALOAD SWAP4 PUSH1 0x60 ADD CALLDATALOAD SWAP3 POP SWAP1 POP JUMP JUMPDEST PUSH1 0x0 DUP3 NOT DUP3 GT ISZERO PUSH2 0x18BA JUMPI PUSH2 0x18BA PUSH2 0x19C5 JUMP JUMPDEST POP ADD SWAP1 JUMP JUMPDEST PUSH1 0x1 DUP2 DUP2 JUMPDEST DUP1 DUP6 GT ISZERO PUSH2 0x18FA JUMPI DUP2 PUSH1 0x0 NOT DIV DUP3 GT ISZERO PUSH2 0x18E0 JUMPI PUSH2 0x18E0 PUSH2 0x19C5 JUMP JUMPDEST DUP1 DUP6 AND ISZERO PUSH2 0x18ED JUMPI SWAP2 DUP2 MUL SWAP2 JUMPDEST SWAP4 DUP5 SHR SWAP4 SWAP1 DUP1 MUL SWAP1 PUSH2 0x18C4 JUMP JUMPDEST POP SWAP3 POP SWAP3 SWAP1 POP JUMP JUMPDEST PUSH1 0x0 PUSH2 0x8D9 DUP4 DUP4 PUSH1 0x0 DUP3 PUSH2 0x1918 JUMPI POP PUSH1 0x1 PUSH2 0xA61 JUMP JUMPDEST DUP2 PUSH2 0x1925 JUMPI POP PUSH1 0x0 PUSH2 0xA61 JUMP JUMPDEST DUP2 PUSH1 0x1 DUP2 EQ PUSH2 0x193B JUMPI PUSH1 0x2 DUP2 EQ PUSH2 0x1945 JUMPI PUSH2 0x1961 JUMP JUMPDEST PUSH1 0x1 SWAP2 POP POP PUSH2 0xA61 JUMP JUMPDEST PUSH1 0xFF DUP5 GT ISZERO PUSH2 0x1956 JUMPI PUSH2 0x1956 PUSH2 0x19C5 JUMP JUMPDEST POP POP PUSH1 0x1 DUP3 SHL PUSH2 0xA61 JUMP JUMPDEST POP PUSH1 0x20 DUP4 LT PUSH2 0x133 DUP4 LT AND PUSH1 0x4E DUP5 LT PUSH1 0xB DUP5 LT AND OR ISZERO PUSH2 0x1984 JUMPI POP DUP2 DUP2 EXP PUSH2 0xA61 JUMP JUMPDEST PUSH2 0x198E DUP4 DUP4 PUSH2 0x18BF JUMP JUMPDEST DUP1 PUSH1 0x0 NOT DIV DUP3 GT ISZERO PUSH2 0x19A2 JUMPI PUSH2 0x19A2 PUSH2 0x19C5 JUMP JUMPDEST MUL SWAP4 SWAP3 POP POP POP JUMP JUMPDEST PUSH1 0x0 PUSH1 0x0 NOT DUP3 EQ ISZERO PUSH2 0x19BE JUMPI PUSH2 0x19BE PUSH2 0x19C5 JUMP JUMPDEST POP PUSH1 0x1 ADD SWAP1 JUMP JUMPDEST PUSH4 0x4E487B71 PUSH1 0xE0 SHL PUSH1 0x0 MSTORE PUSH1 0x11 PUSH1 0x4 MSTORE PUSH1 0x24 PUSH1 0x0 REVERT JUMPDEST PUSH4 0x4E487B71 PUSH1 0xE0 SHL PUSH1 0x0 MSTORE PUSH1 0x12 PUSH1 0x4 MSTORE PUSH1 0x24 PUSH1 0x0 REVERT JUMPDEST PUSH4 0x4E487B71 PUSH1 0xE0 SHL PUSH1 0x0 MSTORE PUSH1 0x32 PUSH1 0x4 MSTORE PUSH1 0x24 PUSH1 0x0 REVERT INVALID LOG2 PUSH5 0x6970667358 0x22 SLT KECCAK256 GAS 0xE9 SLT DIFFICULTY 0xF 0xE1 0x5D 0xC3 0xC6 SSTORE SELFBALANCE RETURNDATASIZE EXTCODEHASH 0x2F LT NOT PUSH22 0x20FC268726E7C4FB715900F6455B3C64736F6C634300 ADDMOD MOD STOP CALLER "
		},
		"gasEstimates": {
			"creation": {
				"codeDepositCost": "1343400",
				"executionCost": "1397",
				"totalCost": "1344797"
			},
			"external": {
				"init()": "2122332",
				"testCompliant(uint256,uint256,uint256,uint256)": "infinite",
				"testPowGas(uint256,uint256,uint256)": "infinite"
			}
		},
		"methodIdentifiers": {
			"init()": "e1c7392a",
			"testCompliant(uint256,uint256,uint256,uint256)": "d71797c1",
			"testPowGas(uint256,uint256,uint256)": "fdbf63a5"
		}
	},
	"abi": [
		{
			"inputs": [],
			"name": "init",
			"outputs": [],
			"stateMutability": "nonpayable",
			"type": "function"
		},
		{
			"inputs": [
				{
					"internalType": "uint256",
					"name": "_from",
					"type": "uint256"
				},
				{
					"internalType": "uint256",
					"name": "_to",
					"type": "uint256"
				},
				{
					"internalType": "uint256",
					"name": "_m",
					"type": "uint256"
				},
				{
					"internalType": "uint256",
					"name": "_n",
					"type": "uint256"
				}
			],
			"name": "testCompliant",
			"outputs": [
				{
					"internalType": "uint256",
					"name": "",
					"type": "uint256"
				}
			],
			"stateMutability": "nonpayable",
			"type": "function"
		},
		{
			"inputs": [
				{
					"internalType": "uint256",
					"name": "_m",
					"type": "uint256"
				},
				{
					"internalType": "uint256",
					"name": "_n",
					"type": "uint256"
				},
				{
					"internalType": "uint256",
					"name": "_times",
					"type": "uint256"
				}
			],
			"name": "testPowGas",
			"outputs": [
				{
					"internalType": "uint256",
					"name": "",
					"type": "uint256"
				}
			],
			"stateMutability": "nonpayable",
			"type": "function"
		}
	]
}